:100000000C9464000C948C000C948C000C948C0068
:100010000C948C000C948C000C948C000C948C0030
:100020000C948C000C948C000C948C000C948C0020
:100030000C948C000C948C000C948C000C948C0010
:100040000C943F050C948C000C9470060C94BE0626
:100050000C948C000C948C000C948C000C948C00F0
:100060000C9490030C948C000000000024002700E6
:100070002A0000000000250028002B0000000000DE
:1000800023002600290004040404040404040202DA
:100090000202020203030303030301020408102007
:1000A0004080010204081020010204081020000012
:1000B0000007000201000003040600000000000029
:1000C0000000CF002C022A0811241FBECFEFD8E079
:1000D000DEBFCDBF11E0A0E0B1E0E6EAF9E102C089
:1000E00005900D92AE33B107D9F712E0AEE3B1E05F
:1000F00001C01D92A53BB107E1F710E0C8ECD0E0CC
:1001000004C02297FE010E94B90CC23CD107C9F776
:100110000E9480080C94D10C0C940000FB01DC01BF
:1001200002C001900D9241505040D8F70895FB0154
:10013000DC0101900D920020E1F70895FB019F0181
:10014000E8944230C4F04532B4F44A3029F497FBC5
:100150001EF4909581959F4F642F77270E94BD0CC8
:10016000805D8A330CF0895D8193CB010097A1F704
:1001700016F45DE251931082C9010C94BF00DC01BA
:10018000FC01672F71917723E1F7329704C07C91CE
:100190006D9370836291AE17BF07C8F30895809185
:1001A00009018093120108958F929F92AF92BF929E
:1001B000CF92DF92EF92FF920F931F93DF93CF9333
:1001C000CDB7DEB76C970FB6F894DEBF0FBECDBFCC
:1001D00004E811E0C8016DE00E94F201C8016BE083
:1001E00071E042E050E00E944302C8010E94B70261
:1001F00061E070E080E090E00E948705C8016DE05A
:100200000E94F201C80163E171E042E050E00E9407
:100210004302C8010E94B70261E070E080E090E014
:100220000E948705C8016DE00E94F201C8016DE0DF
:1002300071E042E050E00E944302C8010E94B70210
:1002400061E070E080E090E00E948705C8016DE009
:100250000E94F201C8016FE071E042E050E00E94AC
:100260004302C8010E94B70261E070E080E090E0C4
:100270000E948705C8016DE00E94F201C8016DE08F
:1002800070E041E050E00E94C802C8010E94B7023D
:1002900061E070E080E090E00E948705C8016DE0B9
:1002A0000E94F201C80161E171E042E050E00E9469
:1002B0004302C8010E94B70261E070E080E090E074
:1002C0000E948705C8016DE00E94F201C80165E146
:1002D00071E042E050E00E944302C8010E94B70270
:1002E00061E070E080E090E00E948705C8016DE069
:1002F0000E94F201C8016DE070E042E050E00E940F
:10030000C802C8010E9405027C01C8010E940502C2
:100310005C0128E0822E912C8C0E9D1EC401B70139
:1003200040E10E94150A96E1C92ED12CCC0EDD1EAB
:10033000C601B4010E94680A8FE0E82EF12CEC0E91
:10034000FD1EC701B50140E10E94150AC601B701B3
:100350000E94C509BC015E010894A11CB11CC50125
:100360000E945D0AC7010E94730AC6010E94790AB1
:10037000C4010E94730AC8010E94B7020FE812E08C
:10038000C80160E071E00E94F508C801B5010E9453
:100390002B0964E670E080E090E00E948705C501CB
:1003A0000E94730A6C960FB6F894DEBF0FBECDBFE5
:1003B000CF91DF911F910F91FF90EF90DF90CF9041
:1003C000BF90AF909F908F90089584E891E00E9435
:1003D000CC028FE892E040E855E260E070E00E94D5
:1003E000F906089581E08093830160936001109283
:1003F000810110928201089520915F0130E0809187
:100400005E01281B3109C901089540915E01809168
:100410005F01481718F02FEF3FEF0AC0E42FF0E01C
:10042000E25CFE4F8081282F30E04F5F40935E01F9
:10043000C9010895E0915E0180915F01E81718F00D
:10044000EFEFFFEF06C0F0E0E25CFE4F8081E82FA7
:10045000F0E0CF010895089510928701109286016F
:1004600088EE93E0A0E0B0E080938801909389014A
:10047000A0938A01B0938B0181E291E09093850172
:10048000809384010895CF92DF92EF92FF920F93B1
:100490001F93CF93DF937C016B018A0180918301CD
:1004A0008823A1F0C0E0D0E00DC0D701ED91FC9110
:1004B000D601AC0FBD1F0190F081E02DC7016C91FA
:1004C00009952196C017D10780F304C0CB01642F92
:1004D0000E947503C801DF91CF911F910F91FF908A
:1004E000EF90DF90CF900895DF93CF930F92CDB729
:1004F000DEB7FC016983809183018823C9F0809174
:100500008201803238F081E090E09383828320E0A2
:1005100030E015C080918101E82FF0E0EF59FE4FE7
:10052000998190838F5F809381018093820105C0C0
:10053000CE01019661E00E94750321E030E0C9011F
:100540000F90CF91DF9108950F93062F8091600156
:1005500061E671E04091820121E00E942003109247
:10056000810110928201109283010F91089561E040
:100570000E94A4020895413208F040E2862F6EE303
:1005800071E00E94D70210925E0180935F0108958E
:1005900021E00E94BB02089510925E0110925F015B
:1005A00010928101109282010E9421050895382F36
:1005B000413210F040E042C0809190018823E1F781
:1005C00091E090939001209392018FEF8093FD0131
:1005D0001092B80141504093B9014F5F909391013F
:1005E00080919101330F832B80939101809193012E
:1005F000813041F410929301809191018093BB006E
:1006000085EC01C085EE8093BC0080919001813023
:10061000E1F38091B801841710F44091B80120E013
:1006200030E00AC0FB01E20FF31FD901A856BE4F0C
:100630008C9180832F5F3F4F2417A0F3842F089560
:100640000F931F93582F122F413210F081E04AC0B0
:10065000809190018823E1F782E0809390010093DC
:1006600092018FEF8093FD011092B8014093B90180
:10067000A8E9B1E0FB0102C081918D938E2F861B0A
:100680008417D0F31092910180919101550F852B21
:100690008093910180919301813041F410929301F4
:1006A000809191018093BB0085EC01C085EE809321
:1006B000BC00112321F0809190018230E1F3809100
:1006C000FD018F3F11F480E00DC08091FD0180326B
:1006D00011F482E007C08091FD01803311F084E0C5
:1006E00001C083E01F910F910895482F613210F0EF
:1006F00081E0089580919001843011F082E00895A6
:100700006093DB01AAEBB1E0842F9C01F90102C0E8
:1007100081918D938E2F841B8617D0F380E00895EE
:100720001F920F920FB60F9211242F933F934F9366
:100730005F936F937F938F939F93AF93BF93EF9349
:10074000FF938091B90090E0887F9070803691058A
:1007500009F4F2C081369105CCF58832910509F48F
:100760007BC089329105B4F48031910509F46FC0E2
:10077000813191053CF4009709F447C1089709F0CD
:100780004FC165C08831910509F466C0809709F0B2
:1007900047C182C08034910509F4A4C08134910519
:1007A00044F48033910509F482C0C89709F038C138
:1007B00089C08035910509F489C08835910509F40F
:1007C00096C08834910509F02BC1AEC088399105D7
:1007D00009F413C189399105ECF48837910509F4BE
:1007E000ABC0893791054CF48836910509F4A4C053
:1007F0008037910509F014C19FC08838910509F42C
:10080000FCC08039910509F49DC08038910509F03C
:1008100007C198C0803B910509F4C6C0813B910592
:100820004CF4803A910509F49FC0883A910509F08B
:10083000F7C0BAC0803C910509F4E3C0883C91053B
:1008400009F4DFC0883B910509F0EAC0C2C080917D
:1008500091018093BB00CFC09091B8018091B90104
:10086000981768F49091B801E92FF0E0E856FE4F30
:1008700080818093BB009F5F9093B801BCC0809142
:100880009201882309F44BC085ED8093BC008091D0
:10089000BC0084FDFCCFC2C080E28093FD0185EDE9
:1008A0008093BC008091BC0084FDFCCFB7C080E386
:1008B0008093FD0185ED8093BC008091BC0084FD98
:1008C000FCCFACC088E38093FD019BC08091B80150
:1008D0009091BB00E82FF0E0E856FE4F90838F5FC9
:1008E0008093B8019091B8018091B90182C0809144
:1008F000B8019091BB00E82FF0E0E856FE4F9083DE
:100900008F5F8093B80180919201882341F085ED3B
:100910008093BC008091BC0084FDFCCF7FC081E04F
:100920008093930184EA6EC085ED8093BC00809132
:10093000BC0084FDFCCF72C083E0809390011092D4
:10094000FC0159C08091FC01803208F056C08091B2
:10095000FC019091BB00E82FF0E0E452FE4F908341
:100960008F5F8093FC0147C08091FC01803230F49E
:10097000E091FC01F0E0E452FE4F108285ED80939F
:10098000BC008091BC0084FDFCCF1092900160916E
:10099000FC01E0919601F09197018CED91E070E0FF
:1009A00009951092FC012DC084E080939001109273
:1009B000DA011092DB01E0919401F0919501099523
:1009C0008091DB01882329F481E08093DB01109280
:1009D000BA019091DA01E92FF0E0E654FE4F8081F0
:1009E0008093BB009F5F9093DA019091DA01809130
:1009F000DB01981710F485EC01C085E88093BC00FA
:100A00000FC085EC8093BC0009C01092FD0185EDFC
:100A10008093BC008091BC0084FDFCCF10929001BB
:100A2000FF91EF91BF91AF919F918F917F916F91C6
:100A30005F914F913F912F910F900FBE0F901F909C
:100A400018951092900181E0809392011092930189
:100A500082E161E00E941B0683E161E00E941B06C7
:100A6000E9EBF0E080818E7F808380818D7F8083C1
:100A700088E48093B80085E48093BC0008951F92B9
:100A80000F920FB60F9211242F933F938F939F9342
:100A9000AF93BF938091020290910302A091040250
:100AA000B0910502309106020196A11DB11D232FC0
:100AB0002D5F2D3720F02D570196A11DB11D2093DC
:100AC00006028093020290930302A0930402B09363
:100AD00005028091FE019091FF01A0910002B0916A
:100AE00001020196A11DB11D8093FE019093FF01AB
:100AF000A0930002B0930102BF91AF919F918F919B
:100B00003F912F910F900FBE0F901F9018959B0152
:100B1000AC017FB7F8948091FE019091FF01A09104
:100B20000002B091010266B5A89B05C06F3F19F0A5
:100B30000196A11DB11D7FBFBA2FA92F982F88271D
:100B4000860F911DA11DB11D62E0880F991FAA1F7C
:100B5000BB1F6A95D1F7BC012DC0FFB7F8948091F7
:100B6000FE019091FF01A0910002B0910102E6B553
:100B7000A89B05C0EF3F19F00196A11DB11DFFBF55
:100B8000BA2FA92F982F88278E0F911DA11DB11D57
:100B9000E2E0880F991FAA1FBB1FEA95D1F7861BB9
:100BA000970B885E9340C8F221503040404050403F
:100BB00068517C4F211531054105510571F60895A5
:100BC000789484B5826084BD84B5816084BD85B528
:100BD000826085BD85B5816085BDEEE6F0E08081EF
:100BE00081608083E1E8F0E0108280818260808310
:100BF000808181608083E0E8F0E080818160808393
:100C0000E1EBF0E0808184608083E0EBF0E08081C4
:100C100081608083EAE7F0E0808184608083808166
:100C2000826080838081816080838081806880830E
:100C30001092C1000895482F50E0CA0182559F4F7D
:100C4000FC012491CA0186569F4FFC0194914A579A
:100C50005F4FFA013491332309F440C0222351F14C
:100C6000233071F0243028F42130A1F0223011F526
:100C700014C02630B1F02730C1F02430D9F404C0BC
:100C8000809180008F7703C0809180008F7D80935A
:100C9000800010C084B58F7702C084B58F7D84BD7D
:100CA00009C08091B0008F7703C08091B0008F7D24
:100CB0008093B000E32FF0E0EE0FFF1FEE58FF4FE0
:100CC000A591B4912FB7F894662321F48C91909557
:100CD000892302C08C91892B8C932FBF089508958E
:100CE0001F920F920FB60F9211242F933F934F93A1
:100CF0008F939F93EF93FF938091C00082FD1DC05F
:100D00004091C60020914702309148022F5F3F4F2B
:100D10002F7330708091490290914A022817390749
:100D200071F0E0914702F0914802E95FFD4F408386
:100D3000309348022093470202C08091C600FF9181
:100D4000EF919F918F914F913F912F910F900FBEF7
:100D50000F901F901895E0919B02F0919C02E05C2F
:100D6000FF4F8191919120813181821B930B8F7371
:100D70009070892B11F00E946F0608951F920F92B8
:100D80000FB60F9211242F933F938F939F93EF935E
:100D9000FF9320918B0230918C0280918D02909173
:100DA0008E022817390731F48091C1008F7D80931E
:100DB000C10014C0E0918D02F0918E02E55BFD4F01
:100DC000208180918D0290918E0201968F73907098
:100DD00090938E0280938D022093C600FF91EF9135
:100DE0009F918F913F912F910F900FBE0F901F9069
:100DF0001895AF92BF92DF92EF92FF920F931F93DD
:100E0000CF93DF93EC017A018B01DD24403081EE3A
:100E1000580780E0680780E0780711F0DD24D3945C
:100E200091E0A92EB12CEC89FD89DD2069F0C50186
:100E300008A002C0880F991F0A94E2F7808360E03F
:100E400079E08DE390E005C0108260E874E88EE1FF
:100E500090E0A80197010E94950C2150304040403D
:100E60005040569547953795279580E120303807B3
:100E700020F0DD2011F0DD24D6CFE889F989308318
:100E8000EA89FB89208319A2EE89FF89408121E04C
:100E900030E0C9010C8C02C0880F991F0A94E2F758
:100EA000482B4083EE89FF894081C9010D8C02C027
:100EB000880F991F0A94E2F7482B4083EE89FF8937
:100EC0004081C9010E8C02C0880F991F0A94E2F775
:100ED000482B4083EE89FF8980810F8C02C0220F4E
:100EE000331F0A94E2F7209528232083DF91CF91C6
:100EF0001F910F91FF90EF90DF90BF90AF900895FA
:100F0000DC011C96ED91FC911D97E05CFF4F219157
:100F1000319180819181281B390B2F733070C90169
:100F20000895DC011C96ED91FC911D97E05CFF4F4C
:100F300020813181E054F040DF01AE5BBF4F8D91E5
:100F40009C9111972817390719F42FEF3FEF07C02D
:100F50008D919C91E80FF91F8081282F30E0C90105
:100F60000895DC011C96ED91FC911D97E05CFF4F0C
:100F700020813181E054F040DF01AE5BBF4F8D91A5
:100F80009C9111972817390719F42FEF3FEF10C0E4
:100F90008D919C911197E80FF91F20818D919C9163
:100FA000119701968F73907011969C938E9330E0F9
:100FB000C9010895DC0191968C919197882339F0AD
:100FC0005496ED91FC915597808186FFF9CF9196CB
:100FD0001C920895CF93DF93EC01EE85FF85E05CD2
:100FE000FF4F20813181E054F0402F5F3F4F2F733E
:100FF0003070DF01AE5BBF4F8D919C911197281728
:101000003907D1F3E05CFF4F80819181E054F040DB
:10101000E80FF91F6083EE85FF85E05CFF4F3183A9
:101020002083EE89FF89208181E090E00F8C02C04F
:10103000880F991F0A94E2F7282B208381E089A367
:10104000EC89FD8980818064808381E090E0DF917C
:10105000CF910895109292021092910288EE93E03F
:10106000A0E0B0E08093930290939402A093950245
:10107000B093960281E391E09093900280938F0267
:1010800087E092E090939C0280939B028BE492E035
:1010900090939E0280939D0285EC90E09093A00235
:1010A00080939F0284EC90E09093A2028093A1022F
:1010B00080EC90E09093A4028093A30281EC90E0F6
:1010C0009093A6028093A50282EC90E09093A802F0
:1010D0008093A70286EC90E09093AA028093A902E5
:1010E00084E08093AB0283E08093AC0287E080933E
:1010F000AD0285E08093AE0281E08093AF02089557
:10110000CF93DF930E94E0050E94E501CBEAD6E091
:101110000E94D4002097E1F30E94AB06F9CFCF9252
:10112000DF92EF92FF920F931F93CF93DF937C0197
:101130006B018A01C0E0D0E00FC0D6016D916D0156
:10114000D701ED91FC910190F081E02DC701099547
:10115000C80FD91F015010400115110571F7CE01BC
:10116000DF91CF911F910F91FF90EF90DF90CF9083
:101170000895EF92FF920F931F938C01DC01ED9184
:10118000FC910190F081E02D6DE009957C01D80182
:10119000ED91FC910190F081E02DC8016AE0099584
:1011A0009C012E0D3F1DC9011F910F91FF90EF90E3
:1011B0000895CF93DF93EC016115710519F420E0D8
:1011C00030E00FC0DB010D900020E9F71197A61B5E
:1011D000B70BE881F9810280F381E02DAD0109951B
:1011E0009C01C901DF91CF9108950E94D90808950B
:1011F000AF92BF92CF92DF92EF92FF920F931F9325
:10120000CF93DF935C016B01EE24FF24C0E0D0E0BC
:1012100010C0D501ED91FC9100811181C601BE0184
:101220000E943F09682FC501F8010995E80EF91ED3
:101230002196F60184819581C817D90750F3C7011B
:10124000DF91CF911F910F91FF90EF90DF90CF90A2
:10125000BF90AF900895EF92FF920F931F937C0180
:101260000E94F8088C01C7010E94B9089C01200F58
:10127000311FC9011F910F91FF90EF900895FC015C
:10128000848195816817790748F40190F081E02DF9
:10129000309721F0E60FF71F8081089580E00895D0
:1012A0000F931F93CF93DF93EC018B016F5F7F4F01
:1012B000888199810E94B40B009711F480E005C0E9
:1012C000998388831B830A8381E0DF91CF911F91EB
:1012D0000F910895CF93DF93EC0188819981892B39
:1012E00029F08A819B818617970760F4CE010E94BE
:1012F0005009882341F08C819D81892B19F4E88164
:10130000F981108281E0DF91CF910895EF92FF92F1
:101310000F931F93CF93DF93EC017B016C817D8151
:10132000E114F104C1F04115510599F08A01060F4D
:10133000171FB8010E946A09882369F08881998182
:101340002C813D81820F931FB7010E9497001D835E
:101350000C8381E001C080E0DF91CF911F910F915C
:10136000FF90EF900895CF93DF93EC0188819981EE
:10137000009711F00E941C0B198218821D821C829A
:101380001B821A82DF91CF9108950F931F93182F1C
:10139000092FFB0160817181448155810E9486097A
:1013A000882321F4812F902F0E94B309812F902F41
:1013B0001F910F910895EF92FF920F931F93CF9378
:1013C000DF93EC017B018A01BA010E946A0988233C
:1013D00021F4CE010E94B30907C01D830C838881CC
:1013E0009981B7010E949700CE01DF91CF911F91A3
:1013F0000F91FF90EF9008950F931F93182F092FCF
:101400006115710559F0DB010D900020E9F7119786
:10141000A61BB70BAD010E94DB0902C00E94B309F5
:10142000812F902F1F910F910895EF92FF920F93AC
:101430001F93DF93CF93CDB7DEB762970FB6F894C3
:10144000DEBF0FBECDBF8C01CB01F801118210822F
:10145000138212821582148216827E010894E11C86
:10146000F11CB70150E00E949E00C801B7010E9424
:10147000FC0962960FB6F894DEBF0FBECDBFCF91C8
:10148000DF911F910F91FF90EF900895CF93DF931D
:10149000EC01FB018617970761F06081718161158E
:1014A000710529F0448155810E94DB0902C00E9428
:1014B000B309CE01DF91CF910895FC011182108212
:1014C000138212821582148216820E94460A08959F
:1014D000FC011182108213821282158214821682FC
:1014E0000E94460A0895FC01808191810E941C0B94
:1014F0000895FC01808191810E941C0B08950F9337
:101500001F93CF93DF93BC018230910510F462E00A
:1015100070E0E091B302F091B402A0E0B0E040E0EE
:1015200050E024C08081918186179707D0F08617FC
:10153000970771F482819381109729F013969C93F9
:101540008E9312972CC09093B4028093B30227C05D
:101550004115510519F08417950718F4EF018D0115
:10156000AC01DF01828193819C01F9013097D1F6B2
:1015700041155105F9F0CA01861B970B843091057E
:1015800080F48A819B810115110521F0F801938374
:10159000828304C09093B4028093B302FE0132961A
:1015A00045C0FE01E80FF91F61937193029799837B
:1015B00088833CC08091B1029091B202892B41F4A2
:1015C0008091190190911A019093B2028093B10217
:1015D00040911B0150911C014115510541F44DB73B
:1015E0005EB78091170190911801481B590B20910B
:1015F000B1023091B20224173507B0F4CA01821B40
:10160000930B8617970780F0AB014E5F5F4F8417EF
:10161000950750F0420F531F5093B2024093B1020E
:10162000F9016193719302C0E0E0F0E0CF01DF9136
:10163000CF911F910F910895CF93DF939C01009755
:1016400009F48FC0EC0122971B821A826091B302C9
:101650007091B4026115710581F488819981820FBE
:10166000931F2091B1023091B2022817390739F542
:10167000D093B202C093B10274C0DB0140E050E0ED
:10168000AC17BD0708F1BB83AA83FE0121913191FC
:10169000E20FF31FAE17BF0779F48D919C9111975C
:1016A000280F391F2E5F3F4F3983288312968D9163
:1016B0009C9113979B838A834115510571F4D093B4
:1016C000B402C093B3024DC012968D919C911397B2
:1016D000AD01009711F0DC01D3CFDA011396DC9352
:1016E000CE931297FA0121913191E20FF31FCE1799
:1016F000DF0769F488819981280F391F2E5F3F4FDA
:10170000FA01318320838A819B8193838283E0E085
:10171000F0E0DB0112968D919C911397009719F0E0
:10172000BC01FD01F6CFAB014E5F5F4FDB018D9138
:101730009C91840F951F2091B1023091B20228171D
:10174000390779F4309729F41092B4021092B30259
:1017500002C013821282425050405093B202409312
:10176000B102DF91CF9108956F927F928F929F92F5
:10177000AF92BF92CF92DF92EF92FF920F931F939F
:10178000CF93DF938C01009729F4CB010E947F0A4D
:101790008C01BBC08EEFE82E8FEFF82EE00EF11E0D
:1017A0004801860E971E8E149F0408F4ACC0D70122
:1017B0004D915C91119746175707B8F04530510588
:1017C00008F4A3C0CA0104978617970708F49DC0C0
:1017D00042505040461B570BF401419351936D9377
:1017E0007C93CF010E941C0B90C05B01A41AB50A28
:1017F0003801640E751EA091B302B091B402CC24DE
:10180000DD24E0E0F0E047C0A615B705A9F5CD91CD
:10181000DC911197CE0102968A159B0568F1CE01E5
:101820008A199B09029612962C91129713963C9155
:10183000059758F0F40122833383CA19DB09D18359
:10184000C083D7016D937C9309C04E5F5F4F4C0FEF
:101850005D1FF70151834083C901FC01C114D1040C
:1018600031F0D6011396FC93EE9312974EC0F0938D
:10187000B402E093B30249C08D919C911197E8178F
:10188000F90708F4FC016D0112968C9112971396DA
:101890009C919C01D901109709F0B6CF8091B102BB
:1018A0009091B20286159705E9F4E617F707D0F490
:1018B00020911B0130911C012115310541F42DB7F8
:1018C0003EB78091170190911801281B390B8216A1
:1018D0009306C8F49092B2028092B102F70171832C
:1018E000608313C0CB010E947F0AEC01009759F07E
:1018F000D7014D915C91B8010E948E00C8010E94F1
:101900001C0B8E0102C000E010E0C801DF91CF91F6
:101910001F910F91FF90EF90DF90CF90BF90AF900D
:101920009F908F907F906F900895A1E21A2EAA1B2E
:10193000BB1BFD010DC0AA1FBB1FEE1FFF1FA2177F
:10194000B307E407F50720F0A21BB30BE40BF50B7C
:10195000661F771F881F991F1A9469F76095709505
:10196000809590959B01AC01BD01CF010895EE0FCC
:10197000FF1F0590F491E02D0994AA1BBB1B51E1B8
:1019800007C0AA1FBB1FA617B70710F0A61BB70BEF
:10199000881F991F5A95A9F780959095BC01CD0194
:0619A0000895F894FFCF4A
:1019A60054656D702069732000920080B08090B0FD
:1019B6008FB0008101A1028000B502000000000086
:1019C6000074024302FC0105021A022B0200000009
:0E19D60000EA078F088007B1079107DA0700C3
:00000001FF
