:100000000C947A000C94A2000C94A2000C94A20010
:100010000C94A2000C94A2000C94A2000C94A200D8
:100020000C94A2000C94A2000C94A2000C94A200C8
:100030000C94A2000C94A2000C94A2000C94A200B8
:100040000C94EA060C94A2000C945A080C94A8088C
:100050000C94A2000C94A2000C94A2000C94A20098
:100060000C943B050C94A200084AD73B3BCE016E92
:1000700084BCBFFDC12F3D6C74319ABD56833DDAFF
:100080003D00C77F11BED9E4BB4C3E916BAAAABE0E
:10009000000000803F00000000240027002A00002C
:1000A000000000250028002B00000000002300268F
:1000B00000290004040404040404040202020202ED
:1000C000020303030303030102040810204080011C
:1000D000020408102001020408102000000007009C
:1000E0000201000003040600000000000000000000
:1000F000D703140A11241FBECFEFD8E0DEBFCDBF57
:1001000011E0A0E0B1E0E6E6FFE102C005900D924B
:10011000AE37B107D9F712E0AEE7B1E001C01D92EA
:10012000A23FB107E1F710E0C4EFD0E004C022978E
:10013000FE010E94AD0FC03FD107C9F70E946A0AB5
:100140000C94B10F0C940000CF93DF93EA012FE3DE
:100150003BEF4FE75AE40E94200D20E030E040E002
:100160005DE40E949B0E0E94880DC230D10539F0DB
:10017000C330D10531F0219729F080E003C0872FEB
:1001800001C0862FDF91CF910895EF92FF920F93D8
:100190001F93182F062F85ECE82E81E0F82EC7015B
:1001A0006DE070E00E949D03C701612F0E941F0453
:1001B000C701602F0E941F04C7010E94620461E012
:1001C00070E080E090E00E9432071F910F91FF9055
:1001D000EF90089580E890E061E070E00E94C50033
:1001E0008AE890E067E070E00E94C5008BE890E04C
:1001F0006FEF70E00E94C50060E070E48CE196E46F
:1002000041E050E00E94A400682F82E890E070E096
:100210000E94C50060E070E48CE196E442E050E0AA
:100220000E94A400682F83E890E070E00E94C5005F
:1002300060E070E48CE196E443E050E00E94A400AA
:10024000682F84E890E070E00E94C50060E070E4F0
:100250008CE995E441E050E00E94A400682F85E815
:1002600090E070E00E94C50060E070E48CE995E4E5
:1002700042E050E00E94A400682F86E890E070E021
:100280000E94C50060E070E48CE995E443E050E032
:100290000E94A400682F87E890E070E00E94C500EB
:1002A00088E890E060E070E00E94C50089E890E096
:1002B00064E670E00E94C500089585EC91E00E941C
:1002C000770480ED92E040E855E260E070E00E9443
:1002D000E30882E060E00E94C60780E890E060E00A
:1002E00070E00E94C50081E890E060E170E00E944B
:1002F000C5000E94EA0008951F93CF93DF93182F43
:1003000085EC91E06DE070E00E949D0385EC91E04A
:1003100060EB0E941F0485EC91E0612F0E941F0496
:1003200085EC91E00E94620461E070E080E090E082
:100330000E94320785EC91E06DE070E041E050E012
:100340000E94730485EC91E00E94A7031816190619
:100350001CF0CFEFDFEF05C085EC91E00E94B00309
:10036000EC0161E070E080E090E00E943207CE0195
:10037000DF91CF911F910895EF92FF920F931F93FA
:1003800080E890E060E970E00E94C5006AE070E0FB
:1003900080E090E00E9432078FE890E00E947C01AC
:1003A00080FD02C080E039C082E990E00E947C01BB
:1003B000F82EEE2483E990E00E947C01E82AF92AD5
:1003C00080ED92E060E071E00E94920B8FEF9FE37E
:1003D000E822F9220027F7FC0095102FC801B70189
:1003E0000E94BB0D20E030E040E05DE30E949B0EE8
:1003F000AB01BC0180ED92E022E030E00E94790C7C
:1004000080ED92E06EE071E00E947C0C80E890E06C
:1004100060EA70E00E94C50081E01F910F91FF909B
:10042000EF9008952F923F924F925F926F927F923A
:100430008F929F92AF92BF92CF92DF92EF92FF92F4
:100440000F931F93DF93CF9300D0CDB7DEB70E94F9
:10045000EA0080E890E00E947C01BC016770707047
:10046000606B80E890E00E94C50080E890E00E9408
:100470007C01BC0167707070606180E890E00E9450
:10048000C50080E890E00E947C01BC01677070703C
:10049000606280E890E00E94C5001A821982FDC067
:1004A00064E670E080E090E00E9432078FE890E020
:1004B0000E947C0181FFF1C084E990E00E947C01F0
:1004C000982E85E990E00E947C01E82E86E990E074
:1004D0000E947C01582E87E990E00E947C01A82EA2
:1004E000392C2224FF24E228F3280027F7FC00956A
:1004F000102FC801B7010E94BB0D3B014C01A401A4
:1005000093010E949B0E7B018C014424BB24A428F0
:10051000B528CC24B7FCC094DC2CC601B5010E94E0
:10052000BB0D5B016C01A60195010E949B0E9B0116
:10053000AC01C801B7010E94900C0E94020F7B0120
:100540008C01C601B501A40193010E94200D0E94F7
:10055000F40C5B016C0180ED92E061E171E00E94BE
:10056000920B29813A81B901882777FD8095982FD0
:100570000E94BB0D20E030E44CE955E40E949B0E44
:1005800020E030E44CE156E40E94900C20E030E0A2
:100590004AE754E40E94200DAB01BC0180ED92E0DB
:1005A00022E030E00E94790C80ED92E06DE171E094
:1005B0000E94920B80ED92E063E271E00E94920B48
:1005C000C801B70122E635E04EE050E30E949B0EE1
:1005D0009B01AC0160E070E080E89FE30E94200D89
:1005E00020E030E04AE754E40E94200DAB01BC015A
:1005F00080ED92E022E030E00E94790C80ED92E004
:1006000060E371E00E94920B80ED92E067E371E09D
:100610000E94920B80ED92E0B801A70122E030E049
:100620000E94790C80ED92E064E471E00E94920BEC
:1006300080ED92E066E471E00E94920BC601B50184
:1006400022EE3EE245E652E40E949B0EAB01BC0165
:1006500080ED92E022E030E00E94790C80ED92E0A3
:1006600064E471E00E947C0C8FE890E00E947C01C1
:100670008770907004978CF480E890E00E947C0171
:10068000BC0167707070606380E890E00E94C500F4
:1006900089819A8101969A8389838FE890E00E94EC
:1006A0007C018770907004970CF4FACE80E890E09B
:1006B0000E947C01BC0167707070606A80E890E005
:1006C0000E94C5000F900F90CF91DF911F910F9165
:1006D000FF90EF90DF90CF90BF90AF909F908F9062
:1006E0007F906F905F904F903F902F90089580ED96
:1006F00092E00E946A0918161906F4F480ED92E05F
:100700000E949B0980937E01823439F0833441F04A
:10071000813471F40E94EA000BC00E94BC0108C041
:100720000E94120268EE73E080E090E00E943207BF
:1007300080ED92E00E94C409089581E08093C40195
:100740006093A1011092C2011092C30108952091FB
:10075000A00130E080919F01281B3109C901089553
:1007600040919F018091A001481718F02FEF3FEFB3
:100770000AC0E42FF0E0E158FE4F8081282F30E0DE
:100780004F5F40939F01C9010895E0919F018091BF
:10079000A001E81718F0EFEFFFEF06C0F0E0E15816
:1007A000FE4F8081E82FF0E0CF0108950895109268
:1007B000C8011092C70188EE93E0A0E0B0E08093FA
:1007C000C9019093CA01A093CB01B093CC0181E6FB
:1007D00091E09093C6018093C5010895CF92DF9276
:1007E000EF92FF920F931F93CF93DF937C016B01E6
:1007F0008A018091C4018823A1F0C0E0D0E00DC03F
:10080000D701ED91FC91D601AC0FBD1F0190F08195
:10081000E02DC7016C9109952196C017D10780F38F
:1008200004C0CB01642F0E942005C801DF91CF9145
:100830001F910F91FF90EF90DF90CF900895DF937D
:10084000CF930F92CDB7DEB7FC0169838091C401CD
:100850008823C9F08091C301803238F081E090E0B4
:100860009383828320E030E015C08091C201E82F9D
:10087000F0E0EE55FE4F998190838F5F8093C20127
:100880008093C30105C0CE01019661E00E9420055E
:1008900021E030E0C9010F90CF91DF9108950F93CF
:1008A000062F8091A10162EA71E04091C30121E02D
:1008B0000E94CB041092C2011092C3011092C40195
:1008C0000F91089561E00E944F040895413208F0AD
:1008D00040E2862F6FE771E00E94820410929F0130
:1008E0008093A001089521E00E946604089510926B
:1008F0009F011092A0011092C2011092C3010E94A8
:10090000CC060895382F413210F040E042C080916B
:10091000D1018823E1F791E09093D1012093D30195
:100920008FEF80933E021092F90141504093FA01FB
:100930004F5F9093D2018091D201330F832B80932C
:10094000D2018091D401813041F41092D401809180
:10095000D2018093BB0085EC01C085EE8093BC0082
:100960008091D1018130E1F38091F901841710F475
:100970004091F90120E030E00AC0FB01E20FF31FD3
:10098000D901A752BE4F8C9180832F5F3F4F241710
:10099000A0F3842F08950F931F93582F122F4132E5
:1009A00010F081E04AC08091D1018823E1F782E014
:1009B0008093D1010093D3018FEF80933E02109278
:1009C000F9014093FA01A9EDB1E0FB0102C0819168
:1009D0008D938E2F861B8417D0F31092D2018091B5
:1009E000D201550F852B8093D2018091D4018130A3
:1009F00041F41092D4018091D2018093BB0085EC28
:100A000001C085EE8093BC00112321F08091D101BB
:100A10008230E1F380913E028F3F11F480E00DC0FF
:100A200080913E02803211F482E007C080913E0244
:100A3000803311F084E001C083E01F910F9108958D
:100A4000482F613210F081E008958091D101843007
:100A500011F082E0089560931C02ABEFB1E0842FA7
:100A60009C01F90102C081918D938E2F841B861702
:100A7000D0F380E008951F920F920FB60F921124C9
:100A80002F933F934F935F936F937F938F939F9396
:100A9000AF93BF93EF93FF938091B90090E0887F6D
:100AA00090708036910509F4F2C081369105CCF53D
:100AB0008832910509F47BC089329105B4F4803104
:100AC000910509F46FC0813191053CF4009709F458
:100AD00047C1089709F04FC165C08831910509F4F5
:100AE00066C0809709F047C182C08034910509F43F
:100AF000A4C08134910544F48033910509F482C087
:100B0000C89709F038C189C08035910509F489C0BA
:100B10008835910509F496C08834910509F02BC1F8
:100B2000AEC08839910509F413C189399105ECF4F7
:100B30008837910509F4ABC0893791054CF48836A4
:100B4000910509F4A4C08037910509F014C19FC034
:100B50008838910509F4FCC08039910509F49DC0DD
:100B60008038910509F007C198C0803B910509F4D0
:100B7000C6C0813B91054CF4803A910509F49FC0B1
:100B8000883A910509F0F7C0BAC0803C910509F494
:100B9000E3C0883C910509F4DFC0883B910509F06A
:100BA000EAC0C2C08091D2018093BB00CFC09091B7
:100BB000F9018091FA01981768F49091F901E92FF1
:100BC000F0E0E752FE4F80818093BB009F5F9093DF
:100BD000F901BCC08091D301882309F44BC085ED95
:100BE0008093BC008091BC0084FDFCCFC2C080E239
:100BF00080933E0285ED8093BC008091BC0084FD13
:100C0000FCCFB7C080E380933E0285ED8093BC00AB
:100C10008091BC0084FDFCCFACC088E380933E0291
:100C20009BC08091F9019091BB00E82FF0E0E75262
:100C3000FE4F90838F5F8093F9019091F90180912D
:100C4000FA0182C08091F9019091BB00E82FF0E099
:100C5000E752FE4F90838F5F8093F9018091D3011B
:100C6000882341F085ED8093BC008091BC0084FD19
:100C7000FCCF7FC081E08093D40184EA6EC085ED13
:100C80008093BC008091BC0084FDFCCF72C083E0E7
:100C90008093D10110923D0259C080913D02803273
:100CA00008F056C080913D029091BB00E82FF0E023
:100CB000E35EFD4F90838F5F80933D0247C080913C
:100CC0003D02803230F4E0913D02F0E0E35EFD4F02
:100CD000108285ED8093BC008091BC0084FDFCCF28
:100CE0001092D10160913D02E091D701F091D801BD
:100CF0008DE192E070E0099510923D022DC084E0F4
:100D00008093D10110921B0210921C02E091D50138
:100D1000F091D601099580911C02882329F481E085
:100D200080931C021092FB0190911B02E92FF0E0CE
:100D3000E550FE4F80818093BB009F5F90931B0224
:100D400090911B0280911C02981710F485EC01C051
:100D500085E88093BC000FC085EC8093BC0009C07F
:100D600010923E0285ED8093BC008091BC0084FD12
:100D7000FCCF1092D101FF91EF91BF91AF919F9164
:100D80008F917F916F915F914F913F912F910F9034
:100D90000FBE0F901F9018951092D10181E08093A3
:100DA000D3011092D40182E161E00E94050883E141
:100DB00061E00E940508E9EBF0E080818E7F80838E
:100DC00080818D7F808388E48093B80085E4809360
:100DD000BC0008951F920F920FB60F9211242F930B
:100DE0003F938F939F93AF93BF93809143029091D2
:100DF0004402A0914502B09146023091470201960B
:100E0000A11DB11D232F2D5F2D3720F02D570196E9
:100E1000A11DB11D20934702809343029093440289
:100E2000A0934502B093460280913F029091400208
:100E3000A0914102B09142020196A11DB11D809383
:100E40003F0290934002A0934102B0934202BF91AF
:100E5000AF919F918F913F912F910F900FBE0F9067
:100E60001F9018959B01AC017FB7F89480913F02C9
:100E700090914002A0914102B091420266B5A89BB8
:100E800005C06F3F19F00196A11DB11D7FBFBA2F9C
:100E9000A92F982F8827860F911DA11DB11D62E0F3
:100EA000880F991FAA1FBB1F6A95D1F7BC012DC0DF
:100EB000FFB7F89480913F0290914002A0914102C7
:100EC000B0914202E6B5A89B05C0EF3F19F001962C
:100ED000A11DB11DFFBFBA2FA92F982F88278E0FF4
:100EE000911DA11DB11DE2E0880F991FAA1FBB1F14
:100EF000EA95D1F7861B970B885E9340C8F2215084
:100F000030404040504068517C4F2115310541052B
:100F1000510571F60895789484B5826084BD84B5D6
:100F2000816084BD85B5826085BD85B5816085BDE4
:100F3000EEE6F0E0808181608083E1E8F0E01082FD
:100F4000808182608083808181608083E0E8F0E03E
:100F5000808181608083E1EBF0E080818460808328
:100F6000E0EBF0E0808181608083EAE7F0E080815F
:100F700084608083808182608083808181608083BF
:100F80008081806880831092C1000895CF93DF93A1
:100F9000482F50E0CA0189539F4FFC0134914D54B2
:100FA0005F4FFA018491882369F190E0880F991FBF
:100FB000FC01EB56FF4FA591B491FC01E156FF4FA8
:100FC000C591D491662351F42FB7F8948C91932F47
:100FD000909589238C93888189230BC0623061F4BA
:100FE0002FB7F8948C91932F909589238C938881B7
:100FF000832B88832FBF06C09FB7F8948C91832BD7
:101000008C939FBFDF91CF910895482F50E0CA0184
:1010100085529F4FFC012491CA0189539F4FFC01C7
:1010200094914D545F4FFA013491332309F440C039
:10103000222351F1233071F0243028F42130A1F023
:10104000223011F514C02630B1F02730C1F0243021
:10105000D9F404C0809180008F7703C08091800014
:101060008F7D8093800010C084B58F7702C084B5D7
:101070008F7D84BD09C08091B0008F7703C08091BF
:10108000B0008F7D8093B000E32FF0E0EE0FFF1FE4
:10109000E156FF4FA591B4912FB7F894662321F440
:1010A0008C919095892302C08C91892B8C932FBFB2
:1010B000089508951F920F920FB60F9211242F9347
:1010C0003F934F938F939F93EF93FF938091C00033
:1010D00082FD1DC04091C600209188023091890296
:1010E0002F5F3F4F2F73307080918A0290918B0257
:1010F0002817390771F0E0918802F0918902E85BC6
:10110000FD4F4083309389022093880202C0809172
:10111000C600FF91EF919F918F914F913F912F9139
:101120000F900FBE0F901F901895E091DC02F09188
:10113000DD02E05CFF4F8191919120813181821B22
:10114000930B8F739070892B11F00E9459080895AA
:101150001F920F920FB60F9211242F933F938F93EC
:101160009F93EF93FF932091CC023091CD02809119
:10117000CE029091CF022817390731F48091C10037
:101180008F7D8093C10014C0E091CE02F091CF0218
:10119000E457FD4F20818091CE029091CF020196BD
:1011A0008F7390709093CF028093CE022093C600ED
:1011B000FF91EF919F918F913F912F910F900FBED3
:1011C0000F901F901895AF92BF92DF92EF92FF920F
:1011D0000F931F93CF93DF93EC017A018B01DD24F2
:1011E000403081EE580780E0680780E0780711F012
:1011F000DD24D39491E0A92EB12CEC89FD89DD206A
:1012000069F0C50108A002C0880F991F0A94E2F78F
:10121000808360E079E08DE390E005C0108260E8B3
:1012200074E88EE190E0A80197010E94890F215097
:10123000304040405040569547953795279580E17E
:101240002030380720F0DD2011F0DD24D6CFE889EA
:10125000F9893083EA89FB89208319A2EE89FF8905
:10126000408121E030E0C9010C8C02C0880F991F39
:101270000A94E2F7482B4083EE89FF894081C90137
:101280000D8C02C0880F991F0A94E2F7482B408307
:10129000EE89FF894081C9010E8C02C0880F991F19
:1012A0000A94E2F7482B4083EE89FF8980810F8CF6
:1012B00002C0220F331F0A94E2F7209528232083CF
:1012C000DF91CF911F910F91FF90EF90DF90BF9032
:1012D000AF900895DC011C96ED91FC911D97E05CA8
:1012E000FF4F2191319180819181281B390B2F7300
:1012F0003070C9010895DC011C96ED91FC911D9799
:10130000E05CFF4F20813181E054F040DF01AE5BB3
:10131000BF4F8D919C9111972817390719F42FEF22
:101320003FEF07C08D919C91E80FF91F8081282F16
:1013300030E0C9010895DC011C96ED91FC911D97E8
:10134000E05CFF4F20813181E054F040DF01AE5B73
:10135000BF4F8D919C9111972817390719F42FEFE2
:101360003FEF10C08D919C911197E80FF91F2081DC
:101370008D919C91119701968F73907011969C930B
:101380008E9330E0C9010895DC0191968C9191977C
:10139000882339F05496ED91FC915597808186FF12
:1013A000F9CF91961C920895CF93DF93EC01EE85CF
:1013B000FF85E05CFF4F20813181E054F0402F5FDA
:1013C0003F4F2F733070DF01AE5BBF4F8D919C910B
:1013D000119728173907D1F3E05CFF4F8081918185
:1013E000E054F040E80FF91F6083EE85FF85E05C74
:1013F000FF4F31832083EE89FF89208181E090E0D7
:101400000F8C02C0880F991F0A94E2F7282B2083C3
:1014100081E089A3EC89FD8980818064808381E0FB
:1014200090E0DF91CF9108951092D3021092D202F2
:1014300088EE93E0A0E0B0E08093D4029093D502D0
:10144000A093D602B093D70281E791E09093D102A6
:101450008093D00288E492E09093DD028093DC02D6
:101460008CE892E09093DF028093DE0285EC90E0BE
:101470009093E1028093E00284EC90E09093E30289
:101480008093E20280EC90E09093E5028093E40286
:1014900081EC90E09093E7028093E60282EC90E08A
:1014A0009093E9028093E80286EC90E09093EB023F
:1014B0008093EA0284E08093EC0283E08093ED0263
:1014C00087E08093EE0285E08093EF0281E08093D5
:1014D000F0020895CF93DF930E948B070E945D0175
:1014E000C5E9D8E00E9477032097E1F30E949508B0
:1014F000F9CFCF92DF92EF92FF920F931F93CF938A
:10150000DF937C016B018A01C0E0D0E00FC0D601FF
:101510006D916D01D701ED91FC910190F081E02D6D
:10152000C7010995C80FD91F0150104001151105B9
:1015300071F7CE01DF91CF911F910F91FF90EF9046
:10154000DF90CF900895EF92FF920F931F938C013D
:10155000DC01ED91FC910190F081E02D6DE00995A9
:101560007C01D801ED91FC910190F081E02DC80142
:101570006AE009959C012E0D3F1DC9011F910F9135
:10158000FF90EF900895CF93DF93EC016115710503
:1015900019F420E030E00FC0DB010D900020E9F7E6
:1015A0001197A61BB70BE881F9810280F381E02D2A
:1015B000AD0109959C01C901DF91CF9108954F922A
:1015C0005F927F928F929F92AF92BF92CF92DF9263
:1015D000EF92FF920F931F93DF93CF93CDB7DEB7B8
:1015E000A1970FB6F894DEBF0FBECDBF2C01742EAD
:1015F000CB01223008F42AE019A231E2C32ED12C0B
:10160000CC0EDD1E822E9924AA24BB24672D752FB3
:10161000A50194010E94890F79018A01C801B701CF
:10162000A50194010E946A0F472D461B0894C1082A
:10163000D1084A3014F4405D01C0495CF601408392
:10164000E114F1040105110521F07E2C5F2DC80184
:10165000DDCFC201B6010E94C30AA1960FB6F8946D
:10166000DEBF0FBECDBFCF91DF911F910F91FF90D5
:10167000EF90DF90CF90BF90AF909F908F907F9032
:101680005F904F900895DC012115310541F4ED91F3
:10169000FC910190F081E02D642F099508950E943E
:1016A000DF0A0895CF92DF92EF92FF920F931F937C
:1016B000CF93DF93EC016A017B012115310541F4E1
:1016C000E881F9810190F081E02D642F09951FC018
:1016D0002A303105D1F477FF17C0E881F9810190F4
:1016E000F081E02D6DE209958C0144275527BA0160
:1016F0004C195D096E097F09CE012AE00E94DF0ABC
:101700009801280F391F04C02AE00E94DF0A9C01BB
:10171000C901DF91CF911F910F91FF90EF90DF9062
:10172000CF9008950E94C30A08957F928F929F924E
:10173000AF92BF92CF92DF92EF92FF920F931F93DF
:10174000CF93DF934C017A018B01722ECB01BA014A
:10175000A80197010E944F0F882321F0C4016FE474
:1017600071E021C0C0E0D0E057016801E894D7F8EB
:10177000C601B5012FEF3FEF4FE75FE70E944F0F24
:10178000882351F4C601B5012FEF3FEF4FE75FE724
:101790000E941C0D181614F0C1E0D0E0219739F01A
:1017A000C40163E571E00E94C30AEC0193C0C80163
:1017B000B7012FEF3FEF4FE75FE40E94900E18163E
:1017C00054F0C801B7012FEF3FEF4FE75FEC0E94E5
:1017D0001C0D882324F4C40167E571E0E4CFC8013F
:1017E000B70120E030E040E050E00E941C0D87FD92
:1017F00003C0C0E0D0E00EC0D401ED91FC91019097
:10180000F081E02DC4016DE20995EC0117FB109504
:1018100017F9109520E030E040E05FE3DD240BC0D5
:10182000CA01B90120E030E040E251E40E94200DFD
:101830009B01AC01D394D71498F3C801B7010E945F
:10184000900C5B016C010E948D0D7B018C01C40129
:10185000B801A7012AE030E00E94430BC80FD91F4E
:10186000772039F0C4016BE571E00E94C30AC80F0C
:10187000D91FC801B7010E94B90D9B01AC01C60177
:10188000B5010E948F0C24C020E030E040E251E41A
:101890000E949B0E7B018C010E94880D5B016C01F4
:1018A000CC24B7FCC094DC2CC401B601A5012AE00D
:1018B00030E00E94520BC80FD91FC601B5010E942B
:1018C000BB0D9B01AC01C801B7010E948F0C7A943B
:1018D0007720D1F6CE01DF91CF911F910F91FF902C
:1018E000EF90DF90CF90BF90AF909F908F907F90C0
:1018F00008950E94950B0895EF92FF920F931F9306
:101900007C010E94C30A8C01C7010E94A30A080F30
:10191000191FC8011F910F91FF90EF900895505823
:10192000BB27AA270ED0C2C1B3D130F0B8D120F066
:1019300031F49F3F11F41EF483C10EF4E095E7FBF0
:1019400079C1E92FC4D180F3BA17620773078407FE
:10195000950718F071F49EF5DCC10EF4E0950B2E9E
:10196000BA2FA02D0B01B90190010C01CA01A001F1
:101970001124FF27591B99F0593F50F4503E68F14C
:101980001A16F040A22F232F342F4427585FF3CF8D
:10199000469537952795A795F0405395C9F77EF45E
:1019A0001F16BA0B620B730B840BBAF09150A1F0A7
:1019B000FF0FBB1F661F771F881FC2F70EC0BA0F2D
:1019C000621F731F841F48F4879577956795B795B5
:1019D000F7959E3F08F0B3CF9395880F08F09927AD
:1019E000EE0F979587950895DF93DD27B92FBF7781
:1019F00040E85FE31616170648075B0710F4D92F77
:101A000093D19F938F937F936F9346D2E8E6F0E054
:101A10001AD14CD12F913F914F915F9198D1DD23F5
:101A200049F09058A2EA2AED3FE049EC5FE3D07814
:101A30005D2787DFDF913AC1D9D008F481E00895AE
:101A40000CD034C12CD140F023D130F021F45F3FD1
:101A500019F0F0C051115EC1F3C039D198F3992348
:101A6000C9F35523B1F3951B550BBB27AA27621762
:101A70007307840738F09F5F5F4F220F331F441FA7
:101A8000AA1FA9F333D00E2E3AF0E0E830D09150DF
:101A90005040E695001CCAF729D0FE2F27D0660FCC
:101AA000771F881FBB1F261737074807AB07B0E80B
:101AB00009F0BB0B802DBF01FF2793585F4F2AF021
:101AC0009E3F510568F0B6C025C15F3FECF3983EDC
:101AD000DCF3869577956795B795F7959F5FC9F77E
:101AE000880F911D9695879597F90895E1E0660F07
:101AF000771F881FBB1F621773078407BA0720F080
:101B0000621B730B840BBA0BEE1F88F7E0950895E8
:101B100004D06894B111FEC00895E1D088F09F57B9
:101B200090F0B92F9927B751A0F0D1F0660F771F29
:101B3000881F991F1AF0BA95C9F712C0B13081F009
:101B4000E8D0B1E00895E5C0672F782F8827B85F07
:101B500039F0B93FCCF3869577956795B395D9F76A
:101B60003EF490958095709561957F4F8F4F9F4F74
:101B70000895E89409C097FB3EF490958095709580
:101B800061957F4F8F4F9F4F9923A9F0F92F96E9C9
:101B9000BB279395F695879577956795B795F1113E
:101BA000F8CFFAF4BB0F11F460FF1BC06F5F7F4FDB
:101BB0008F4F9F4F16C0882311F096E911C07723ED
:101BC00021F09EE8872F762F05C0662371F096E8F6
:101BD000862F70E060E02AF09A95660F771F881FC5
:101BE000DAF7880F9695879597F90895990F000869
:101BF000550FAA0BE0E8FEEF16161706E807F907DF
:101C0000C0F012161306E407F50798F0621B730B79
:101C1000840B950B39F40A2661F0232B242B252BFA
:101C200021F408950A2609F4A140A6958FEF811D9D
:101C3000811D089597F99F6780E870E060E008953E
:101C40009FEF80EC0895DF93CF931F930F93FF9244
:101C5000EF92DF927B018C01689405C0DA2EEF01D0
:101C600076D0FE01E894A591259135914591559145
:101C7000AEF3EF0166DEFE019701A801DA9479F771
:101C8000DF90EF90FF900F911F91CF91DF9108951A
:101C900000240A941616170618060906089500244B
:101CA0000A9412161306140605060895092E0394C5
:101CB000000C11F4882352F0BB0F40F4BF2B11F439
:101CC00060FF04C06F5F7F4F8F4F9F4F089557FD98
:101CD0009058440F551F59F05F3F71F04795880F9A
:101CE00097FB991F61F09F3F79F087950895121631
:101CF00013061406551FF2CF4695F1DF08C01616DD
:101D000017061806991FF1CF86957105610508948D
:101D10000895E894BB2766277727CB0197F90895A4
:101D200065DF08F48FEF08959B01AC0160E070E07F
:101D300080E89FE385CE0BD0B9CFAADF28F0AFDFD4
:101D400018F0952309F076CF7BCF1124E3CFBFDFC6
:101D5000A0F3959FD1F3950F50E0551F629FF001BE
:101D6000729FBB27F00DB11D639FAA27F00DB11D17
:101D7000AA1F649F6627B00DA11D661F829F2227A0
:101D8000B00DA11D621F739FB00DA11D621F839F27
:101D9000A00D611D221F749F3327A00D611D231FFD
:101DA000849F600D211D822F762F6A2F11249F574B
:101DB00050408AF0E1F088234AF0EE0FFF1FBB1F6E
:101DC000661F771F881F91505040A9F79E3F51050D
:101DD00070F030CF9FCF5F3FECF3983EDCF38695F9
:101DE00077956795B795F795E7959F5FC1F7FE2BB8
:101DF000880F911D9695879597F9089511F40EF423
:101E00001FCF51C06CDFD0F39923D9F3CEF39F5786
:101E1000550B87FF58D056959795B0E020F4660F84
:101E2000771F881FBB1F1F930F9300249001A001F1
:101E30008001F001A0E80E0F1F1F0A1E511D601B3C
:101E4000710B8009B50B48F4600F711F801DB51F21
:101E50000E1B1F0B0A0A510907C02E0F3F1F4A1FF6
:101E60000E0F1F1F0A1E511D660F771F881FBB1FF5
:101E7000A695F795E795F8F60617170708065B0786
:101E8000211D311D411D0F911F91B901842F9158C2
:101E9000880F9695879508959B01AC014CCFA6DEDF
:101EA000880B990B08959F3F49F0915028F486952F
:101EB00077956795B7959F5F80389F4F880F969568
:101EC000879597F9089591505040660F771F881FA6
:101ED000D2F70895629FD001739FF001829FE00DB9
:101EE000F11D649FE00DF11D929FF00D839FF00D99
:101EF000749FF00D659FF00D9927729FB00DE11D45
:101F0000F91F639FB00DE11DF91FBD01CF01112421
:101F10000895A1E21A2EAA1BBB1BFD010DC0AA1F2A
:101F2000BB1FEE1FFF1FA217B307E407F50720F042
:101F3000A21BB30BE40BF50B661F771F881F991FBD
:101F40001A9469F760957095809590959B01AC0106
:101F5000BD01CF010895EE0FFF1F0590F491E02D14
:061F60000994F894FFCF84
:101F660054656D70657261747572653A2000432E12
:101F7600004672657175656E63793A20002C6B4870
:101F86007A3B0020496D706564616E63653A200096
:101F96002C6B4F686D3B00204D61676E69747564EC
:101FA600653A20003B002050686173653A20006E58
:101FB600616E00696E66006F7666002E0000000096
:101FC600001F04EE03A703B003C503D603000000F9
:0E1FD60000D409790A6A099B097B09C4090035
:00000001FF
