:100000000C9463000C948B000C948B000C948B006C
:100010000C948B000C948B000C948B000C948B0034
:100020000C948B000C948B000C948B000C948B0024
:100030000C948B000C948B000C948B000C948B0014
:100040000C9402060C948B000C9472070C94C0075D
:100050000C948B000C948B000C948B000C948B00F4
:100060000C9453040C948B00000000002400270023
:100070002A0000000000250028002B0000000000DE
:1000800023002600290004040404040404040202DA
:100090000202020203030303030301020408102007
:1000A0004080010204081020010204081020000012
:1000B0000007000201000003040600000000000029
:1000C0000000EF022C0911241FBECFEFD8E0DEBFE5
:1000D000CDBF11E0A0E0B1E0EEE0FDE102C005908F
:1000E0000D92A236B107D9F712E0A2E6B1E001C045
:1000F0001D92A63DB107E1F710E0C6ECD0E004C0C8
:100100002297FE010E94810EC23CD107C9F70E94CE
:1001100082090C94850E0C940000CF93DF93EA01C2
:100120002FE33BEF4FE75AE40E94230C20E030E03E
:1001300040E05DE40E94720D0E948B0CC230D1053C
:1001400039F0C330D10531F0219729F080E003C0A8
:10015000872F01C0862FDF91CF910895EF92FF92F4
:100160000F931F93182F062F89EAE82E81E0F82EAF
:10017000C7016DE070E00E94B502C701612F0E94C7
:100180003703C701602F0E943703C7010E947A031B
:1001900061E070E080E090E00E944A061F910F91BC
:1001A000FF90EF90089580E890E061E070E00E9499
:1001B000AE008AE890E067E070E00E94AE008BE855
:1001C00090E06FEF70E00E94AE0060E070E68AEEB3
:1001D00096E441E050E00E948D00682F82E890E0B4
:1001E00070E00E94AE0060E070E68AEE96E442E0C5
:1001F00050E00E948D00682F83E890E070E00E943C
:10020000AE0060E070E68AEE96E443E050E00E94C3
:100210008D00682F84E890E070E00E94AE0060E0FE
:1002200070E08AE794E441E050E00E948D00682F7E
:1002300085E890E070E00E94AE0060E070E08AE740
:1002400094E442E050E00E948D00682F86E890E040
:1002500070E00E94AE0060E070E08AE794E443E062
:1002600050E00E948D00682F87E890E070E00E94C7
:10027000AE0088E890E060E070E00E94AE0089E89F
:1002800090E060E070E00E94AE00089589EA91E09D
:100290000E948F0384EB92E040E855E260E070E05A
:1002A0000E94FB0782E060E00E94DE060E94D3000D
:1002B00008951F93CF93DF93182F89EA91E06DE0A3
:1002C00070E00E94B50289EA91E060EB0E9437037A
:1002D00089EA91E0612F0E94370389EA91E00E9448
:1002E0007A0361E070E080E090E00E944A0689EACB
:1002F00091E06DE070E041E050E00E948B0389EAFC
:1003000091E00E94BF02181619061CF0CFEFDFEF34
:1003100005C089EA91E00E94C802EC0161E070E04A
:1003200080E090E00E944A06CE01DF91CF911F91BC
:100330000895AF92BF92CF92DF92EF92FF920F9308
:100340001F9380E890E060EB70E00E94AE0080E8D0
:1003500090E060E170E00E94AE0080E890E060E232
:1003600070E00E94AE008FE890E00E945901877013
:10037000907004970CF082C064E670E080E090E03A
:100380000E944A0684E990E00E945901182F85E9ED
:1003900090E00E945901312F20E0E82EFF24E22A4C
:1003A000F32A86E990E00E945901D82E87E990E06F
:1003B0000E9459013D2D20E0A82EBB24A22AB32A79
:1003C00084EB92E060E071E00E94BD0A84EB92E071
:1003D000B7014AE050E00E94AA0A84EB92E068E08C
:1003E00071E00E94BD0A84EB92E06BE071E00E9434
:1003F000BD0A84EB92E0B5014AE050E00E94AA0AEF
:1004000084EB92E063E171E00E94BD0A0027F7FCF3
:100410000095102FC801B7010E94BE0C9B01AC01D2
:100420000E94720D7B018C01CC24B7FCC094DC2CA3
:10043000C601B5010E94BE0C9B01AC010E94720D69
:100440009B01AC01C801B7010E94BB0B0E94D90DF2
:100450007B018C0184EB92E065E171E00E94BD0AB2
:1004600084EB92E0B801A70122E030E00E94A40BE7
:1004700084EB92E063E171E00E94BD0A80E890E0C5
:1004800060EA70E00E94AE001F910F91FF90EF9024
:10049000DF90CF90BF90AF9008950F931F9380E8A7
:1004A00090E060E970E00E94AE006AE070E080E0F9
:1004B00090E00E944A068FE890E00E94590180FD7A
:1004C00002C080E031C082E990E00E945901182FFB
:1004D00000E083E990E00E945901082B192B1F735B
:1004E00084EB92E062E271E00E94BD0A95E015950E
:1004F00007959A95E1F784EB92E0B8014AE050E065
:100500000E94AA0A84EB92E060EB0E94EC0884EB64
:1005100092E060E371E00E94A70B80E890E060EA5F
:1005200070E00E94AE0081E01F910F91089584EB6E
:1005300092E00E94820818161906B4F484EB92E047
:100540000E94B30880936201823419F0833461F40D
:1005500003C00E944D0208950E94990168E873E16A
:1005600080E090E00E944A06089581E08093A8010F
:10057000609385011092A6011092A7010895209121
:10058000840130E080918301281B3109C90108955D
:100590004091830180918401481718F02FEF3FEFBD
:1005A0000AC0E42FF0E0ED59FE4F8081282F30E0A3
:1005B0004F5F40938301C9010895E09183018091C9
:1005C0008401E81718F0EFEFFFEF06C0F0E0ED59F7
:1005D000FE4F8081E82FF0E0CF010895089510923A
:1005E000AC011092AB0188EE93E0A0E0B0E0809304
:1005F000AD019093AE01A093AF01B093B00185E43B
:1006000091E09093AA018093A9010895CF92DF927F
:10061000EF92FF920F931F93CF93DF937C016B01B7
:100620008A018091A8018823A1F0C0E0D0E00DC02C
:10063000D701ED91FC91D601AC0FBD1F0190F08167
:10064000E02DC7016C9109952196C017D10780F361
:1006500004C0CB01642F0E943804C801DF91CF9100
:100660001F910F91FF90EF90DF90CF900895DF934F
:10067000CF930F92CDB7DEB7FC0169838091A801BB
:100680008823C9F08091A701803238F081E090E0A2
:100690009383828320E030E015C08091A601E82F8B
:1006A000F0E0EA57FE4F998190838F5F8093A60117
:1006B0008093A70105C0CE01019661E00E94380435
:1006C00021E030E0C9010F90CF91DF9108950F93A1
:1006D000062F8091850166E871E04091A70121E035
:1006E0000E94E3031092A6011092A7011092A801A4
:1006F0000F91089561E00E9467030895413208F068
:1007000040E2862F63E671E00E949A031092830113
:1007100080938401089521E00E947E030895109241
:100720008301109284011092A6011092A7010E94E9
:10073000E4050895382F413210F040E042C0809126
:10074000B5018823E1F791E09093B5012093B701BB
:100750008FEF809322021092DD0141504093DE0121
:100760004F5F9093B6018091B601330F832B809336
:10077000B6018091B801813041F41092B8018091A6
:10078000B6018093BB0085EC01C085EE8093BC0070
:100790008091B5018130E1F38091DD01841710F47F
:1007A0004091DD0120E030E00AC0FB01E20FF31FC1
:1007B000D901A354BE4F8C9180832F5F3F4F2417E4
:1007C000A0F3842F08950F931F93582F122F4132B7
:1007D00010F081E04AC08091B5018823E1F782E002
:1007E0008093B5010093B7018FEF8093220210929E
:1007F000DD014093DE01ADEBB1E0FB0102C0819170
:100800008D938E2F861B8417D0F31092B6018091A2
:10081000B601550F852B8093B6018091B8018130C8
:1008200041F41092B8018091B6018093BB0085EC31
:1008300001C085EE8093BC00112321F08091B501A9
:100840008230E1F3809122028F3F11F480E00DC0ED
:1008500080912202803211F482E007C0809122024E
:10086000803311F084E001C083E01F910F9108955F
:10087000482F613210F081E008958091B5018430F5
:1008800011F082E0089560930002AFEDB1E0842F93
:100890009C01F90102C081918D938E2F841B8617D4
:1008A000D0F380E008951F920F920FB60F9211249B
:1008B0002F933F934F935F936F937F938F939F9368
:1008C000AF93BF93EF93FF938091B90090E0887F3F
:1008D00090708036910509F4F2C081369105CCF50F
:1008E0008832910509F47BC089329105B4F48031D6
:1008F000910509F46FC0813191053CF4009709F42A
:1009000047C1089709F04FC165C08831910509F4C6
:1009100066C0809709F047C182C08034910509F410
:10092000A4C08134910544F48033910509F482C058
:10093000C89709F038C189C08035910509F489C08C
:100940008835910509F496C08834910509F02BC1CA
:10095000AEC08839910509F413C189399105ECF4C9
:100960008837910509F4ABC0893791054CF4883676
:10097000910509F4A4C08037910509F014C19FC006
:100980008838910509F4FCC08039910509F49DC0AF
:100990008038910509F007C198C0803B910509F4A2
:1009A000C6C0813B91054CF4803A910509F49FC083
:1009B000883A910509F0F7C0BAC0803C910509F466
:1009C000E3C0883C910509F4DFC0883B910509F03C
:1009D000EAC0C2C08091B6018093BB00CFC09091A5
:1009E000DD018091DE01981768F49091DD01E92F17
:1009F000F0E0E354FE4F80818093BB009F5F9093B3
:100A0000DD01BCC08091B701882309F44BC085ED9E
:100A10008093BC008091BC0084FDFCCFC2C080E20A
:100A20008093220285ED8093BC008091BC0084FD00
:100A3000FCCFB7C080E38093220285ED8093BC0099
:100A40008091BC0084FDFCCFACC088E3809322027F
:100A50009BC08091DD019091BB00E82FF0E0E35452
:100A6000FE4F90838F5F8093DD019091DD01809137
:100A7000DE0182C08091DD019091BB00E82FF0E0A3
:100A8000E354FE4F90838F5F8093DD018091B70127
:100A9000882341F085ED8093BC008091BC0084FDEB
:100AA000FCCF7FC081E08093B80184EA6EC085ED01
:100AB0008093BC008091BC0084FDFCCF72C083E0B9
:100AC0008093B5011092210259C080912102803299
:100AD00008F056C0809121029091BB00E82FF0E011
:100AE000EF5FFD4F90838F5F8093210247C080911D
:100AF0002102803230F4E0912102F0E0EF5FFD4FFF
:100B0000108285ED8093BC008091BC0084FDFCCFF9
:100B10001092B50160912102E091BB01F091BC01FE
:100B200081E092E070E00995109221022DC084E0EE
:100B30008093B5011092FF0110920002E091B9017B
:100B4000F091BA01099580910002882329F481E08F
:100B5000809300021092DF019091FF01E92FF0E0F5
:100B6000E152FE4F80818093BB009F5F9093FF0115
:100B70009091FF0180910002981710F485EC01C05C
:100B800085E88093BC000FC085EC8093BC0009C051
:100B90001092220285ED8093BC008091BC0084FD00
:100BA000FCCF1092B501FF91EF91BF91AF919F9152
:100BB0008F917F916F915F914F913F912F910F9006
:100BC0000FBE0F901F9018951092B50181E0809391
:100BD000B7011092B80182E161E00E941D0783E134
:100BE00061E00E941D07E9EBF0E080818E7F808349
:100BF00080818D7F808388E48093B80085E4809332
:100C0000BC0008951F920F920FB60F9211242F93DC
:100C10003F938F939F93AF93BF93809127029091BF
:100C20002802A0912902B0912A0230912B0201964C
:100C3000A11DB11D232F2D5F2D3720F02D570196BB
:100C4000A11DB11D20932B028093270290932802AF
:100C5000A0932902B0932A0280912302909124024A
:100C6000A0912502B09126020196A11DB11D80938D
:100C7000230290932402A0932502B0932602BF91F1
:100C8000AF919F918F913F912F910F900FBE0F9039
:100C90001F9018959B01AC017FB7F89480912302B7
:100CA00090912402A0912502B091260266B5A89BDE
:100CB00005C06F3F19F00196A11DB11D7FBFBA2F6E
:100CC000A92F982F8827860F911DA11DB11D62E0C5
:100CD000880F991FAA1FBB1F6A95D1F7BC012DC0B1
:100CE000FFB7F8948091230290912402A0912502ED
:100CF000B0912602E6B5A89B05C0EF3F19F001961A
:100D0000A11DB11DFFBFBA2FA92F982F88278E0FC5
:100D1000911DA11DB11DE2E0880F991FAA1FBB1FE5
:100D2000EA95D1F7861B970B885E9340C8F2215055
:100D300030404040504068517C4F211531054105FD
:100D4000510571F60895789484B5826084BD84B5A8
:100D5000816084BD85B5826085BD85B5816085BDB6
:100D6000EEE6F0E0808181608083E1E8F0E01082CF
:100D7000808182608083808181608083E0E8F0E010
:100D8000808181608083E1EBF0E0808184608083FA
:100D9000E0EBF0E0808181608083EAE7F0E0808131
:100DA0008460808380818260808380818160808391
:100DB0008081806880831092C1000895CF93DF9373
:100DC000482F50E0CA0186569F4FFC0134914A5784
:100DD0005F4FFA018491882369F190E0880F991F91
:100DE000FC01E859FF4FA591B491FC01EE58FF4F6B
:100DF000C591D491662351F42FB7F8948C91932F19
:100E0000909589238C93888189230BC0623061F48B
:100E10002FB7F8948C91932F909589238C93888188
:100E2000832B88832FBF06C09FB7F8948C91832BA8
:100E30008C939FBFDF91CF910895482F50E0CA0156
:100E400082559F4FFC012491CA0186569F4FFC0199
:100E500094914A575F4FFA013491332309F440C00B
:100E6000222351F1233071F0243028F42130A1F0F5
:100E7000223011F514C02630B1F02730C1F02430F3
:100E8000D9F404C0809180008F7703C080918000E6
:100E90008F7D8093800010C084B58F7702C084B5A9
:100EA0008F7D84BD09C08091B0008F7703C0809191
:100EB000B0008F7D8093B000E32FF0E0EE0FFF1FB6
:100EC000EE58FF4FA591B4912FB7F894662321F403
:100ED0008C919095892302C08C91892B8C932FBF84
:100EE000089508951F920F920FB60F9211242F9319
:100EF0003F934F938F939F93EF93FF938091C00005
:100F000082FD1DC04091C60020916C0230916D029F
:100F10002F5F3F4F2F73307080916E0290916F0260
:100F20002817390771F0E0916C02F0916D02E45DD1
:100F3000FD4F408330936D0220936C0202C080917C
:100F4000C600FF91EF919F918F914F913F912F910B
:100F50000F900FBE0F901F901895E091C002F09176
:100F6000C102E05CFF4F8191919120813181821B10
:100F7000930B8F739070892B11F00E947107089565
:100F80001F920F920FB60F9211242F933F938F93BE
:100F90009F93EF93FF932091B0023091B102809123
:100FA000B2029091B3022817390731F48091C10041
:100FB0008F7D8093C10014C0E091B202F091B30222
:100FC000E059FD4F20818091B2029091B3020196C9
:100FD0008F7390709093B3028093B2022093C600F7
:100FE000FF91EF919F918F913F912F910F900FBEA5
:100FF0000F901F901895AF92BF92DF92EF92FF92E1
:101000000F931F93CF93DF93EC017A018B01DD24C3
:10101000403081EE580780E0680780E0780711F0E3
:10102000DD24D39491E0A92EB12CEC89FD89DD203B
:1010300069F0C50108A002C0880F991F0A94E2F761
:10104000808360E079E08DE390E005C0108260E885
:1010500074E88EE190E0A80197010E945D0E215096
:10106000304040405040569547953795279580E150
:101070002030380720F0DD2011F0DD24D6CFE889BC
:10108000F9893083EA89FB89208319A2EE89FF89D7
:10109000408121E030E0C9010C8C02C0880F991F0B
:1010A0000A94E2F7482B4083EE89FF894081C90109
:1010B0000D8C02C0880F991F0A94E2F7482B4083D9
:1010C000EE89FF894081C9010E8C02C0880F991FEB
:1010D0000A94E2F7482B4083EE89FF8980810F8CC8
:1010E00002C0220F331F0A94E2F7209528232083A1
:1010F000DF91CF911F910F91FF90EF90DF90BF9004
:10110000AF900895DC011C96ED91FC911D97E05C79
:10111000FF4F2191319180819181281B390B2F73D1
:101120003070C9010895DC011C96ED91FC911D976A
:10113000E05CFF4F20813181E054F040DF01AE5B85
:10114000BF4F8D919C9111972817390719F42FEFF4
:101150003FEF07C08D919C91E80FF91F8081282FE8
:1011600030E0C9010895DC011C96ED91FC911D97BA
:10117000E05CFF4F20813181E054F040DF01AE5B45
:10118000BF4F8D919C9111972817390719F42FEFB4
:101190003FEF10C08D919C911197E80FF91F2081AE
:1011A0008D919C91119701968F73907011969C93DD
:1011B0008E9330E0C9010895DC0191968C9191974E
:1011C000882339F05496ED91FC915597808186FFE4
:1011D000F9CF91961C920895CF93DF93EC01EE85A1
:1011E000FF85E05CFF4F20813181E054F0402F5FAC
:1011F0003F4F2F733070DF01AE5BBF4F8D919C91DD
:10120000119728173907D1F3E05CFF4F8081918156
:10121000E054F040E80FF91F6083EE85FF85E05C45
:10122000FF4F31832083EE89FF89208181E090E0A8
:101230000F8C02C0880F991F0A94E2F7282B208395
:1012400081E089A3EC89FD8980818064808381E0CD
:1012500090E0DF91CF9108951092B7021092B602FC
:1012600088EE93E0A0E0B0E08093B8029093B902DA
:10127000A093BA02B093BB0285E591E09093B502CA
:101280008093B4028CE292E09093C1028093C002FA
:1012900080E792E09093C3028093C20285EC90E0D5
:1012A0009093C5028093C40284EC90E09093C702AF
:1012B0008093C60280EC90E09093C9028093C802AC
:1012C00081EC90E09093CB028093CA0282EC90E094
:1012D0009093CD028093CC0286EC90E09093CF0265
:1012E0008093CE0284E08093D00283E08093D10289
:1012F00087E08093D20285E08093D30281E08093DF
:10130000D4020895CF93DF930E94A3060E94460162
:10131000CDEAD7E00E9497022097E1F30E94AD0743
:10132000F9CFCF92DF92EF92FF920F931F93CF935B
:10133000DF937C016B018A01C0E0D0E00FC0D601D1
:101340006D916D01D701ED91FC910190F081E02D3F
:10135000C7010995C80FD91F01501040011511058B
:1013600071F7CE01DF91CF911F910F91FF90EF9018
:10137000DF90CF900895EF92FF920F931F938C010F
:10138000DC01ED91FC910190F081E02D6DE009957B
:101390007C01D801ED91FC910190F081E02DC80114
:1013A0006AE009959C012E0D3F1DC9011F910F9107
:1013B000FF90EF900895CF93DF93EC0161157105D5
:1013C00019F420E030E00FC0DB010D900020E9F7B8
:1013D0001197A61BB70BE881F9810280F381E02DFC
:1013E000AD0109959C01C901DF91CF9108954F92FC
:1013F0005F927F928F929F92AF92BF92CF92DF9235
:10140000EF92FF920F931F93DF93CF93CDB7DEB789
:10141000A1970FB6F894DEBF0FBECDBF2C01742E7E
:10142000CB01223008F42AE019A231E2C32ED12CDC
:10143000CC0EDD1E822E9924AA24BB24672D752F85
:10144000A50194010E945D0E79018A01C801B701CE
:10145000A50194010E943E0E472D461B0894C10829
:10146000D1084A3014F4405D01C0495CF601408364
:10147000E114F1040105110521F07E2C5F2DC80156
:10148000DDCFC201B6010E94DB09A1960FB6F89428
:10149000DEBF0FBECDBFCF91DF911F910F91FF90A7
:1014A000EF90DF90CF90BF90AF909F908F907F9004
:1014B0005F904F900895DC012115310541F4ED91C5
:1014C000FC910190F081E02D642F099508950E9410
:1014D000F7090895CF92DF92EF92FF920F931F9337
:1014E000CF93DF93EC016A017B012115310541F4B3
:1014F000E881F9810190F081E02D642F09951FC0EA
:101500002A303105D1F477FF17C0E881F9810190C5
:10151000F081E02D6DE209958C0144275527BA0131
:101520004C195D096E097F09CE012AE00E94F70976
:101530009801280F391F04C02AE00E94F7099C0176
:10154000C901DF91CF911F910F91FF90EF90DF9034
:10155000CF900895EF92FF920F931F937B019A0112
:101560000027F7FC0095102FB801A7010E946A0A16
:101570001F910F91FF90EF9008950E94DB0908954D
:101580007F928F929F92AF92BF92CF92DF92EF9213
:10159000FF920F931F93CF93DF934C017A018B013E
:1015A000722ECB01BA01A80197010E94230E882355
:1015B00021F0C40163E371E021C0C0E0D0E0570135
:1015C0006801E894D7F8C601B5012FEF3FEF4FE768
:1015D0005FE70E94230E882351F4C601B5012FEF67
:1015E0003FEF4FE75FE70E941F0C181614F0C1E0B1
:1015F000D0E0219739F0C40167E371E00E94DB0974
:10160000EC0193C0C801B7012FEF3FEF4FE75FE454
:101610000E946E0D181654F0C801B7012FEF3FEF6E
:101620004FE75FEC0E941F0C882324F4C4016BE396
:1016300071E0E4CFC801B70120E030E040E050E0C5
:101640000E941F0C87FD03C0C0E0D0E00EC0D40193
:10165000ED91FC910190F081E02DC4016DE20995BE
:10166000EC0117FB109517F9109520E030E040E0F1
:101670005FE3DD240BC0CA01B90120E030E040E2A5
:1016800051E40E94230C9B01AC01D394D71498F32E
:10169000C801B7010E94BB0B5B016C010E94900C5A
:1016A0007B018C01C401B801A7012AE030E00E944F
:1016B0005B0AC80FD91F772039F0C4016FE371E0CE
:1016C0000E94DB09C80FD91FC801B7010E94BC0CDA
:1016D0009B01AC01C601B5010E94BA0B24C020E0F9
:1016E00030E040E251E40E94720D7B018C010E94C7
:1016F0008B0C5B016C01CC24B7FCC094DC2CC401C6
:10170000B601A5012AE030E00E946A0AC80FD91F7D
:10171000C601B5010E94BE0C9B01AC01C801B70116
:101720000E94BA0B7A947720D1F6CE01DF91CF9147
:101730001F910F91FF90EF90DF90CF90BF90AF90EF
:101740009F908F907F9008950E94C00A0895EF9215
:10175000FF920F931F937C010E94DB098C01C7014C
:101760000E94BB09080F191FC8011F910F91FF901C
:10177000EF9008955058BB27AA270ED075C166D1A7
:1017800030F06BD120F031F49F3F11F41EF45BC1B7
:101790000EF4E095E7FB51C1E92F77D180F3BA173A
:1017A000620773078407950718F071F49EF58FC1DF
:1017B0000EF4E0950B2EBA2FA02D0B01B90190016C
:1017C0000C01CA01A0011124FF27591B99F0593FB0
:1017D00050F4503E68F11A16F040A22F232F342FF8
:1017E0004427585FF3CF469537952795A795F04046
:1017F0005395C9F77EF41F16BA0B620B730B840B5B
:10180000BAF09150A1F0FF0FBB1F661F771F881F12
:10181000C2F70EC0BA0F621F731F841F48F487956A
:1018200077956795B795F7959E3F08F0B3CF939559
:10183000880F08F09927EE0F979587950895D9D0CE
:1018400008F481E008950CD00FC107D140F0FED01C
:1018500030F021F45F3F19F0F0C0511139C1F3C0ED
:1018600014D198F39923C9F35523B1F3951B550B64
:10187000BB27AA2762177307840738F09F5F5F4F63
:10188000220F331F441FAA1FA9F333D00E2E3AF0A4
:10189000E0E830D091505040E695001CCAF729D0BE
:1018A000FE2F27D0660F771F881FBB1F261737070D
:1018B0004807AB07B0E809F0BB0B802DBF01FF273D
:1018C00093585F4F2AF09E3F510568F0B6C000C1A3
:1018D0005F3FECF3983EDCF3869577956795B79577
:1018E000F7959F5FC9F7880F911D9695879597F992
:1018F0000895E1E0660F771F881FBB1F621773070B
:101900008407BA0720F0621B730B840BBA0BEE1F1F
:1019100088F7E095089504D06894B111D9C008956E
:10192000BCD088F09F5790F0B92F9927B751A0F0FD
:10193000D1F0660F771F881F991F1AF0BA95C9F763
:1019400012C0B13081F0C3D0B1E00895C0C0672F9C
:10195000782F8827B85F39F0B93FCCF38695779513
:101960006795B395D9F73EF49095809570956195FC
:101970007F4F8F4F9F4F0895E89409C097FB3EF427
:1019800090958095709561957F4F8F4F9F4F9923CC
:10199000A9F0F92F96E9BB279395F695879577954A
:1019A0006795B795F111F8CFFAF4BB0F11F460FF0A
:1019B0001BC06F5F7F4F8F4F9F4F16C0882311F062
:1019C00096E911C0772321F09EE8872F762F05C076
:1019D000662371F096E8862F70E060E02AF09A9511
:1019E000660F771F881FDAF7880F9695879597F906
:1019F0000895990F0008550FAA0BE0E8FEEF1616A0
:101A00001706E807F907C0F012161306E407F507F2
:101A100098F0621B730B840B950B39F40A2661F066
:101A2000232B242B252B21F408950A2609F4A14009
:101A3000A6958FEF811D811D089597F99F6780E816
:101A400070E060E008959FEF80EC089500240A9410
:101A50001616170618060906089500240A94121689
:101A60001306140605060895092E0394000C11F4BC
:101A7000882352F0BB0F40F4BF2B11F460FF04C069
:101A80006F5F7F4F8F4F9F4F089557FD9058440FC2
:101A9000551F59F05F3F71F04795880F97FB991FCD
:101AA00061F09F3F79F0879508951216130614068A
:101AB000551FF2CF4695F1DF08C016161706180617
:101AC000991FF1CF86957105610508940895E894F2
:101AD000BB2766277727CB0197F908958ADF08F49B
:101AE0008FEF08950BD0C0CFB1DF28F0B6DF18F02C
:101AF000952309F0A2CFA7CF1124EACFC6DFA0F328
:101B0000959FD1F3950F50E0551F629FF001729F92
:101B1000BB27F00DB11D639FAA27F00DB11DAA1FB1
:101B2000649F6627B00DA11D661F829F2227B00DFE
:101B3000A11D621F739FB00DA11D621F839FA00D89
:101B4000611D221F749F3327A00D611D231F849FD9
:101B5000600D211D822F762F6A2F11249F57504030
:101B60008AF0E1F088234AF0EE0FFF1FBB1F661FCB
:101B7000771F881F91505040A9F79E3F510570F084
:101B80005CCFA6CF5F3FECF3983EDCF3869577956C
:101B90006795B795F795E7959F5FC1F7FE2B880F7F
:101BA000911D9695879597F9089511F40EF44BCFF2
:101BB0004EC073DFD0F39923D9F3CEF39F57550B63
:101BC00087FF55D056959795B0E020F4660F771FA4
:101BD000881FBB1F1F930F9300249001A001800159
:101BE000F001A0E80E0F1F1F0A1E511D601B710B94
:101BF0008009B50B48F4600F711F801DB51F0E1BC7
:101C00001F0B0A0A510907C02E0F3F1F4A1F0E0F54
:101C10001F1F0A1E511D660F771F881FBB1FA69529
:101C2000F795E795F8F60617170708065B07211DD5
:101C3000311D411D0F911F91B901842F9158880FBB
:101C4000969587950895D5DE880B990B08959F3F4B
:101C500049F0915028F4869577956795B7959F5FE1
:101C600080389F4F880F9695879597F908959150E2
:101C70005040660F771F881FD2F70895629FD001EA
:101C8000739FF001829FE00DF11D649FE00DF11D37
:101C9000929FF00D839FF00D749FF00D659FF00DE6
:101CA0009927729FB00DE11DF91F639FB00DE11DD3
:101CB000F91FBD01CF0111240895A1E21A2EAA1B1C
:101CC000BB1BFD010DC0AA1FBB1FEE1FFF1FA217EC
:101CD000B307E407F50720F0A21BB30BE40BF50BE9
:101CE000661F771F881F991F1A9469F76095709572
:101CF000809590959B01AC01BD01CF010895EE0F39
:0E1D0000FF1F0590F491E02D0994F894FFCF99
:101D0E00205265616C3A20003B200020496D6167CE
:101D1E003A20003B00204D61676E69747564653A28
:101D2E00200054656D70657261747572653A20009D
:101D3E00432E006E616E00696E66006F7666002E31
:101D4E00000000000037030603BF02C802DD02EEEA
:101D5E000200000000EC0891098208B3089308DC29
:021D6E0008006B
:00000001FF
