:100000000C9463000C948B000C948B000C948B006C
:100010000C948B000C948B000C948B000C948B0034
:100020000C948B000C948B000C948B000C948B0024
:100030000C948B000C948B000C948B000C948B0014
:100040000C94F6040C948B000C9466060C94B40685
:100050000C948B000C948B000C948B000C948B00F4
:100060000C9447030C948B00000000002400270030
:100070002A0000000000250028002B0000000000DE
:1000800023002600290004040404040404040202DA
:100090000202020203030303030301020408102007
:1000A0004080010204081020010204081020000012
:1000B0000007000201000003040600000000000029
:1000C0000000E301200811241FBECFEFD8E0DEBFFF
:1000D000CDBF11E0A0E0B1E0E2E0F4E102C00590A4
:1000E0000D92AE33B107D9F712E0AEE3B1E001C033
:1000F0001D92A13BB107E1F710E0C6ECD0E004C0CF
:100100002297FE010E94FB09C23CD107C9F70E9459
:1001100076080C94FF090C940000EF92FF920F9365
:100120001F93182F062F84E8E82E81E0F82EC701D0
:100130006DE070E00E94A901C701612F0E942B02AF
:10014000C701602F0E942B02C7010E946E0261E06E
:1001500070E080E090E00E943E051F910F91FF90BB
:10016000EF90089580E890E067E070E00E948D00D5
:100170008AE890E067E070E00E948D008BE890E0F4
:100180006FEF70E00E948D0082E890E060E070E028
:100190000E948D0083E890E063E870E00E948D008B
:1001A00084E890E062E170E00E948D0085E890E0D4
:1001B00060E070E00E948D0086E890E063E870E007
:1001C0000E948D0087E890E062E170E00E948D005F
:1001D00088E890E060E070E00E948D0089E890E09F
:1001E00064E670E00E948D0080E890E060EB70E0D3
:1001F0000E948D0080E890E060E170E00E948D0038
:10020000089584E891E00E9483028FE892E040E83C
:1002100055E260E070E00E94EF0682E060E00E943C
:10022000D2050E94B20008951F93CF93DF93182F39
:1002300084E891E06DE070E00E94A90184E891E01B
:1002400060EB0E942B0284E891E0612F0E942B0258
:1002500084E891E00E946E0261E070E080E090E04E
:100260000E943E0584E891E06DE070E041E050E0DE
:100270000E947F0284E891E00E94B30118161906DB
:100280001CF0CFEFDFEF05C084E891E00E94BC01D5
:10029000EC0161E070E080E090E00E943E05CE015C
:1002A000DF91CF911F9108950F931F9380E890E005
:1002B00060E970E00E948D006AE070E080E090E00C
:1002C0000E943E058FE890E00E94140187709070B4
:1002D000019711F080E031C082E990E00E941401A2
:1002E000182F00E083E990E00E941401082B192BDD
:1002F0001F738FE892E06DE071E00E94A20995E023
:10030000159507959A95E1F78FE892E0B8014AE0D4
:1003100050E00E948F098FE892E060EB0E94E007B6
:100320008FE892E06BE171E00E94A50980E890E01F
:1003300060EA70E00E948D0081E01F910F910895A6
:1003400060ED77E080E090E00E943E050E9454015D
:10035000089581E080938301609360011092810190
:1003600010928201089520915F0130E080915E013A
:10037000281B3109C901089540915E0180915F01F8
:10038000481718F02FEF3FEF0AC0E42FF0E0E25CCF
:10039000FE4F8081282F30E04F5F40935E01C901FE
:1003A0000895E0915E0180915F01E81718F0EFEF8A
:1003B000FFEF06C0F0E0E25CFE4F8081E82FF0E046
:1003C000CF0108950895109287011092860188EE5A
:1003D00093E0A0E0B0E08093880190938901A0931E
:1003E0008A01B0938B0182E291E090938501809322
:1003F00084010895CF92DF92EF92FF920F931F93A3
:10040000CF93DF937C016B018A0180918301882364
:10041000A1F0C0E0D0E00DC0D701ED91FC91D60174
:10042000AC0FBD1F0190F081E02DC7016C910995C3
:100430002196C017D10780F304C0CB01642F0E941E
:100440002C03C801DF91CF911F910F91FF90EF9086
:10045000DF90CF900895DF93CF930F92CDB7DEB7A3
:10046000FC016983809183018823C9F08091820116
:10047000803238F081E090E09383828320E030E0A6
:1004800015C080918101E82FF0E0EF59FE4F99816E
:1004900090838F5F809381018093820105C0CE019C
:1004A000019661E00E942C0321E030E0C9010F9029
:1004B000CF91DF9108950F93062F8091600161E63F
:1004C00071E04091820121E00E94D70210928101E7
:1004D00010928201109283010F91089561E00E94B1
:1004E0005B020895413208F040E2862F6EE371E02E
:1004F0000E948E0210925E0180935F01089521E0B8
:100500000E947202089510925E0110925F01109293
:100510008101109282010E94D8040895382F41323F
:1005200010F040E042C0809190018823E1F791E013
:1005300090939001209392018FEF8093FD01109290
:10054000B80141504093B9014F5F90939101809160
:100550009101330F832B809391018091930181301E
:1005600041F410929301809191018093BB0085EC3E
:1005700001C085EE8093BC00809190018130E1F351
:100580008091B801841710F44091B80120E030E068
:100590000AC0FB01E20FF31FD901A856BE4F8C9190
:1005A00080832F5F3F4F2417A0F3842F08950F936C
:1005B0001F93582F122F413210F081E04AC08091D2
:1005C00090018823E1F782E08093900100939201EB
:1005D0008FEF8093FD011092B8014093B901A8E913
:1005E000B1E0FB0102C081918D938E2F861B841791
:1005F000D0F31092910180919101550F852B80933A
:10060000910180919301813041F410929301809186
:1006100091018093BB0085EC01C085EE8093BC0006
:10062000112321F0809190018230E1F38091FD014E
:100630008F3F11F480E00DC08091FD01803211F4F4
:1006400082E007C08091FD01803311F084E001C099
:1006500083E01F910F910895482F613210F081E0DF
:10066000089580919001843011F082E008956093A4
:10067000DB01AAEBB1E0842F9C01F90102C081915A
:100680008D938E2F841B8617D0F380E008951F92E0
:100690000F920FB60F9211242F933F934F935F93B6
:1006A0006F937F938F939F93AF93BF93EF93FF933A
:1006B0008091B90090E0887F90708036910509F4B0
:1006C000F2C081369105CCF58832910509F47BC0E2
:1006D00089329105B4F48031910509F46FC08131FC
:1006E00091053CF4009709F447C1089709F04FC100
:1006F00065C08831910509F466C0809709F047C14B
:1007000082C08034910509F4A4C08134910544F479
:100710008033910509F482C0C89709F038C189C0B7
:100720008035910509F489C08835910509F496C092
:100730008834910509F02BC1AEC08839910509F4C0
:1007400013C189399105ECF48837910509F4ABC0E0
:10075000893791054CF48836910509F4A4C0803797
:10076000910509F014C19FC08838910509F4FCC0B7
:100770008039910509F49DC08038910509F007C1C1
:1007800098C0803B910509F4C6C0813B91054CF4AB
:10079000803A910509F49FC0883A910509F0F7C0A5
:1007A000BAC0803C910509F4E3C0883C910509F486
:1007B000DFC0883B910509F0EAC0C2C08091910179
:1007C0008093BB00CFC09091B8018091B901981778
:1007D00068F49091B801E92FF0E0E856FE4F80816F
:1007E0008093BB009F5F9093B801BCC08091920141
:1007F000882309F44BC085ED8093BC008091BC0038
:1008000084FDFCCFC2C080E28093FD0185ED809322
:10081000BC008091BC0084FDFCCFB7C080E3809316
:10082000FD0185ED8093BC008091BC0084FDFCCF70
:10083000ACC088E38093FD019BC08091B80190918A
:10084000BB00E82FF0E0E856FE4F90838F5F809367
:10085000B8019091B8018091B90182C08091B8012E
:100860009091BB00E82FF0E0E856FE4F90838F5F39
:100870008093B80180919201882341F085ED8093A7
:10088000BC008091BC0084FDFCCF7FC081E08093E0
:10089000930184EA6EC085ED8093BC008091BC001A
:1008A00084FDFCCF72C083E0809390011092FC0124
:1008B00059C08091FC01803208F056C08091FC0143
:1008C0009091BB00E82FF0E0E452FE4F90838F5FE1
:1008D0008093FC0147C08091FC01803230F4E091AC
:1008E000FC01F0E0E452FE4F108285ED8093BC00E5
:1008F0008091BC0084FDFCCF109290016091FC01BE
:10090000E0919601F09197018CED91E070E00995EE
:100910001092FC012DC084E0809390011092DA01C6
:100920001092DB01E0919401F0919501099580917D
:10093000DB01882329F481E08093DB011092BA0166
:100940009091DA01E92FF0E0E654FE4F8081809328
:10095000BB009F5F9093DA019091DA018091DB01F7
:10096000981710F485EC01C085E88093BC000FC097
:1009700085EC8093BC0009C01092FD0185ED809349
:10098000BC008091BC0084FDFCCF10929001FF91CF
:10099000EF91BF91AF919F918F917F916F915F91F7
:1009A0004F913F912F910F900FBE0F901F90189570
:1009B0001092900181E0809392011092930182E164
:1009C00061E00E94110683E161E00E941106E9EBFB
:1009D000F0E080818E7F808380818D7F808388E4BA
:1009E0008093B80085E48093BC0008951F920F9215
:1009F0000FB60F9211242F933F938F939F93AF9332
:100A0000BF938091020290910302A0910402B091E1
:100A10000502309106020196A11DB11D232F2D5F05
:100A20002D3720F02D570196A11DB11D20930602F0
:100A30008093020290930302A0930402B0930502F4
:100A40008091FE019091FF01A0910002B0910102FE
:100A50000196A11DB11D8093FE019093FF01A0930B
:100A60000002B0930102BF91AF919F918F913F918E
:100A70002F910F900FBE0F901F9018959B01AC0106
:100A80007FB7F8948091FE019091FF01A091000240
:100A9000B091010266B5A89B05C06F3F19F00196A1
:100AA000A11DB11D7FBFBA2FA92F982F8827860FB0
:100AB000911DA11DB11D62E0880F991FAA1FBB1FC8
:100AC0006A95D1F7BC012DC0FFB7F8948091FE0163
:100AD0009091FF01A0910002B0910102E6B5A89BA0
:100AE00005C0EF3F19F00196A11DB11DFFBFBA2F40
:100AF000A92F982F88278E0F911DA11DB11DE2E00F
:100B0000880F991FAA1FBB1FEA95D1F7861B970B69
:100B1000885E9340C8F221503040404050406851B8
:100B20007C4F211531054105510571F608957894E2
:100B300084B5826084BD84B5816084BD85B58260E2
:100B400085BD85B5816085BDEEE6F0E08081816080
:100B50008083E1E8F0E01082808182608083808180
:100B600081608083E0E8F0E0808181608083E1EB58
:100B7000F0E0808184608083E0EBF0E08081816040
:100B80008083EAE7F0E080818460808380818260F6
:100B900080838081816080838081806880831092DF
:100BA000C1000895CF93DF93482F50E0CA018656C5
:100BB0009F4FFC0134914A575F4FFA01849188237B
:100BC00069F190E0880F991FFC01E859FF4FA5914A
:100BD000B491FC01EE58FF4FC591D491662351F4B6
:100BE0002FB7F8948C91932F909589238C938881BB
:100BF00089230BC0623061F42FB7F8948C91932F46
:100C0000909589238C938881832B88832FBF06C07E
:100C10009FB7F8948C91832B8C939FBFDF91CF91DA
:100C20000895482F50E0CA0182559F4FFC0124913E
:100C3000CA0186569F4FFC0194914A575F4FFA01B3
:100C40003491332309F440C0222351F1233071F051
:100C5000243028F42130A1F0223011F514C02630C0
:100C6000B1F02730C1F02430D9F404C08091800065
:100C70008F7703C0809180008F7D8093800010C0AB
:100C800084B58F7702C084B58F7D84BD09C0809103
:100C9000B0008F7703C08091B0008F7D8093B0004B
:100CA000E32FF0E0EE0FFF1FEE58FF4FA591B49138
:100CB0002FB7F894662321F48C919095892302C074
:100CC0008C91892B8C932FBF089508951F920F92BA
:100CD0000FB60F9211242F933F934F938F939F93AF
:100CE000EF93FF938091C00082FD1DC04091C6002C
:100CF00020914702309148022F5F3F4F2F73307091
:100D00008091490290914A022817390771F0E091C9
:100D10004702F0914802E95FFD4F4083309348025B
:100D20002093470202C08091C600FF91EF919F91EE
:100D30008F914F913F912F910F900FBE0F901F9069
:100D40001895E0919B02F0919C02E05CFF4F81912D
:100D5000919120813181821B930B8F739070892B2D
:100D600011F00E94650608951F920F920FB60F9220
:100D700011242F933F938F939F93EF93FF93209191
:100D80008B0230918C0280918D0290918E022817F7
:100D9000390731F48091C1008F7D8093C10014C068
:100DA000E0918D02F0918E02E55BFD4F20818091F4
:100DB0008D0290918E0201968F73907090938E02A7
:100DC00080938D022093C600FF91EF919F918F91A8
:100DD0003F912F910F900FBE0F901F901895AF92DB
:100DE000BF92DF92EF92FF920F931F93CF93DF9307
:100DF000EC017A018B01DD24403081EE580780E060
:100E0000680780E0780711F0DD24D39491E0A92EE3
:100E1000B12CEC89FD89DD2069F0C50108A002C074
:100E2000880F991F0A94E2F7808360E079E08DE3F0
:100E300090E005C0108260E874E88EE190E0A801BF
:100E400097010E94D70921503040404050405695AC
:100E500047953795279580E12030380720F0DD2031
:100E600011F0DD24D6CFE889F9893083EA89FB893E
:100E7000208319A2EE89FF89408121E030E0C90179
:100E80000C8C02C0880F991F0A94E2F7482B40830C
:100E9000EE89FF894081C9010D8C02C0880F991F1E
:100EA0000A94E2F7482B4083EE89FF894081C9010B
:100EB0000E8C02C0880F991F0A94E2F7482B4083DA
:100EC000EE89FF8980810F8C02C0220F331F0A94A4
:100ED000E2F7209528232083DF91CF911F910F9176
:100EE000FF90EF90DF90BF90AF900895DC011C96CB
:100EF000ED91FC911D97E05CFF4F21913191808134
:100F00009181281B390B2F733070C9010895DC01C2
:100F10001C96ED91FC911D97E05CFF4F2081318183
:100F2000E054F040DF01AE5BBF4F8D919C91119773
:100F30002817390719F42FEF3FEF07C08D919C91C7
:100F4000E80FF91F8081282F30E0C9010895DC01E6
:100F50001C96ED91FC911D97E05CFF4F2081318143
:100F6000E054F040DF01AE5BBF4F8D919C91119733
:100F70002817390719F42FEF3FEF10C08D919C917E
:100F80001197E80FF91F20818D919C91119701967F
:100F90008F73907011969C938E9330E0C9010895E1
:100FA000DC0191968C919197882339F05496ED91BC
:100FB000FC915597808186FFF9CF91961C920895F8
:100FC000CF93DF93EC01EE85FF85E05CFF4F20813E
:100FD0003181E054F0402F5F3F4F2F733070DF01BD
:100FE000AE5BBF4F8D919C91119728173907D1F3B4
:100FF000E05CFF4F80819181E054F040E80FF91FE1
:101000006083EE85FF85E05CFF4F31832083EE89AE
:10101000FF89208181E090E00F8C02C0880F991F2A
:101020000A94E2F7282B208381E089A3EC89FD89CB
:1010300080818064808381E090E0DF91CF9108958A
:10104000109292021092910288EE93E0A0E0B0E03C
:101050008093930290939402A0939502B09396028A
:1010600082E391E09093900280938F0287E092E078
:1010700090939C0280939B028BE492E090939E025B
:1010800080939D0285EC90E09093A00280939F0254
:1010900084EC90E09093A2028093A10280EC90E017
:1010A0009093A4028093A30281EC90E09093A60217
:1010B0008093A50282EC90E09093A8028093A7020F
:1010C00086EC90E09093AA028093A90284E080933A
:1010D000AB0283E08093AC0287E08093AD0285E0B1
:1010E0008093AE0281E08093AF020895CF93DF93A7
:1010F0000E9497050E940101C1EAD6E00E94A0016A
:101100002097E1F30E94A106F9CFCF92DF92EF92F0
:10111000FF920F931F93CF93DF937C016B018A01A2
:10112000C0E0D0E00FC0D6016D916D01D701ED9107
:10113000FC910190F081E02DC7010995C80FD91FDE
:10114000015010400115110571F7CE01DF91CF91CB
:101150001F910F91FF90EF90DF90CF900895EF9245
:10116000FF920F931F938C01DC01ED91FC91019094
:10117000F081E02D6DE009957C01D801ED91FC91A5
:101180000190F081E02DC8016AE009959C012E0DC7
:101190003F1DC9011F910F91FF90EF900895CF93CC
:1011A000DF93EC016115710519F420E030E00FC008
:1011B000DB010D900020E9F71197A61BB70BE88122
:1011C000F9810280F381E02DAD0109959C01C901EF
:1011D000DF91CF9108954F925F927F928F929F926D
:1011E000AF92BF92CF92DF92EF92FF920F931F9335
:1011F000DF93CF93CDB7DEB7A1970FB6F894DEBFDC
:101200000FBECDBF2C01742ECB01223008F42AE092
:1012100019A231E2C32ED12CCC0EDD1E822E9924D0
:10122000AA24BB24672D752FA50194010E94D7091C
:1012300079018A01C801B701A50194010E94B8098A
:10124000472D461B0894C108D1084A3014F4405D6C
:1012500001C0495CF6014083E114F1040105110568
:1012600021F07E2C5F2DC801DDCFC201B6010E94A6
:10127000CF08A1960FB6F894DEBF0FBECDBFCF91B9
:10128000DF911F910F91FF90EF90DF90CF90BF9073
:10129000AF909F908F907F905F904F900895CF92E6
:1012A000DF92EF92FF920F931F93CF93DF93EC01A6
:1012B0006A017B012115310541F4E881F981019032
:1012C000F081E02D642F09951FC02A303105D1F43B
:1012D00077FF17C0E881F9810190F081E02D6DE280
:1012E00009958C0144275527BA014C195D096E09EF
:1012F0007F09CE012AE00E94EB089801280F391FD0
:1013000004C02AE00E94EB089C01C901DF91CF9143
:101310001F910F91FF90EF90DF90CF900895EF9283
:10132000FF920F931F937B019A010027F7FC009512
:10133000102FB801A7010E944F091F910F91FF9034
:10134000EF9008950E94CF080895EF92FF920F93B7
:101350001F937C010E94CF088C01C7010E94AF0837
:10136000080F191FC8011F910F91FF90EF9008956A
:10137000629FD001739FF001829FE00DF11D649F79
:10138000E00DF11D929FF00D839FF00D749FF00D05
:10139000659FF00D9927729FB00DE11DF91F639FA6
:1013A000B00DE11DF91FBD01CF0111240895A1E287
:1013B0001A2EAA1BBB1BFD010DC0AA1FBB1FEE1FCF
:1013C000FF1FA217B307E407F50720F0A21BB30B1A
:1013D000E40BF50B661F771F881F991F1A9469F796
:1013E00060957095809590959B01AC01BD01CF01F2
:1013F0000895EE0FFF1F0590F491E02D0994F894E5
:02140000FFCF1C
:101402005265616C3A00496D673A000A0054656D95
:1014120070657261747572653A2000432E00000097
:1014220000002B02FA01B301BC01D101E20100006C
:0E1432000000E00785087607A7078707D007A8
:00000001FF
