:100000000C947A000C94A2000C94A2000C94A20010
:100010000C94A2000C94A2000C94A2000C94A200D8
:100020000C94A2000C94A2000C94A2000C94A200C8
:100030000C94A2000C94A2000C94A2000C94A200B8
:100040000C9431060C94A2000C94A1070C94EF07B9
:100050000C94A2000C94A2000C94A2000C94A20098
:100060000C9482040C94A200084AD73B3BCE016E4C
:1000700084BCBFFDC12F3D6C74319ABD56833DDAFF
:100080003D00C77F11BED9E4BB4C3E916BAAAABE0E
:10009000000000803F00000000240027002A00002C
:1000A000000000250028002B00000000002300268F
:1000B00000290004040404040404040202020202ED
:1000C000020303030303030102040810204080011C
:1000D000020408102001020408102000000007009C
:1000E0000201000003040600000000000000000000
:1000F0001E035B0911241FBECFEFD8E0DEBFCDBFCA
:1001000011E0A0E0B1E0EAE1FEE102C005900D924D
:10011000A836B107D9F712E0A8E6B1E001C01D92F8
:10012000AB3DB107E1F710E0C4EFD0E004C0229787
:10013000FE010E94070FC03FD107C9F70E94B10915
:100140000C940B0F0C940000CF93DF93EA012FE384
:100150003BEF4FE75AE40E947A0C20E030E040E0A9
:100160005DE40E94F50D0E94E20CC230D10539F029
:10017000C330D10531F0219729F080E003C0872FEB
:1001800001C0862FDF91CF910895EF92FF920F93D8
:100190001F93182F062F8EEAE82E81E0F82EC70154
:1001A0006DE070E00E94E402C701612F0E946603C7
:1001B000C701602F0E946603C7010E94A90361E086
:1001C00070E080E090E00E9479061F910F91FF900F
:1001D000EF90089580E890E061E070E00E94C50033
:1001E0008AE890E067E070E00E94C5008BE890E04C
:1001F0006FEF70E00E94C50060E070E583EC96E46C
:1002000041E050E00E94A400682F82E890E070E096
:100210000E94C50060E070E583EC96E442E050E0A7
:100220000E94A400682F83E890E070E00E94C5005F
:1002300060E070E583EC96E443E050E00E94A400A7
:10024000682F84E890E070E00E94C50060E070E0F4
:100250008AE794E441E050E00E94A400682F85E81A
:1002600090E070E00E94C50060E070E08AE794E4EE
:1002700042E050E00E94A400682F86E890E070E021
:100280000E94C50060E070E08AE794E443E050E03B
:100290000E94A400682F87E890E070E00E94C500EB
:1002A00088E890E060E070E00E94C50089E890E096
:1002B0006AE070E00E94C50080E890E060EB70E0CA
:1002C0000E94C50080E890E060E170E00E94C500F7
:1002D00008958EEA91E00E94BE0389EB92E040E827
:1002E00055E260E070E00E942A0882E060E00E942F
:1002F0000D070E94EA0008951F93CF93DF93182FF4
:100300008EEA91E06DE070E00E94E4028EEA91E0F6
:1003100060EB0E9466038EEA91E0612F0E94660303
:100320008EEA91E00E94A90361E070E080E090E035
:100330000E9479068EEA91E06DE070E041E050E0C5
:100340000E94BA038EEA91E00E94EE021816190686
:100350001CF0CFEFDFEF05C08EEA91E00E94F702BC
:10036000EC0161E070E080E090E00E947906CE014F
:10037000DF91CF911F9108952F923F924F925F92FC
:100380006F927F928F929F92AF92BF92CF92DF92A5
:10039000EF92FF920F931F93CF93DF9380E890E04B
:1003A00060E270E00E94C50022243324E2C064E6CB
:1003B00070E080E090E00E94790684E990E00E947D
:1003C0007C01582E442485E990E00E947C017C0148
:1003D00086E990E00E947C01D82FC0E087E990E098
:1003E0000E947C015C01E428F5280027F7FC0095B9
:1003F000102FC801B7010E94150D3B014C01A4014B
:1004000093010E94F50D7B018C01AC2ABD2ACC24FE
:10041000B7FCC094DC2CC601B5010E94150D5B0130
:100420006C01A60195010E94F50D9B01AC01C8016C
:10043000B7010E94EA0B0E945C0E7B018C01C60191
:10044000B501A40193010E947A0C0E944E0C5B013D
:100450006C0189EB92E060E071E00E94D90AB10181
:10046000882777FD8095982F0E94150D20E030E0B9
:100470004AE754E40E94F50D20E030E543EC56E4F1
:100480000E94EA0B20E030E04AE754E40E947A0C34
:10049000AB01BC0189EB92E022E030E00E94C00B8E
:1004A00089EB92E066E071E00E94D60B89EB92E066
:1004B0006AE071E00E94D90AC801B70128E33AEA6C
:1004C0004AE85FE20E94F50D9B01AC0160E070E03C
:1004D00080E89FE30E947A0C20E030E04AE754E491
:1004E0000E947A0CAB01BC0189EB92E022E030E083
:1004F0000E94C00B89EB92E065E171E00E94D60B8F
:1005000089EB92E06AE171E00E94D90A89EB92E0FE
:10051000B801A70122E030E00E94C30B89EB92E012
:100520006FE171E00E94D90A89EB92E0B601A50162
:1005300022E030E00E94C30B89EB92E066E271E0BA
:100540000E94D60B89EB92E066E271E00E94D60B26
:100550008FE890E00E947C0187709070049734F4DB
:1005600080E890E060E370E00E94C5000894211CE0
:10057000311C8FE890E00E947C0187709070049796
:100580000CF415CF80E890E060EA70E00E94C500AE
:10059000DF91CF911F910F91FF90EF90DF90CF905F
:1005A000BF90AF909F908F907F906F905F904F9093
:1005B0003F902F90089568E873E180E090E00E94FA
:1005C00079060E94BC01089581E08093AD0160939B
:1005D0008A011092AB011092AC010895209189011B
:1005E00030E080918801281B3109C90108954091AC
:1005F000880180918901481718F02FEF3FEF0AC05A
:10060000E42FF0E0E859FE4F8081282F30E04F5F63
:1006100040938801C9010895E09188018091890182
:10062000E81718F0EFEFFFEF06C0F0E0E859FE4FD3
:100630008081E82FF0E0CF01089508951092B10174
:100640001092B00188EE93E0A0E0B0E08093B20198
:100650009093B301A093B401B093B5018BE491E002
:100660009093AF018093AE010895CF92DF92EF9205
:10067000FF920F931F93CF93DF937C016B018A014D
:100680008091AD018823A1F0C0E0D0E00DC0D7017A
:10069000ED91FC91D601AC0FBD1F0190F081E02DD2
:1006A000C7016C9109952196C017D10780F304C04A
:1006B000CB01642F0E946704C801DF91CF911F9185
:1006C0000F91FF90EF90DF90CF900895DF93CF933D
:1006D0000F92CDB7DEB7FC0169838091AD0188230D
:1006E000C9F08091AC01803238F081E090E09383D2
:1006F000828320E030E015C08091AB01E82FF0E06C
:10070000E557FE4F998190838F5F8093AB01809373
:10071000AC0105C0CE01019661E00E94670421E0B2
:1007200030E0C9010F90CF91DF9108950F93062F0C
:1007300080918A016BE871E04091AC0121E00E9458
:1007400012041092AB011092AC011092AD010F9106
:10075000089561E00E9496030895413208F040E256
:10076000862F68E671E00E94C90310928801809389
:100770008901089521E00E94AD0308951092880137
:10078000109289011092AB011092AC010E941306E5
:100790000895382F413210F040E042C08091BA01F4
:1007A0008823E1F791E09093BA012093BC018FEF89
:1007B000809327021092E20141504093E3014F5F82
:1007C0009093BB018091BB01330F832B8093BB01BE
:1007D0008091BD01813041F41092BD018091BB0137
:1007E0008093BB0085EC01C085EE8093BC008091B6
:1007F000BA018130E1F38091E201841710F4409155
:10080000E20120E030E00AC0FB01E20FF31FD90152
:10081000AE53BE4F8C9180832F5F3F4F2417A0F3C0
:10082000842F08950F931F93582F122F413210F0E9
:1008300081E04AC08091BA018823E1F782E0809389
:10084000BA010093BC018FEF809327021092E2015E
:100850004093E301A2ECB1E0FB0102C081918D93D2
:100860008E2F861B8417D0F31092BB018091BB01A1
:10087000550F852B8093BB018091BD01813041F4E0
:100880001092BD018091BB018093BB0085EC01C03B
:1008900085EE8093BC00112321F08091BA01823053
:1008A000E1F3809127028F3F11F480E00DC0809129
:1008B0002702803211F482E007C080912702803342
:1008C00011F084E001C083E01F910F910895482F3B
:1008D000613210F081E008958091BA01843011F006
:1008E00082E0089560930502A4EEB1E0842F9C019C
:1008F000F90102C081918D938E2F841B8617D0F34E
:1009000080E008951F920F920FB60F9211242F933B
:100910003F934F935F936F937F938F939F93AF9387
:10092000BF93EF93FF938091B90090E0887F907020
:100930008036910509F4F2C081369105CCF58832F4
:10094000910509F47BC089329105B4F48031910599
:1009500009F46FC0813191053CF4009709F447C157
:10096000089709F04FC165C08831910509F466C048
:10097000809709F047C182C08034910509F4A4C072
:100980008134910544F48033910509F482C0C897FD
:1009900009F038C189C08035910509F489C08835CE
:1009A000910509F496C08834910509F02BC1AEC0B9
:1009B0008839910509F413C189399105ECF4883718
:1009C000910509F4ABC0893791054CF4883691053F
:1009D00009F4A4C08037910509F014C19FC088387C
:1009E000910509F4FCC08039910509F49DC0803857
:1009F000910509F007C198C0803B910509F4C6C074
:100A0000813B91054CF4803A910509F49FC0883AE6
:100A1000910509F0F7C0BAC0803C910509F4E3C024
:100A2000883C910509F4DFC0883B910509F0EAC0D4
:100A3000C2C08091BB018093BB00CFC09091E20106
:100A40008091E301981768F49091E201E92FF0E0BA
:100A5000EE53FE4F80818093BB009F5F9093E20135
:100A6000BCC08091BC01882309F44BC085ED809304
:100A7000BC008091BC0084FDFCCFC2C080E28093AA
:100A8000270285ED8093BC008091BC0084FDFCCFE3
:100A9000B7C080E38093270285ED8093BC008091EE
:100AA000BC0084FDFCCFACC088E3809327029BC0D0
:100AB0008091E2019091BB00E82FF0E0EE53FE4FF1
:100AC00090838F5F8093E2019091E2018091E30136
:100AD00082C08091E2019091BB00E82FF0E0EE53DC
:100AE000FE4F90838F5F8093E2018091BC01882349
:100AF00041F085ED8093BC008091BC0084FDFCCF6B
:100B00007FC081E08093BD0184EA6EC085ED809353
:100B1000BC008091BC0084FDFCCF72C083E0809358
:100B2000BA011092260259C080912602803208F044
:100B300056C0809126029091BB00E82FF0E0EA5F5A
:100B4000FD4F90838F5F8093260247C080912602DD
:100B5000803230F4E0912602F0E0EA5FFD4F10822F
:100B600085ED8093BC008091BC0084FDFCCF109289
:100B7000BA0160912602E091C001F091C10186E0C6
:100B800092E070E00995109226022DC084E08093D7
:100B9000BA011092040210920502E091BE01F09198
:100BA000BF01099580910502882329F481E0809393
:100BB00005021092E40190910402E92FF0E0EC515B
:100BC000FE4F80818093BB009F5F909304029091C1
:100BD000040280910502981710F485EC01C085E8A5
:100BE0008093BC000FC085EC8093BC0009C01092BC
:100BF000270285ED8093BC008091BC0084FDFCCF72
:100C00001092BA01FF91EF91BF91AF919F918F9197
:100C10007F916F915F914F913F912F910F900FBEF8
:100C20000F901F9018951092BA0181E08093BC013B
:100C30001092BD0182E161E00E944C0783E161E016
:100C40000E944C07E9EBF0E080818E7F80838081F9
:100C50008D7F808388E48093B80085E48093BC0016
:100C600008951F920F920FB60F9211242F933F9366
:100C70008F939F93AF93BF9380912C0290912D02FD
:100C8000A0912E02B0912F02309130020196A11D49
:100C9000B11D232F2D5F2D3720F02D570196A11D5B
:100CA000B11D2093300280932C0290932D02A093CB
:100CB0002E02B0932F028091280290912902A091D8
:100CC0002A02B0912B020196A11DB11D809328022A
:100CD00090932902A0932A02B0932B02BF91AF9167
:100CE0009F918F913F912F910F900FBE0F901F906A
:100CF00018959B01AC017FB7F894809128029091E0
:100D00002902A0912A02B0912B0266B5A89B05C0CA
:100D10006F3F19F00196A11DB11D7FBFBA2FA92FFA
:100D2000982F8827860F911DA11DB11D62E0880FA5
:100D3000991FAA1FBB1F6A95D1F7BC012DC0FFB731
:100D4000F8948091280290912902A0912A02B091F2
:100D50002B02E6B5A89B05C0EF3F19F00196A11D37
:100D6000B11DFFBFBA2FA92F982F88278E0F911D75
:100D7000A11DB11DE2E0880F991FAA1FBB1FEA95B4
:100D8000D1F7861B970B885E9340C8F22150304004
:100D90004040504068517C4F2115310541055105B7
:100DA00071F60895789484B5826084BD84B58160BD
:100DB00084BD85B5826085BD85B5816085BDEEE663
:100DC000F0E0808181608083E1E8F0E01082808142
:100DD00082608083808181608083E0E8F0E08081B0
:100DE00081608083E1EBF0E0808184608083E0EBD0
:100DF000F0E0808181608083EAE7F0E080818460B8
:100E00008083808182608083808181608083808113
:100E1000806880831092C1000895CF93DF93482F9C
:100E200050E0CA0189539F4FFC0134914D545F4FEC
:100E3000FA018491882369F190E0880F991FFC01E1
:100E4000EB56FF4FA591B491FC01E156FF4FC591C0
:100E5000D491662351F42FB7F8948C91932F9095E9
:100E600089238C93888189230BC0623061F42FB76A
:100E7000F8948C91932F909589238C938881832B60
:100E800088832FBF06C09FB7F8948C91832B8C93D7
:100E90009FBFDF91CF910895482F50E0CA0185523E
:100EA0009F4FFC012491CA0189539F4FFC019491EB
:100EB0004D545F4FFA013491332309F440C022238B
:100EC00051F1233071F0243028F42130A1F0223088
:100ED00011F514C02630B1F02730C1F02430D9F418
:100EE00004C0809180008F7703C0809180008F7D47
:100EF0008093800010C084B58F7702C084B58F7D49
:100F000084BD09C08091B0008F7703C08091B0008C
:100F10008F7D8093B000E32FF0E0EE0FFF1FE156CE
:100F2000FF4FA591B4912FB7F894662321F48C91CB
:100F30009095892302C08C91892B8C932FBF0895A3
:100F400008951F920F920FB60F9211242F933F9383
:100F50004F938F939F93EF93FF938091C00082FDF7
:100F60001DC04091C60020917102309172022F5F26
:100F70003F4F2F7330708091730290917402281745
:100F8000390771F0E0917102F0917202EF5CFD4F50
:100F90004083309372022093710202C08091C60098
:100FA000FF91EF919F918F914F913F912F910F90D2
:100FB0000FBE0F901F901895E091C502F091C602E8
:100FC000E05CFF4F8191919120813181821B930BD5
:100FD0008F739070892B11F00E94A00708951F92C3
:100FE0000F920FB60F9211242F933F938F939F93DD
:100FF000EF93FF932091B5023091B6028091B70232
:101000009091B8022817390731F48091C1008F7D83
:101010008093C10014C0E091B702F091B802EB5880
:10102000FD4F20818091B7029091B80201968F7395
:1010300090709093B8028093B7022093C600FF91FE
:10104000EF919F918F913F912F910F900FBE0F9035
:101050001F901895AF92BF92DF92EF92FF920F937D
:101060001F93CF93DF93EC017A018B01DD24403095
:1010700081EE580780E0680780E0780711F0DD24F2
:10108000D39491E0A92EB12CEC89FD89DD2069F083
:10109000C50108A002C0880F991F0A94E2F7808357
:1010A00060E079E08DE390E005C0108260E874E8CC
:1010B0008EE190E0A80197010E94E30E215030409C
:1010C00040405040569547953795279580E1203010
:1010D000380720F0DD2011F0DD24D6CFE889F9892A
:1010E0003083EA89FB89208319A2EE89FF89408138
:1010F00021E030E0C9010C8C02C0880F991F0A94CE
:10110000E2F7482B4083EE89FF894081C9010D8CAD
:1011100002C0880F991F0A94E2F7482B4083EE899A
:10112000FF894081C9010E8C02C0880F991F0A9463
:10113000E2F7482B4083EE89FF8980810F8C02C043
:10114000220F331F0A94E2F7209528232083DF9192
:10115000CF911F910F91FF90EF90DF90BF90AF90D4
:101160000895DC011C96ED91FC911D97E05CFF4F0A
:101170002191319180819181281B390B2F7330701F
:10118000C9010895DC011C96ED91FC911D97E05C6E
:10119000FF4F20813181E054F040DF01AE5BBF4F53
:1011A0008D919C9111972817390719F42FEF3FEF74
:1011B00007C08D919C91E80FF91F8081282F30E0A6
:1011C000C9010895DC011C96ED91FC911D97E05C2E
:1011D000FF4F20813181E054F040DF01AE5BBF4F13
:1011E0008D919C9111972817390719F42FEF3FEF34
:1011F00010C08D919C911197E80FF91F20818D915E
:101200009C91119701968F73907011969C938E9379
:1012100030E0C9010895DC0191968C919197882363
:1012200039F05496ED91FC915597808186FFF9CF66
:1012300091961C920895CF93DF93EC01EE85FF8584
:10124000E05CFF4F20813181E054F0402F5F3F4F41
:101250002F733070DF01AE5BBF4F8D919C91119762
:1012600028173907D1F3E05CFF4F80819181E0546A
:10127000F040E80FF91F6083EE85FF85E05CFF4FCB
:1012800031832083EE89FF89208181E090E00F8CFB
:1012900002C0880F991F0A94E2F7282B208381E06F
:1012A00089A3EC89FD8980818064808381E090E05E
:1012B000DF91CF9108951092BC021092BB0288EE8C
:1012C00093E0A0E0B0E08093BD029093BE02A093B3
:1012D000BF02B093C0028BE591E09093BA02809375
:1012E000B90281E392E09093C6028093C50285E73C
:1012F00092E09093C8028093C70285EC90E09093AF
:10130000CA028093C90284EC90E09093CC0280934F
:10131000CB0280EC90E09093CE028093CD0281ECE2
:1013200090E09093D0028093CF0282EC90E0909373
:10133000D2028093D10286EC90E09093D402809305
:10134000D30284E08093D50283E08093D60287E0C5
:101350008093D70285E08093D80281E08093D90200
:101360000895CF93DF930E94D2060E946901CCEDCD
:10137000D7E00E94DB022097E1F30E94DC07F9CF5F
:10138000CF92DF92EF92FF920F931F93CF93DF9351
:101390007C016B018A01C0E0D0E00FC0D6016D91E5
:1013A0006D01D701ED91FC910190F081E02DC70115
:1013B0000995C80FD91F015010400115110571F78B
:1013C000CE01DF91CF911F910F91FF90EF90DF90B1
:1013D000CF900895EF92FF920F931F938C01DC0141
:1013E000ED91FC910190F081E02D6DE009957C017B
:1013F000D801ED91FC910190F081E02DC8016AE0E7
:1014000009959C012E0D3F1DC9011F910F91FF9061
:10141000EF900895CF93DF93EC016115710519F4F6
:1014200020E030E00FC0DB010D900020E9F71197BC
:10143000A61BB70BE881F9810280F381E02DAD0195
:1014400009959C01C901DF91CF9108954F925F9258
:101450007F928F929F92AF92BF92CF92DF92EF9244
:10146000FF920F931F93DF93CF93CDB7DEB7A19772
:101470000FB6F894DEBF0FBECDBF2C01742ECB018A
:10148000223008F42AE019A231E2C32ED12CCC0E6E
:10149000DD1E822E9924AA24BB24672D752FA50159
:1014A00094010E94E30E79018A01C801B701A501E8
:1014B00094010E94C40E472D461B0894C108D10810
:1014C0004A3014F4405D01C0495CF6014083E114E8
:1014D000F1040105110521F07E2C5F2DC801DDCF3F
:1014E000C201B6010E940A0AA1960FB6F894DEBFA7
:1014F0000FBECDBFCF91DF911F910F91FF90EF9065
:10150000DF90CF90BF90AF909F908F907F905F9033
:101510004F900895DC012115310541F4ED91FC91C6
:101520000190F081E02D642F099508950E94260A0C
:101530000895CF92DF92EF92FF920F931F93CF9374
:10154000DF93EC016A017B012115310541F4E8814B
:10155000F9810190F081E02D642F09951FC02A3098
:101560003105D1F477FF17C0E881F9810190F0814E
:10157000E02D6DE209958C0144275527BA014C19DD
:101580005D096E097F09CE012AE00E94260A9801B2
:10159000280F391F04C02AE00E94260A9C01C901B5
:1015A000DF91CF911F910F91FF90EF90DF90CF903F
:1015B00008950E940A0A08957F928F929F92AF9297
:1015C000BF92CF92DF92EF92FF920F931F93CF9330
:1015D000DF934C017A018B01722ECB01BA01A80175
:1015E00097010E94A90E882321F0C40169E371E0EC
:1015F00021C0C0E0D0E057016801E894D7F8C601E7
:10160000B5012FEF3FEF4FE75FE70E94A90E882358
:1016100051F4C601B5012FEF3FEF4FE75FE70E949E
:10162000760C181614F0C1E0D0E0219739F0C4010F
:101630006DE371E00E940A0AEC0193C0C801B70192
:101640002FEF3FEF4FE75FE40E94EA0D181654F0CA
:10165000C801B7012FEF3FEF4FE75FEC0E94760C18
:10166000882324F4C40161E471E0E4CFC801B70128
:1016700020E030E040E050E00E94760C87FD03C09F
:10168000C0E0D0E00EC0D401ED91FC910190F0815A
:10169000E02DC4016DE20995EC0117FB109517F9D7
:1016A000109520E030E040E05FE3DD240BC0CA018C
:1016B000B90120E030E040E251E40E947A0C9B0145
:1016C000AC01D394D71498F3C801B7010E94EA0B78
:1016D0005B016C010E94E70C7B018C01C401B80125
:1016E000A7012AE030E00E948A0AC80FD91F77209C
:1016F00039F0C40165E471E00E940A0AC80FD91FDD
:10170000C801B7010E94130D9B01AC01C601B501D0
:101710000E94E90B24C020E030E040E251E40E9446
:10172000F50D7B018C010E94E20C5B016C01CC2465
:10173000B7FCC094DC2CC401B601A5012AE030E05E
:101740000E94990AC80FD91FC601B5010E94150D44
:101750009B01AC01C801B7010E94E90B7A94772084
:10176000D1F6CE01DF91CF911F910F91FF90EF90B5
:10177000DF90CF90BF90AF909F908F907F90089513
:101780000E94DC0A0895EF92FF920F931F937C0151
:101790000E94DC0A8C01C7010E94EA09080F191F88
:1017A000C8011F910F91FF90EF900895EF92FF9263
:1017B0000F931F937C010E940A0A8C01C7010E94AB
:1017C000EA09080F191FC8011F910F91FF90EF90B0
:1017D00008955058BB27AA270ED0C2C1B3D130F00C
:1017E000B8D120F031F49F3F11F41EF483C10EF400
:1017F000E095E7FB79C1E92FC4D180F3BA176207FE
:1018000073078407950718F071F49EF5DCC10EF498
:10181000E0950B2EBA2FA02D0B01B90190010C0100
:10182000CA01A0011124FF27591B99F0593F50F418
:10183000503E68F11A16F040A22F232F342F442770
:10184000585FF3CF469537952795A795F040539568
:10185000C9F77EF41F16BA0B620B730B840BBAF038
:101860009150A1F0FF0FBB1F661F771F881FC2F7A3
:101870000EC0BA0F621F731F841F48F487957795B7
:101880006795B795F7959E3F08F0B3CF9395880F6E
:1018900008F09927EE0F979587950895DF93DD2738
:1018A000B92FBF7740E85FE31616170648075B07B6
:1018B00010F4D92F93D19F938F937F936F9346D238
:1018C000E8E6F0E01AD14CD12F913F914F915F9112
:1018D00098D1DD2349F09058A2EA2AED3FE049EC87
:1018E0005FE3D0785D2787DFDF913AC1D9D008F474
:1018F00081E008950CD034C12CD140F023D130F0D8
:1019000021F45F3F19F0F0C051115EC1F3C039D12D
:1019100098F39923C9F35523B1F3951B550BBB27B6
:10192000AA2762177307840738F09F5F5F4F220F63
:10193000331F441FAA1FA9F333D00E2E3AF0E0E85C
:1019400030D091505040E695001CCAF729D0FE2FA8
:1019500027D0660F771F881FBB1F2617370748073A
:10196000AB07B0E809F0BB0B802DBF01FF279358F0
:101970005F4F2AF09E3F510568F0B6C025C15F3F1A
:10198000ECF3983EDCF3869577956795B795F795D8
:101990009F5FC9F7880F911D9695879597F90895D0
:1019A000E1E0660F771F881FBB1F6217730784076C
:1019B000BA0720F0621B730B840BBA0BEE1F88F77B
:1019C000E095089504D06894B111FEC00895E1D067
:1019D00088F09F5790F0B92F9927B751A0F0D1F018
:1019E000660F771F881F991F1AF0BA95C9F712C0A2
:1019F000B13081F0E8D0B1E00895E5C0672F782FCD
:101A00008827B85F39F0B93FCCF38695779567950D
:101A1000B395D9F73EF490958095709561957F4F79
:101A20008F4F9F4F0895E89409C097FB3EF490951F
:101A30008095709561957F4F8F4F9F4F9923A9F0A7
:101A4000F92F96E9BB279395F69587957795679536
:101A5000B795F111F8CFFAF4BB0F11F460FF1BC07A
:101A60006F5F7F4F8F4F9F4F16C0882311F096E90D
:101A700011C0772321F09EE8872F762F05C06623BB
:101A800071F096E8862F70E060E02AF09A95660F74
:101A9000771F881FDAF7880F9695879597F908952D
:101AA000990F0008550FAA0BE0E8FEEF161617066F
:101AB000E807F907C0F012161306E407F50798F0D7
:101AC000621B730B840B950B39F40A2661F0232BF0
:101AD000242B252B21F408950A2609F4A140A6956C
:101AE0008FEF811D811D089597F99F6780E870E051
:101AF00060E008959FEF80EC0895DF93CF931F93EC
:101B00000F93FF92EF92DF927B018C01689405C0E6
:101B1000DA2EEF0176D0FE01E894A591259135915A
:101B200045915591AEF3EF0166DEFE019701A801E4
:101B3000DA9479F7DF90EF90FF900F911F91CF919A
:101B4000DF91089500240A94161617061806090650
:101B5000089500240A941216130614060506089523
:101B6000092E0394000C11F4882352F0BB0F40F4AB
:101B7000BF2B11F460FF04C06F5F7F4F8F4F9F4FEB
:101B8000089557FD9058440F551F59F05F3F71F06D
:101B90004795880F97FB991F61F09F3F79F08795D4
:101BA0000895121613061406551FF2CF4695F1DF5D
:101BB00008C0161617061806991FF1CF86957105ED
:101BC000610508940895E894BB2766277727CB0121
:101BD00097F9089565DF08F48FEF08959B01AC0134
:101BE00060E070E080E89FE385CE0BD0B9CFAADF3C
:101BF00028F0AFDF18F0952309F076CF7BCF1124C2
:101C0000E3CFBFDFA0F3959FD1F3950F50E0551FB1
:101C1000629FF001729FBB27F00DB11D639FAA2741
:101C2000F00DB11DAA1F649F6627B00DA11D661F90
:101C3000829F2227B00DA11D621F739FB00DA11DB1
:101C4000621F839FA00D611D221F749F3327A00D6B
:101C5000611D231F849F600D211D822F762F6A2F07
:101C600011249F5750408AF0E1F088234AF0EE0F8C
:101C7000FF1FBB1F661F771F881F91505040A9F799
:101C80009E3F510570F030CF9FCF5F3FECF3983E01
:101C9000DCF3869577956795B795F795E7959F5F00
:101CA000C1F7FE2B880F911D9695879597F908959A
:101CB00011F40EF41FCF51C06CDFD0F39923D9F388
:101CC000CEF39F57550B87FF58D056959795B0E0A8
:101CD00020F4660F771F881FBB1F1F930F930024EC
:101CE0009001A0018001F001A0E80E0F1F1F0A1E45
:101CF000511D601B710B8009B50B48F4600F711FFB
:101D0000801DB51F0E1B1F0B0A0A510907C02E0F9D
:101D10003F1F4A1F0E0F1F1F0A1E511D660F771F00
:101D2000881FBB1FA695F795E795F8F606171707C6
:101D300008065B07211D311D411D0F911F91B9013F
:101D4000842F9158880F9695879508959B01AC0133
:101D50004CCFA6DE880B990B08959F3F49F0915018
:101D600028F4869577956795B7959F5F80389F4F44
:101D7000880F9695879597F9089591505040660F72
:101D8000771F881FD2F70895629FD001739FF001DB
:101D9000829FE00DF11D649FE00DF11D929FF00DFB
:101DA000839FF00D749FF00D659FF00D9927729F32
:101DB000B00DE11DF91F639FB00DE11DF91FBD01BD
:101DC000CF0111240895A1E21A2EAA1BBB1BFD010D
:101DD0000DC0AA1FBB1FEE1FFF1FA217B307E4070A
:101DE000F50720F0A21BB30BE40BF50B661F771F62
:101DF000881F991F1A9469F7609570958095909542
:101E00009B01AC01BD01CF010895EE0FFF1F0590AE
:0A1E1000F491E02D0994F894FFCF3F
:101E1A00467265713A006B487A00496D7065646173
:101E2A006E63653A006B4F686D004D61673A00500A
:101E3A00686173653A00200054656D70657261745B
:101E4A007572653A2000432E006E616E00696E66F7
:101E5A00006F7666002E000000000066033503EE70
:101E6A0002F7020C031D03000000001B09C009B1A0
:081E7A0008E208C2080B090090
:00000001FF
