:100000000C9463000C948B000C948B000C948B006C
:100010000C948B000C948B000C948B000C948B0034
:100020000C948B000C948B000C948B000C948B0024
:100030000C948B000C948B000C948B000C948B0014
:100040000C943C060C948B000C94AC070C94FA07AF
:100050000C948B000C948B000C948B000C948B00F4
:100060000C948D040C948B000000000024002700E9
:100070002A0000000000250028002B0000000000DE
:1000800023002600290004040404040404040202DA
:100090000202020203030303030301020408102007
:1000A0004080010204081020010204081020000012
:1000B0000007000201000003040600000000000029
:1000C00000002903660911241FBECFEFD8E0DEBF70
:1000D000CDBF11E0A0E0B1E0EAE9FDE102C005908A
:1000E0000D92A637B107D9F712E0A6E7B1E001C03B
:1000F0001D92AA3EB107E1F710E0C6ECD0E004C0C3
:100100002297FE010E94C70EC23CD107C9F70E9488
:10011000BC090C94CB0E0C940000CF93DF93EA0142
:100120002FE33BEF4FE75AE40E94690C20E030E0F8
:1001300040E05DE40E94B80D0E94D10CC230D105B0
:1001400039F0C330D10531F0219729F080E003C0A8
:10015000872F01C0862FDF91CF910895EF92FF92F4
:100160000F931F93182F062F8DEBE82E81E0F82EAA
:10017000C7016DE070E00E94EF02C701612F0E948D
:100180007103C701602F0E947103C7010E94B4036D
:1001900061E070E080E090E00E9484061F910F9182
:1001A000FF90EF90089580E890E061E070E00E9499
:1001B000AE008AE890E067E070E00E94AE008BE855
:1001C00090E06FEF70E00E94AE0060E070E68AEEB3
:1001D00096E441E050E00E948D00682F82E890E0B4
:1001E00070E00E94AE0060E070E68AEE96E442E0C5
:1001F00050E00E948D00682F83E890E070E00E943C
:10020000AE0060E070E68AEE96E443E050E00E94C3
:100210008D00682F84E890E070E00E94AE0060E0FE
:1002200070E08AE794E441E050E00E948D00682F7E
:1002300085E890E070E00E94AE0060E070E08AE740
:1002400094E442E050E00E948D00682F86E890E040
:1002500070E00E94AE0060E070E08AE794E443E062
:1002600050E00E948D00682F87E890E070E00E94C7
:10027000AE0088E890E060E070E00E94AE0089E89F
:1002800090E060E070E00E94AE0008958DEB91E098
:100290000E94C90388EC92E040E855E260E070E01B
:1002A0000E94350882E060E00E9418070E94D30097
:1002B00008951F93CF93DF93182F8DEB91E06DE09E
:1002C00070E00E94EF028DEB91E060EB0E94710301
:1002D0008DEB91E0612F0E9471038DEB91E00E9404
:1002E000B40361E070E080E090E00E9484068DEB52
:1002F00091E06DE070E041E050E00E94C5038DEBBD
:1003000091E00E94F902181619061CF0CFEFDFEFFA
:1003100005C08DEB91E00E940203EC0161E070E00A
:1003200080E090E00E948406CE01DF91CF911F9182
:100330000895EF92FF920F931F9380E890E060E999
:1003400070E00E94AE006AE070E080E090E00E9401
:1003500084068FE890E00E94590180FD02C080E091
:1003600039C082E990E00E945901F82EEE2483E919
:1003700090E00E945901E82AF92A88EC92E060E0B6
:1003800071E00E94030B8FEF9FE3E822F922002720
:10039000F7FC0095102FC801B7010E94040D20E062
:1003A00030E040E05DE30E94B80DAB01BC0188EC99
:1003B00092E022E030E00E94EA0B88EC92E06EE0EE
:1003C00071E00E94ED0B80E890E060EA70E00E942E
:1003D000AE0081E01F910F91FF90EF900895BF92C2
:1003E000CF92DF92EF92FF920F931F9380E890E0FD
:1003F00060EB70E00E94AE0080E890E060E170E0A9
:100400000E94AE0080E890E060E270E00E94AE00E2
:10041000B1C064E670E080E090E00E9484068FE85E
:1004200090E00E945901182F88EC92E061E171E0A0
:100430000E94ED0B8FE890E00E945901BC0188EC0E
:1004400092E04AE050E00E94E40A11FF93C084E980
:1004500090E00E945901F82E85E990E00E94590130
:10046000082F86E990E00E945901B82E87E990E0B4
:100470000E945901C82E7F2D60E010E0602B712B87
:10048000882777FD8095982F0E94040D9B01AC0171
:100490000E94B80D7B018C017B2D60E0DD246C296E
:1004A0007D29882777FD8095982F0E94040D9B0158
:1004B000AC010E94B80D9B01AC01C801B7010E94BC
:1004C000010C0E941F0E7B018C0188EC92E062E11E
:1004D00071E00E94030B88EC92E040E050E060EF96
:1004E00071E422E030E00E94EA0B88EC92E06EE1D9
:1004F00071E00E94030B88EC92E064E271E00E94DC
:10050000030BC801B7012FE936EA42EC52E30E941F
:10051000B80D9B01AC0160E070E080E89FE30E94B1
:10052000690C20E030E04AE754E40E94690CAB011A
:10053000BC0188EC92E022E030E00E94EA0B88ECFB
:1005400092E061E371E00E94030B88EC92E068E3C3
:1005500071E00E94030B88EC92E0B801A70122E051
:1005600030E00E94EA0B88EC92E065E471E00E94C2
:10057000ED0B09C08FE890E00E94590187709070E0
:1005800004970CF446CF80E890E060EA70E00E94A7
:10059000AE001F910F91FF90EF90DF90CF90BF9032
:1005A000089588EC92E00E94BC0818161906B4F46D
:1005B00088EC92E00E94ED0880937601823419F075
:1005C000833461F403C00E94990108950E94EF01F1
:1005D00068EE73E080E090E00E948406089581E078
:1005E0008093BC01609399011092BA011092BB01F3
:1005F00008952091980130E080919701281B3109DE
:10060000C90108954091970180919801481718F009
:100610002FEF3FEF0AC0E42FF0E0E958FE4F808152
:10062000282F30E04F5F40939701C9010895E09172
:10063000970180919801E81718F0EFEFFFEF06C0DF
:10064000F0E0E958FE4F8081E82FF0E0CF010895F7
:1006500008951092C0011092BF0188EE93E0A0E0CF
:10066000B0E08093C1019093C201A093C301B09305
:10067000C40189E591E09093BE018093BD01089586
:10068000CF92DF92EF92FF920F931F93CF93DF935E
:100690007C016B018A018091BC018823A1F0C0E03C
:1006A000D0E00DC0D701ED91FC91D601AC0FBD1F7C
:1006B0000190F081E02DC7016C9109952196C0173A
:1006C000D10780F304C0CB01642F0E947204C801DB
:1006D000DF91CF911F910F91FF90EF90DF90CF901E
:1006E0000895DF93CF930F92CDB7DEB7FC016983F6
:1006F0008091BC018823C9F08091BB01803238F021
:1007000081E090E09383828320E030E015C0809107
:10071000BA01E82FF0E0E656FE4F998190838F5F93
:100720008093BA018093BB0105C0CE01019661E0C0
:100730000E94720421E030E0C9010F90CF91DF9157
:1007400008950F93062F809199016AE971E0409115
:10075000BB0121E00E941D041092BA011092BB015E
:100760001092BC010F91089561E00E94A1030895C9
:10077000413208F040E2862F67E771E00E94D4031F
:100780001092970180939801089521E00E94B80388
:10079000089510929701109298011092BA01109248
:1007A000BB010E941E060895382F413210F040E030
:1007B00042C08091C9018823E1F791E09093C9017B
:1007C0002093CB018FEF809336021092F1014150BC
:1007D0004093F2014F5F9093CA018091CA01330F99
:1007E000832B8093CA018091CC01813041F4109217
:1007F000CC018091CA018093BB0085EC01C085EEDD
:100800008093BC008091C9018130E1F38091F101B6
:10081000841710F44091F10120E030E00AC0FB01A0
:10082000E20FF31FD901AF52BE4F8C9180832F5F2F
:100830003F4F2417A0F3842F08950F931F93582F31
:10084000122F413210F081E04AC08091C901882303
:10085000E1F782E08093C9010093CB018FEF809391
:1008600036021092F1014093F201A1EDB1E0FB01DB
:1008700002C081918D938E2F861B8417D0F3109226
:10088000CA018091CA01550F852B8093CA018091BE
:10089000CC01813041F41092CC018091CA01809347
:1008A000BB0085EC01C085EE8093BC00112321F0D4
:1008B0008091C9018230E1F3809136028F3F11F4BB
:1008C00080E00DC080913602803211F482E007C0D2
:1008D00080913602803311F084E001C083E01F91E3
:1008E0000F910895482F613210F081E008958091B2
:1008F000C901843011F082E0089560931402A3EFDF
:10090000B1E0842F9C01F90102C081918D938E2F5B
:10091000841B8617D0F380E008951F920F920FB6C4
:100920000F9211242F933F934F935F936F937F9375
:100930008F939F93AF93BF93EF93FF938091B900F1
:1009400090E0887F90708036910509F4F2C081367E
:100950009105CCF58832910509F47BC08932910567
:10096000B4F48031910509F46FC0813191053CF4F4
:10097000009709F447C1089709F04FC165C0883155
:10098000910509F466C0809709F047C182C08034A0
:10099000910509F4A4C08134910544F48033910594
:1009A00009F482C0C89709F038C189C08035910523
:1009B00009F489C08835910509F496C088349105F9
:1009C00009F02BC1AEC08839910509F413C18939EA
:1009D0009105ECF48837910509F4ABC0893791058E
:1009E0004CF48836910509F4A4C08037910509F0CC
:1009F00014C19FC08838910509F4FCC08039910565
:100A000009F49DC08038910509F007C198C0803B6A
:100A1000910509F4C6C0813B91054CF4803A9105DB
:100A200009F49FC0883A910509F0F7C0BAC0803C2C
:100A3000910509F4E3C0883C910509F4DFC0883BC7
:100A4000910509F0EAC0C2C08091CA018093BB0041
:100A5000CFC09091F1018091F201981768F49091C4
:100A6000F101E92FF0E0EF52FE4F80818093BB004F
:100A70009F5F9093F101BCC08091CB01882309F462
:100A80004BC085ED8093BC008091BC0084FDFCCF01
:100A9000C2C080E28093360285ED8093BC008091D5
:100AA000BC0084FDFCCFB7C080E38093360285EDA7
:100AB0008093BC008091BC0084FDFCCFACC088E377
:100AC000809336029BC08091F1019091BB00E82F8A
:100AD000F0E0EF52FE4F90838F5F8093F101909191
:100AE000F1018091F20182C08091F1019091BB00EF
:100AF000E82FF0E0EF52FE4F90838F5F8093F1017B
:100B00008091CB01882341F085ED8093BC008091DA
:100B1000BC0084FDFCCF7FC081E08093CC0184EADF
:100B20006EC085ED8093BC008091BC0084FDFCCF3D
:100B300072C083E08093C9011092350259C0809140
:100B40003502803208F056C0809135029091BB008A
:100B5000E82FF0E0EB5EFD4F90838F5F80933502CE
:100B600047C080913502803230F4E0913502F0E0E8
:100B7000EB5EFD4F108285ED8093BC008091BC0040
:100B800084FDFCCF1092C90160913502E091CF0144
:100B9000F091D00185E192E070E009951092350264
:100BA0002DC084E08093C9011092130210921402A8
:100BB000E091CD01F091CE01099580911402882336
:100BC00029F481E0809314021092F30190911302B2
:100BD000E92FF0E0ED50FE4F80818093BB009F5FD6
:100BE000909313029091130280911402981710F4BD
:100BF00085EC01C085E88093BC000FC085EC809334
:100C0000BC0009C01092360285ED8093BC00809133
:100C1000BC0084FDFCCF1092C901FF91EF91BF9100
:100C2000AF919F918F917F916F915F914F913F9184
:100C30002F910F900FBE0F901F9018951092C90121
:100C400081E08093CB011092CC0182E161E00E94AF
:100C5000570783E161E00E945707E9EBF0E08081EC
:100C60008E7F808380818D7F808388E48093B8002D
:100C700085E48093BC0008951F920F920FB60F92E7
:100C800011242F933F938F939F93AF93BF938091A2
:100C90003B0290913C02A0913D02B0913E02309106
:100CA0003F020196A11DB11D232F2D5F2D3720F08E
:100CB0002D570196A11DB11D20933F0280933B0249
:100CC00090933C02A0933D02B0933E028091370284
:100CD00090913802A0913902B0913A020196A11D7B
:100CE000B11D8093370290933802A0933902B093DC
:100CF0003A02BF91AF919F918F913F912F910F90A9
:100D00000FBE0F901F9018959B01AC017FB7F89410
:100D10008091370290913802A0913902B0913A0245
:100D200066B5A89B05C06F3F19F00196A11DB11DC6
:100D30007FBFBA2FA92F982F8827860F911DA11D3D
:100D4000B11D62E0880F991FAA1FBB1F6A95D1F7DA
:100D5000BC012DC0FFB7F894809137029091380202
:100D6000A0913902B0913A02E6B5A89B05C0EF3FC9
:100D700019F00196A11DB11DFFBFBA2FA92F982F01
:100D800088278E0F911DA11DB11DE2E0880F991FCC
:100D9000AA1FBB1FEA95D1F7861B970B885E93406D
:100DA000C8F2215030404040504068517C4F2115DE
:100DB00031054105510571F60895789484B5826036
:100DC00084BD84B5816084BD85B5826085BD85B5EF
:100DD000816085BDEEE6F0E0808181608083E1E89E
:100DE000F0E01082808182608083808181608083D6
:100DF000E0E8F0E0808181608083E1EBF0E08081D9
:100E000084608083E0EBF0E0808181608083EAE7AA
:100E1000F0E0808184608083808182608083808133
:100E2000816080838081806880831092C1000895F2
:100E3000CF93DF93482F50E0CA0186569F4FFC01A5
:100E400034914A575F4FFA018491882369F190E009
:100E5000880F991FFC01E859FF4FA591B491FC013F
:100E6000EE58FF4FC591D491662351F42FB7F894F3
:100E70008C91932F909589238C93888189230BC023
:100E8000623061F42FB7F8948C91932F9095892359
:100E90008C938881832B88832FBF06C09FB7F894DB
:100EA0008C91832B8C939FBFDF91CF910895482F16
:100EB00050E0CA0182559F4FFC012491CA01865619
:100EC0009F4FFC0194914A575F4FFA0134913323AD
:100ED00009F440C0222351F1233071F0243028F46A
:100EE0002130A1F0223011F514C02630B1F02730A6
:100EF000C1F02430D9F404C0809180008F7703C002
:100F0000809180008F7D8093800010C084B58F77A2
:100F100002C084B58F7D84BD09C08091B0008F77F9
:100F200003C08091B0008F7D8093B000E32FF0E08C
:100F3000EE0FFF1FEE58FF4FA591B4912FB7F89415
:100F4000662321F48C919095892302C08C91892B82
:100F50008C932FBF089508951F920F920FB60F9292
:100F600011242F933F934F938F939F93EF93FF936E
:100F70008091C00082FD1DC04091C600209180027A
:100F8000309181022F5F3F4F2F733070809182022A
:100F9000909183022817390771F0E0918002F09157
:100FA0008102E05CFD4F40833093810220938002F8
:100FB00002C08091C600FF91EF919F918F914F9158
:100FC0003F912F910F900FBE0F901F901895E091B9
:100FD000D402F091D502E05CFF4F81919191208184
:100FE0003181821B930B8F739070892B11F00E94BB
:100FF000AB0708951F920F920FB60F9211242F93F3
:101000003F938F939F93EF93FF932091C40230916E
:10101000C5028091C6029091C7022817390731F4A2
:101020008091C1008F7D8093C10014C0E091C60201
:10103000F091C702EC57FD4F20818091C60290913C
:10104000C70201968F7390709093C7028093C60277
:101050002093C600FF91EF919F918F913F912F9127
:101060000F900FBE0F901F901895AF92BF92DF9216
:10107000EF92FF920F931F93CF93DF93EC017A01CE
:101080008B01DD24403081EE580780E0680780E066
:10109000780711F0DD24D39491E0A92EB12CEC89CE
:1010A000FD89DD2069F0C50108A002C0880F991FE5
:1010B0000A94E2F7808360E079E08DE390E005C078
:1010C000108260E874E88EE190E0A80197010E9428
:1010D000A30E2150304040405040569547953795DB
:1010E000279580E12030380720F0DD2011F0DD2445
:1010F000D6CFE889F9893083EA89FB89208319A250
:10110000EE89FF89408121E030E0C9010C8C02C0EA
:10111000880F991F0A94E2F7482B4083EE89FF89D4
:101120004081C9010D8C02C0880F991F0A94E2F713
:10113000482B4083EE89FF894081C9010E8C02C093
:10114000880F991F0A94E2F7482B4083EE89FF89A4
:1011500080810F8C02C0220F331F0A94E2F7209582
:1011600028232083DF91CF911F910F91FF90EF9063
:10117000DF90BF90AF900895DC011C96ED91FC913B
:101180001D97E05CFF4F2191319180819181281B57
:10119000390B2F733070C9010895DC011C96ED9155
:1011A000FC911D97E05CFF4F20813181E054F040BD
:1011B000DF01AE5BBF4F8D919C91119728173907C6
:1011C00019F42FEF3FEF07C08D919C91E80FF91FA5
:1011D0008081282F30E0C9010895DC011C96ED9133
:1011E000FC911D97E05CFF4F20813181E054F0407D
:1011F000DF01AE5BBF4F8D919C9111972817390786
:1012000019F42FEF3FEF10C08D919C911197E80FCB
:10121000F91F20818D919C91119701968F73907089
:1012200011969C938E9330E0C9010895DC0191964C
:101230008C919197882339F05496ED91FC915597B4
:10124000808186FFF9CF91961C920895CF93DF930A
:10125000EC01EE85FF85E05CFF4F20813181E05499
:10126000F0402F5F3F4F2F733070DF01AE5BBF4FF9
:101270008D919C91119728173907D1F3E05CFF4FAE
:1012800080819181E054F040E80FF91F6083EE8582
:10129000FF85E05CFF4F31832083EE89FF89208149
:1012A00081E090E00F8C02C0880F991F0A94E2F74A
:1012B000282B208381E089A3EC89FD8980818064CB
:1012C000808381E090E0DF91CF9108951092CB026E
:1012D0001092CA0288EE93E0A0E0B0E08093CC02C6
:1012E0009093CD02A093CE02B093CF0289E691E015
:1012F0009093C9028093C80280E492E09093D50253
:101300008093D40284E892E09093D7028093D6022F
:1013100085EC90E09093D9028093D80284EC90E021
:101320009093DB028093DA0280EC90E09093DD02F0
:101330008093DC0281EC90E09093DF028093DE02E8
:1013400082EC90E09093E1028093E00286EC90E0E2
:101350009093E3028093E20284E08093E40283E0CE
:101360008093E50287E08093E60285E08093E702C0
:1013700081E08093E8020895CF93DF930E94DD0619
:101380000E944601C7EED7E00E94D1022097E1F308
:101390000E94E707F9CFCF92DF92EF92FF920F936F
:1013A0001F93CF93DF937C016B018A01C0E0D0E0F3
:1013B0000FC0D6016D916D01D701ED91FC910190A7
:1013C000F081E02DC7010995C80FD91F01501040C9
:1013D0000115110571F7CE01DF91CF911F910F918A
:1013E000FF90EF90DF90CF900895EF92FF920F93D0
:1013F0001F938C01DC01ED91FC910190F081E02DB7
:101400006DE009957C01D801ED91FC910190F0818E
:10141000E02DC8016AE009959C012E0D3F1DC90110
:101420001F910F91FF90EF900895CF93DF93EC0100
:101430006115710519F420E030E00FC0DB010D905B
:101440000020E9F71197A61BB70BE881F98102800C
:10145000F381E02DAD0109959C01C901DF91CF9188
:1014600008954F925F927F928F929F92AF92BF9218
:10147000CF92DF92EF92FF920F931F93DF93CF9360
:10148000CDB7DEB7A1970FB6F894DEBF0FBECDBFC4
:101490002C01742ECB01223008F42AE019A231E28B
:1014A000C32ED12CCC0EDD1E822E9924AA24BB245F
:1014B000672D752FA50194010E94A30E79018A0161
:1014C000C801B701A50194010E94840E472D461B57
:1014D0000894C108D1084A3014F4405D01C0495C49
:1014E000F6014083E114F1040105110521F07E2C81
:1014F0005F2DC801DDCFC201B6010E94150AA19679
:101500000FB6F894DEBF0FBECDBFCF91DF911F9114
:101510000F91FF90EF90DF90CF90BF90AF909F9092
:101520008F907F905F904F900895DC0121153105D9
:1015300041F4ED91FC910190F081E02D642F09952B
:1015400008950E94310A0895CF92DF92EF92FF92A0
:101550000F931F93CF93DF93EC016A017B01211559
:10156000310541F4E881F9810190F081E02D642F8B
:1015700009951FC02A303105D1F477FF17C0E881E3
:10158000F9810190F081E02D6DE209958C014427ED
:101590005527BA014C195D096E097F09CE012AE071
:1015A0000E94310A9801280F391F04C02AE00E94C6
:1015B000310A9C01C901DF91CF911F910F91FF90DA
:1015C000EF90DF90CF900895CF92DF92EF92FF924D
:1015D0000F931F936C017B019A010027F7FC009584
:1015E000102FB801A7010E94A40A8C01C6010E9415
:1015F000F509080F191FC8011F910F91FF90EF9077
:10160000DF90CF9008950E94150A08957F928F92DF
:101610009F92AF92BF92CF92DF92EF92FF920F9381
:101620001F93CF93DF934C017A018B01722ECB0174
:10163000BA01A80197010E94690E882321F0C40114
:1016400067E471E021C0C0E0D0E057016801E89490
:10165000D7F8C601B5012FEF3FEF4FE75FE70E94D4
:10166000690E882351F4C601B5012FEF3FEF4FE714
:101670005FE70E94650C181614F0C1E0D0E02197D6
:1016800039F0C4016BE471E00E94150AEC0193C0CB
:10169000C801B7012FEF3FEF4FE75FE40E94B40DA1
:1016A000181654F0C801B7012FEF3FEF4FE75FEC7A
:1016B0000E94650C882324F4C4016FE471E0E4CF38
:1016C000C801B70120E030E040E050E00E94650C26
:1016D00087FD03C0C0E0D0E00EC0D401ED91FC91C5
:1016E0000190F081E02DC4016DE20995EC0117FB3A
:1016F000109517F9109520E030E040E05FE3DD241D
:101700000BC0CA01B90120E030E040E251E40E9480
:10171000690C9B01AC01D394D71498F3C801B701AD
:101720000E94010C5B016C010E94D60C7B018C01B4
:10173000C401B801A7012AE030E00E94950AC80F51
:10174000D91F772039F0C40163E571E00E94150AC2
:10175000C80FD91FC801B7010E94020D9B01AC013F
:10176000C601B5010E94000C24C020E030E040E238
:1017700051E40E94B80D7B018C010E94D10C5B01E9
:101780006C01CC24B7FCC094DC2CC401B601A501CB
:101790002AE030E00E94A40AC80FD91FC601B50193
:1017A0000E94040D9B01AC01C801B7010E94000C0E
:1017B0007A947720D1F6CE01DF91CF911F910F91CE
:1017C000FF90EF90DF90CF90BF90AF909F908F9061
:1017D0007F9008950E94060B0895EF92FF920F9359
:1017E0001F937C010E94150A8C01C7010E94F50914
:1017F000080F191FC8011F910F91FF90EF900895D6
:101800005058BB27AA270ED075C166D130F06BD1D6
:1018100020F031F49F3F11F41EF45BC10EF4E0950B
:10182000E7FB51C1E92F77D180F3BA17620773073D
:101830008407950718F071F49EF58FC10EF4E095BA
:101840000B2EBA2FA02D0B01B90190010C01CA017A
:10185000A0011124FF27591B99F0593F50F4503E25
:1018600068F11A16F040A22F232F342F4427585F17
:10187000F3CF469537952795A795F0405395C9F72F
:101880007EF41F16BA0B620B730B840BBAF09150E7
:10189000A1F0FF0FBB1F661F771F881FC2F70EC086
:1018A000BA0F621F731F841F48F487957795679559
:1018B000B795F7959E3F08F0B3CF9395880F08F042
:1018C0009927EE0F979587950895D9D008F481E070
:1018D00008950CD00FC107D140F0FED030F021F4B4
:1018E0005F3F19F0F0C0511139C1F3C014D198F322
:1018F0009923C9F35523B1F3951B550BBB27AA2791
:1019000062177307840738F09F5F5F4F220F331F02
:10191000441FAA1FA9F333D00E2E3AF0E0E830D0CE
:1019200091505040E695001CCAF729D0FE2F27D0D1
:10193000660F771F881FBB1F261737074807AB079F
:10194000B0E809F0BB0B802DBF01FF2793585F4F14
:101950002AF09E3F510568F0B6C000C15F3FECF32E
:10196000983EDCF3869577956795B795F7959F5FD9
:10197000C9F7880F911D9695879597F90895E1E02D
:10198000660F771F881FBB1F621773078407BA078C
:1019900020F0621B730B840BBA0BEE1F88F7E095E7
:1019A000089504D06894B111D9C00895BCD088F0CE
:1019B0009F5790F0B92F9927B751A0F0D1F0660F3B
:1019C000771F881F991F1AF0BA95C9F712C0B13056
:1019D00081F0C3D0B1E00895C0C0672F782F882769
:1019E000B85F39F0B93FCCF3869577956795B39595
:1019F000D9F73EF490958095709561957F4F8F4F04
:101A00009F4F0895E89409C097FB3EF49095809508
:101A1000709561957F4F8F4F9F4F9923A9F0F92FB4
:101A200096E9BB279395F695879577956795B79532
:101A3000F111F8CFFAF4BB0F11F460FF1BC06F5F18
:101A40007F4F8F4F9F4F16C0882311F096E911C02A
:101A5000772321F09EE8872F762F05C0662371F04B
:101A600096E8862F70E060E02AF09A95660F771F5F
:101A7000881FDAF7880F9695879597F90895990F3B
:101A80000008550FAA0BE0E8FEEF16161706E80748
:101A9000F907C0F012161306E407F50798F0621B69
:101AA000730B840B950B39F40A2661F0232B242B3E
:101AB000252B21F408950A2609F4A140A6958FEF5D
:101AC000811D811D089597F99F6780E870E060E0AF
:101AD00008959FEF80EC089500240A9416161706C7
:101AE00018060906089500240A941216130614060F
:101AF00005060895092E0394000C11F4882352F072
:101B0000BB0F40F4BF2B11F460FF04C06F5F7F4F29
:101B10008F4F9F4F089557FD9058440F551F59F010
:101B20005F3F71F04795880F97FB991F61F09F3FCA
:101B300079F087950895121613061406551FF2CFF3
:101B40004695F1DF08C0161617061806991FF1CF43
:101B500086957105610508940895E894BB2766276A
:101B60007727CB0197F908958ADF08F48FEF08955E
:101B70000BD0C0CFB1DF28F0B6DF18F0952309F005
:101B8000A2CFA7CF1124EACFC6DFA0F3959FD1F350
:101B9000950F50E0551F629FF001729FBB27F00D1B
:101BA000B11D639FAA27F00DB11DAA1F649F662770
:101BB000B00DA11D661F829F2227B00DA11D621FBF
:101BC000739FB00DA11D621F839FA00D611D221F79
:101BD000749F3327A00D611D231F849F600D211D5D
:101BE000822F762F6A2F11249F5750408AF0E1F000
:101BF00088234AF0EE0FFF1FBB1F661F771F881F49
:101C000091505040A9F79E3F510570F05CCFA6CF90
:101C10005F3FECF3983EDCF3869577956795B79533
:101C2000F795E7959F5FC1F7FE2B880F911D96955D
:101C3000879597F9089511F40EF44BCF4EC073DFDA
:101C4000D0F39923D9F3CEF39F57550B87FF55D087
:101C500056959795B0E020F4660F771F881FBB1F3D
:101C60001F930F9300249001A0018001F001A0E8D0
:101C70000E0F1F1F0A1E511D601B710B8009B50B33
:101C800048F4600F711F801DB51F0E1B1F0B0A0A41
:101C9000510907C02E0F3F1F4A1F0E0F1F1F0A1E9C
:101CA000511D660F771F881FBB1FA695F795E795F7
:101CB000F8F60617170708065B07211D311D411DA1
:101CC0000F911F91B901842F9158880F9695879590
:101CD0000895D5DE880B990B08959F3F49F09150E8
:101CE00028F4869577956795B7959F5F80389F4FC5
:101CF000880F9695879597F9089591505040660FF3
:101D0000771F881FD2F70895629FD001739FF0015B
:101D1000829FE00DF11D649FE00DF11D929FF00D7B
:101D2000839FF00D749FF00D659FF00D9927729FB2
:101D3000B00DE11DF91F639FB00DE11DF91FBD013D
:101D4000CF0111240895A1E21A2EAA1BBB1BFD018D
:101D50000DC0AA1FBB1FEE1FFF1FA217B307E4078A
:101D6000F50720F0A21BB30BE40BF50B661F771FE2
:101D7000881F991F1A9469F76095709580959095C2
:101D80009B01AC01BD01CF010895EE0FFF1F05902F
:0A1D9000F491E02D0994F894FFCFC0
:101D9A0054656D70657261747572653A2000432EE0
:101DAA0000004672657175656E63793A20002C6B86
:101DBA00487A3B0020496D706564616E63653A201C
:101DCA00002C6B4F686D3B00204D61676E6974751E
:101DDA0064653A20003B006E616E00696E66006FB2
:101DEA007666002E000000000071034003F902022B
:101DFA000317032803000000002609CB09BC08EDDD
:061E0A0008CD08160900D6
:00000001FF
