:100000000C9463000C948B000C948B000C948B006C
:100010000C948B000C948B000C948B000C948B0034
:100020000C948B000C948B000C948B000C948B0024
:100030000C948B000C948B000C948B000C948B0014
:100040000C9445050C948B000C94B5060C94030796
:100050000C948B000C948B000C948B000C948B00F4
:100060000C9496030C948B000000000024002700E1
:100070002A0000000000250028002B0000000000DE
:1000800023002600290004040404040404040202DA
:100090000202020203030303030301020408102007
:1000A0004080010204081020010204081020000012
:1000B0000007000201000003040600000000000029
:1000C000000032026F0811241FBECFEFD8E0DEBF60
:1000D000CDBF11E0A0E0B1E0EAE3F7E102C0059096
:1000E0000D92AC35B107D9F712E0ACE5B1E001C033
:1000F0001D92AF3CB107E1F710E0C6ECD0E004C0C0
:100100002297FE010E94970BC23CD107C9F70E94BB
:10011000C5080C949B0B0C940000CF93DF93EA016D
:100120002FE33BEF4FE75AE40E94070A20E030E05C
:1001300040E05DE40E94F10A0E946F0AC230D105DE
:1001400039F0C330D10531F0219729F080E003C0A8
:10015000872F01C0862FDF91CF910895EF92FF92F4
:100160000F931F93182F062F82EAE82E81E0F82EB6
:10017000C7016DE070E00E94F801C701612F0E9485
:100180007A02C701602F0E947A02C7010E94BD0255
:1001900061E070E080E090E00E948D051F910F917A
:1001A000FF90EF90089580E890E061E070E00E9499
:1001B000AE008AE890E067E070E00E94AE008BE855
:1001C00090E06FEF70E00E94AE0060E070E583ECBD
:1001D00096E441E050E00E948D00682F82E890E0B4
:1001E00070E00E94AE0060E070E583EC96E442E0CF
:1001F00050E00E948D00682F83E890E070E00E943C
:10020000AE0060E070E583EC96E443E050E00E94CD
:100210008D00682F84E890E070E00E94AE0060E0FE
:1002200070E08AE794E441E050E00E948D00682F7E
:1002300085E890E070E00E94AE0060E070E08AE740
:1002400094E442E050E00E948D00682F86E890E040
:1002500070E00E94AE0060E070E08AE794E443E062
:1002600050E00E948D00682F87E890E070E00E94C7
:10027000AE0088E890E060E070E00E94AE0089E89F
:1002800090E06AE070E00E94AE0080E890E060EBF1
:1002900070E00E94AE0080E890E060E170E00E94B3
:1002A000AE00089582EA91E00E94D2028DEA92E0C7
:1002B00040E855E260E070E00E943E0782E060E0C6
:1002C0000E9421060E94D30008951F93CF93DF93CD
:1002D000182F82EA91E06DE070E00E94F80182EA56
:1002E00091E060EB0E947A0282EA91E0612F0E9425
:1002F0007A0282EA91E00E94BD0261E070E080E053
:1003000090E00E948D0582EA91E06DE070E041E0AE
:1003100050E00E94CE0282EA91E00E94020218168A
:1003200019061CF0CFEFDFEF05C082EA91E00E94D2
:100330000B02EC0161E070E080E090E00E948D052E
:10034000CE01DF91CF911F9108950F931F9380E805
:1003500090E060E970E00E94AE006AE070E080E04A
:1003600090E00E948D058FE890E00E94650180FD7D
:1003700002C080E031C082E990E00E946501182F40
:1003800000E083E990E00E946501082B192B1F73A0
:100390008DEA92E06BE271E00E94F10995E015951B
:1003A00007959A95E1F78DEA92E0B8014AE050E0AE
:1003B0000E94DE098DEA92E060EB0E942F088DEA30
:1003C00092E069E371E00E94F40980E890E060EA5D
:1003D00070E00E94AE0081E01F910F91089568EED9
:1003E00073E080E090E00E948D050E94A5010895D1
:1003F00081E08093A10160937E0110929F01109291
:10040000A001089520917D0130E080917C01281B9E
:100410003109C901089540917C0180917D014817FF
:1004200018F02FEF3FEF0AC0E42FF0E0E45AFE4F40
:100430008081282F30E04F5F40937C01C9010895EF
:10044000E0917C0180917D01E81718F0EFEFFFEF5C
:1004500006C0F0E0E45AFE4F8081E82FF0E0CF01C3
:10046000089508951092A5011092A40188EE93E0DA
:10047000A0E0B0E08093A6019093A701A093A8010B
:10048000B093A90180E491E09093A3018093A2012D
:100490000895CF92DF92EF92FF920F931F93CF9325
:1004A000DF937C016B018A018091A1018823A1F077
:1004B000C0E0D0E00DC0D701ED91FC91D601AC0FAA
:1004C000BD1F0190F081E02DC7016C910995219627
:1004D000C017D10780F304C0CB01642F0E947B03B7
:1004E000C801DF91CF911F910F91FF90EF90DF90A6
:1004F000CF900895DF93CF930F92CDB7DEB7FC0175
:1005000069838091A1018823C9F08091A001803284
:1005100038F081E090E09383828320E030E015C0E2
:1005200080919F01E82FF0E0E158FE4F9981908380
:100530008F5F80939F018093A00105C0CE0101963B
:1005400061E00E947B0321E030E0C9010F90CF9170
:10055000DF9108950F93062F80917E016FE771E080
:100560004091A00121E00E94260310929F01109269
:10057000A0011092A1010F91089561E00E94AA02CA
:100580000895413208F040E2862F6CE571E00E9448
:10059000DD0210927C0180937D01089521E00E948C
:1005A000C102089510927C0110927D0110929F016A
:1005B0001092A0010E9427050895382F413210F0B3
:1005C00040E042C08091AE018823E1F791E0909332
:1005D000AE012093B0018FEF80931B021092D601E1
:1005E00041504093D7014F5F9093AF018091AF018D
:1005F000330F832B8093AF018091B101813041F49F
:100600001092B1018091AF018093BB0085EC01C0D5
:1006100085EE8093BC008091AE018130E1F3809142
:10062000D601841710F44091D60120E030E00AC0D2
:10063000FB01E20FF31FD901AA54BE4F8C918083B6
:100640002F5F3F4F2417A0F3842F08950F931F931C
:10065000582F122F413210F081E04AC08091AE0134
:100660008823E1F782E08093AE010093B0018FEF21
:1006700080931B021092D6014093D701A6EBB1E004
:10068000FB0102C081918D938E2F861B8417D0F3BE
:100690001092AF018091AF01550F852B8093AF0170
:1006A0008091B101813041F41092B1018091AF018C
:1006B0008093BB0085EC01C085EE8093BC001123C4
:1006C00021F08091AE018230E1F380911B028F3FD7
:1006D00011F480E00DC080911B02803211F482E0A1
:1006E00007C080911B02803311F084E001C083E0D9
:1006F0001F910F910895482F613210F081E0089505
:100700008091AE01843011F082E008956093F90188
:10071000A8EDB1E0842F9C01F90102C081918D9375
:100720008E2F841B8617D0F380E008951F920F92BE
:100730000FB60F9211242F933F934F935F936F93B4
:100740007F938F939F93AF93BF93EF93FF9380918A
:10075000B90090E0887F90708036910509F4F2C06E
:1007600081369105CCF58832910509F47BC0893238
:100770009105B4F48031910509F46FC08131910580
:100780003CF4009709F447C1089709F04FC165C0D0
:100790008831910509F466C0809709F047C182C08D
:1007A0008034910509F4A4C08134910544F4803368
:1007B000910509F482C0C89709F038C189C0803515
:1007C000910509F489C08835910509F496C08834EB
:1007D000910509F02BC1AEC08839910509F413C108
:1007E00089399105ECF48837910509F4ABC0893754
:1007F00091054CF48836910509F4A4C08037910521
:1008000009F014C19FC08838910509F4FCC08039F3
:10081000910509F49DC08038910509F007C198C081
:10082000803B910509F4C6C0813B91054CF4803AA8
:10083000910509F49FC0883A910509F0F7C0BAC044
:10084000803C910509F4E3C0883C910509F4DFC0C0
:10085000883B910509F0EAC0C2C08091AF01809346
:10086000BB00CFC09091D6018091D701981768F452
:100870009091D601E92FF0E0EA54FE4F80818093F9
:10088000BB009F5F9093D601BCC08091B0018823CC
:1008900009F44BC085ED8093BC008091BC0084FDC1
:1008A000FCCFC2C080E280931B0285ED8093BC0028
:1008B0008091BC0084FDFCCFB7C080E380931B0215
:1008C00085ED8093BC008091BC0084FDFCCFACC062
:1008D00088E380931B029BC08091D6019091BB005E
:1008E000E82FF0E0EA54FE4F90838F5F8093D601AB
:1008F0009091D6018091D70182C08091D6019091CC
:10090000BB00E82FF0E0EA54FE4F90838F5F8093A6
:10091000D6018091B001882341F085ED8093BC0021
:100920008091BC0084FDFCCF7FC081E08093B10149
:1009300084EA6EC085ED8093BC008091BC0084FD8C
:10094000FCCF72C083E08093AE0110921A0259C0AE
:1009500080911A02803208F056C080911A0290915C
:10096000BB00E82FF0E0E650FE4F90838F5F80934E
:100970001A0247C080911A02803230F4E0911A02C4
:10098000F0E0E650FE4F108285ED8093BC00809130
:10099000BC0084FDFCCF1092AE0160911A02E09180
:1009A000B401F091B5018AEF91E070E009951092E1
:1009B0001A022DC084E08093AE011092F8011092CB
:1009C000F901E091B201F091B30109958091F9012B
:1009D000882329F481E08093F9011092D801909145
:1009E000F801E92FF0E0E852FE4F80818093BB00D0
:1009F0009F5F9093F8019091F8018091F901981709
:100A000010F485EC01C085E88093BC000FC085EC34
:100A10008093BC0009C010921B0285ED8093BC003E
:100A20008091BC0084FDFCCF1092AE01FF91EF914C
:100A3000BF91AF919F918F917F916F915F914F91F6
:100A40003F912F910F900FBE0F901F90189510920D
:100A5000AE0181E08093B0011092B10182E161E0CA
:100A60000E94600683E161E00E946006E9EBF0E02D
:100A700080818E7F808380818D7F808388E48093D6
:100A8000B80085E48093BC0008951F920F920FB6C2
:100A90000F9211242F933F938F939F93AF93BF9304
:100AA0008091200290912102A0912202B091230214
:100AB000309124020196A11DB11D232F2D5F2D37EA
:100AC00020F02D570196A11DB11D20932402809383
:100AD000200290932102A0932202B09323028091DE
:100AE0001C0290911D02A0911E02B0911F0201965E
:100AF000A11DB11D80931C0290931D02A0931E02A4
:100B0000B0931F02BF91AF919F918F913F912F9111
:100B10000F900FBE0F901F9018959B01AC017FB7EF
:100B2000F89480911C0290911D02A0911E02B09138
:100B30001F0266B5A89B05C06F3F19F00196A11D65
:100B4000B11D7FBFBA2FA92F982F8827860F911D1F
:100B5000A11DB11D62E0880F991FAA1FBB1F6A95D6
:100B6000D1F7BC012DC0FFB7F89480911C02909181
:100B70001D02A0911E02B0911F02E6B5A89B05C000
:100B8000EF3F19F00196A11DB11DFFBFBA2FA92F8C
:100B9000982F88278E0F911DA11DB11DE2E0880FAF
:100BA000991FAA1FBB1FEA95D1F7861B970B885E7A
:100BB0009340C8F2215030404040504068517C4F33
:100BC000211531054105510571F60895789484B5D4
:100BD000826084BD84B5816084BD85B5826085BD39
:100BE00085B5816085BDEEE6F0E08081816080831F
:100BF000E1E8F0E010828081826080838081816002
:100C00008083E0E8F0E0808181608083E1EBF0E0C8
:100C1000808184608083E0EBF0E08081816080836C
:100C2000EAE7F0E080818460808380818260808355
:100C30008081816080838081806880831092C10080
:100C40000895CF93DF93482F50E0CA0186569F4FF7
:100C5000FC0134914A575F4FFA018491882369F16E
:100C600090E0880F991FFC01E859FF4FA591B491BE
:100C7000FC01EE58FF4FC591D491662351F42FB774
:100C8000F8948C91932F909589238C938881892354
:100C90000BC0623061F42FB7F8948C91932F90952C
:100CA00089238C938881832B88832FBF06C09FB7AD
:100CB000F8948C91832B8C939FBFDF91CF910895F3
:100CC000482F50E0CA0182559F4FFC012491CA0170
:100CD00086569F4FFC0194914A575F4FFA01349119
:100CE000332309F440C0222351F1233071F0243022
:100CF00028F42130A1F0223011F514C02630B1F0D3
:100D00002730C1F02430D9F404C0809180008F775F
:100D100003C0809180008F7D8093800010C084B5D7
:100D20008F7702C084B58F7D84BD09C08091B000EB
:100D30008F7703C08091B0008F7D8093B000E32F48
:100D4000F0E0EE0FFF1FEE58FF4FA591B4912FB7C3
:100D5000F894662321F48C919095892302C08C919C
:100D6000892B8C932FBF089508951F920F920FB671
:100D70000F9211242F933F934F938F939F93EF9351
:100D8000FF938091C00082FD1DC04091C60020915C
:100D90006502309166022F5F3F4F2F733070809154
:100DA0006702909168022817390771F0E091650297
:100DB000F0916602EB5DFD4F408330936602209315
:100DC000650202C08091C600FF91EF919F918F91C3
:100DD0004F913F912F910F900FBE0F901F9018953C
:100DE000E091B902F091BA02E05CFF4F81919191DC
:100DF00020813181821B930B8F739070892B11F0AE
:100E00000E94B40608951F920F920FB60F921124FC
:100E10002F933F938F939F93EF93FF932091A9027A
:100E20003091AA028091AB029091AC022817390749
:100E300031F48091C1008F7D8093C10014C0E09196
:100E4000AB02F091AC02E759FD4F20818091AB02DB
:100E50009091AC0201968F7390709093AC02809346
:100E6000AB022093C600FF91EF919F918F913F912C
:100E70002F910F900FBE0F901F901895AF92BF92B9
:100E8000DF92EF92FF920F931F93CF93DF93EC01CA
:100E90007A018B01DD24403081EE580780E068073D
:100EA00080E0780711F0DD24D39491E0A92EB12CD5
:100EB000EC89FD89DD2069F0C50108A002C0880F1A
:100EC000991F0A94E2F7808360E079E08DE390E077
:100ED00005C0108260E874E88EE190E0A8019701F7
:100EE0000E94730B2150304040405040569547952A
:100EF0003795279580E12030380720F0DD2011F06C
:100F0000DD24D6CFE889F9893083EA89FB892083FB
:100F100019A2EE89FF89408121E030E0C9010C8CE3
:100F200002C0880F991F0A94E2F7482B4083EE898C
:100F3000FF894081C9010D8C02C0880F991F0A9456
:100F4000E2F7482B4083EE89FF894081C9010E8C6E
:100F500002C0880F991F0A94E2F7482B4083EE895C
:100F6000FF8980810F8C02C0220F331F0A94E2F7A1
:100F7000209528232083DF91CF911F910F91FF901F
:100F8000EF90DF90BF90AF900895DC011C96ED913B
:100F9000FC911D97E05CFF4F2191319180819181FF
:100FA000281B390B2F733070C9010895DC011C9682
:100FB000ED91FC911D97E05CFF4F20813181E05461
:100FC000F040DF01AE5BBF4F8D919C9111972817C8
:100FD000390719F42FEF3FEF07C08D919C91E80F6F
:100FE000F91F8081282F30E0C9010895DC011C968B
:100FF000ED91FC911D97E05CFF4F20813181E05421
:10100000F040DF01AE5BBF4F8D919C911197281787
:10101000390719F42FEF3FEF10C08D919C91119774
:10102000E80FF91F20818D919C91119701968F7384
:10103000907011969C938E9330E0C9010895DC0165
:1010400091968C919197882339F05496ED91FC916B
:101050005597808186FFF9CF91961C920895CF9382
:10106000DF93EC01EE85FF85E05CFF4F208131814D
:10107000E054F0402F5F3F4F2F733070DF01AE5BC5
:10108000BF4F8D919C91119728173907D1F3E05CE0
:10109000FF4F80819181E054F040E80FF91F608399
:1010A000EE85FF85E05CFF4F31832083EE89FF8969
:1010B000208181E090E00F8C02C0880F991F0A9474
:1010C000E2F7282B208381E089A3EC89FD898081C8
:1010D0008064808381E090E0DF91CF910895109249
:1010E000B0021092AF0288EE93E0A0E0B0E08093EF
:1010F000B1029093B202A093B302B093B40280E520
:1011000091E09093AE028093AD0285E292E09093DD
:10111000BA028093B90289E692E09093BC02809370
:10112000BB0285EC90E09093BE028093BD0284ECFC
:1011300090E09093C0028093BF0280EC90E0909387
:10114000C2028093C10281EC90E09093C40280932C
:10115000C30282EC90E09093C6028093C50286ECB5
:1011600090E09093C8028093C70284E08093C90204
:1011700083E08093CA0287E08093CB0285E080936E
:10118000CC0281E08093CD020895CF93DF930E943B
:10119000E6050E945201C0EFD6E00E94EF012097C1
:1011A000E1F30E94F006F9CFCF92DF92EF92FF9227
:1011B0000F931F93CF93DF937C016B018A01C0E0F3
:1011C000D0E00FC0D6016D916D01D701ED91FC917A
:1011D0000190F081E02DC7010995C80FD91F01507A
:1011E00010400115110571F7CE01DF91CF911F91CC
:1011F0000F91FF90EF90DF90CF900895EF92FF92C4
:101200000F931F938C01DC01ED91FC910190F08113
:10121000E02D6DE009957C01D801ED91FC910190E4
:10122000F081E02DC8016AE009959C012E0D3F1D5B
:10123000C9011F910F91FF90EF900895CF93DF9315
:10124000EC016115710519F420E030E00FC0DB01FD
:101250000D900020E9F71197A61BB70BE881F981E3
:101260000280F381E02DAD0109959C01C901DF9158
:10127000CF9108954F925F927F928F929F92AF92FB
:10128000BF92CF92DF92EF92FF920F931F93DF9363
:10129000CF93CDB7DEB7A1970FB6F894DEBF0FBEE0
:1012A000CDBF2C01742ECB01223008F42AE019A204
:1012B00031E2C32ED12CCC0EDD1E822E9924AA241D
:1012C000BB24672D752FA50194010E94730B790132
:1012D0008A01C801B701A50194010E94540B472D52
:1012E000461B0894C108D1084A3014F4405D01C07F
:1012F000495CF6014083E114F1040105110521F078
:101300007E2C5F2DC801DDCFC201B6010E941E09EF
:10131000A1960FB6F894DEBF0FBECDBFCF91DF917F
:101320001F910F91FF90EF90DF90CF90BF90AF9003
:101330009F908F907F905F904F900895CF92DF9213
:10134000EF92FF920F931F93CF93DF93EC016A010B
:101350007B012115310541F4E881F9810190F0818B
:10136000E02D642F09951FC02A303105D1F477FF95
:1013700017C0E881F9810190F081E02D6DE20995B7
:101380008C0144275527BA014C195D096E097F0964
:10139000CE012AE00E943A099801280F391F04C0A3
:1013A0002AE00E943A099C01C901DF91CF911F9167
:1013B0000F91FF90EF90DF90CF900895EF92FF9202
:1013C0000F931F937B019A010027F7FC0095102FC4
:1013D000B801A7010E949E091F910F91FF90EF9005
:1013E00008950E941E090895EF92FF920F931F9394
:1013F0007C010E941E098C01C7010E94FE08080F93
:10140000191FC8011F910F91FF90EF9008950CD004
:10141000AEC0A6D040F09DD030F021F45F3F19F06F
:101420008FC05111D8C092C0B3D098F39923C9F39B
:101430005523B1F3951B550BBB27AA2762177307DA
:10144000840738F09F5F5F4F220F331F441FAA1F8E
:10145000A9F333D00E2E3AF0E0E830D0915050404E
:10146000E695001CCAF729D0FE2F27D0660F771FFC
:10147000881FBB1F261737074807AB07B0E809F0DE
:10148000BB0B802DBF01FF2793585F4F2AF09E3F73
:10149000510568F055C09FC05F3FECF3983EDCF308
:1014A000869577956795B795F7959F5FC9F7880FEC
:1014B000911D9695879597F90895E1E0660F771F3E
:1014C000881FBB1F621773078407BA0720F0621BCF
:1014D000730B840BBA0BEE1F88F7E095089504D0C8
:1014E0006894B11178C008955BD088F09F5790F050
:1014F000B92F9927B751A0F0D1F0660F771F881F39
:10150000991F1AF0BA95C9F712C0B13081F062D0B4
:10151000B1E008955FC0672F782F8827B85F39F052
:10152000B93FCCF3869577956795B395D9F73EF497
:1015300090958095709561957F4F8F4F9F4F08953F
:1015400097F99F6780E870E060E008959FEF80EC76
:10155000089500240A941616170618060906089519
:1015600000240A9412161306140605060895092E7F
:101570000394000C11F4882352F0BB0F40F4BF2BEE
:1015800011F460FF04C06F5F7F4F8F4F9F4F08952E
:1015900057FD9058440F551F59F05F3F71F0479524
:1015A000880F97FB991F61F09F3F79F08795089509
:1015B000121613061406551FF2CF4695F1DF08C028
:1015C000161617061806991FF1CF86957105610545
:1015D00008940895E894BB2766277727CB0197F9ED
:1015E00008950BD0C4CFB5DF28F0BADF18F09523EB
:1015F00009F0A6CFABCF1124EECFCADFA0F3959FA1
:10160000D1F3950F50E0551F629FF001729FBB27E9
:10161000F00DB11D639FAA27F00DB11DAA1F649F95
:101620006627B00DA11D661F829F2227B00DA11D48
:10163000621F739FB00DA11D621F839FA00D611DCE
:10164000221F749F3327A00D611D231F849F600DEF
:10165000211D822F762F6A2F11249F5750408AF028
:10166000E1F088234AF0EE0FFF1FBB1F661F771FB4
:10167000881F91505040A9F79E3F510570F060CFF0
:10168000AACF5F3FECF3983EDCF38695779567959C
:10169000B795F795E7959F5FC1F7FE2B880F911DD2
:1016A0009695879597F90895629FD001739FF001F1
:1016B000829FE00DF11D649FE00DF11D929FF00DE2
:1016C000839FF00D749FF00D659FF00D9927729F19
:1016D000B00DE11DF91F639FB00DE11DF91FBD01A4
:1016E000CF0111240895A1E21A2EAA1BBB1BFD01F4
:1016F0000DC0AA1FBB1FEE1FFF1FA217B307E407F1
:10170000F50720F0A21BB30BE40BF50B661F771F48
:10171000881F991F1A9469F7609570958095909528
:101720009B01AC01BD01CF010895EE0FFF1F059095
:0A173000F491E02D0994F894FFCF26
:10173A00467265713A20006B487A0020496D7065DF
:10174A00643A20006B4F686D00204D61676E3A2045
:10175A0000200020506861733A200054656D70655E
:10176A007261747572653A2000432E000000000011
:10177A007A02490202020B02200231020000000032
:0C178A002F08D408C507F607D6071F0873
:00000001FF
