:100000000C9463000C948B000C948B000C948B006C
:100010000C948B000C948B000C948B000C948B0034
:100020000C948B000C948B000C948B000C948B0024
:100030000C948B000C948B000C948B000C948B0014
:100040000C941D050C948B000C948D060C94DB060F
:100050000C948B000C948B000C948B000C948B00F4
:100060000C946E030C948B00000000002400270009
:100070002A0000000000250028002B0000000000DE
:1000800023002600290004040404040404040202DA
:100090000202020203030303030301020408102007
:1000A0004080010204081020010204081020000012
:1000B0000007000201000003040600000000000029
:1000C00000000A02470811241FBECFEFD8E0DEBFB0
:1000D000CDBF11E0A0E0B1E0E8E6F4E102C0059098
:1000E0000D92A034B107D9F712E0A0E4B1E001C04D
:1000F0001D92A33BB107E1F710E0C6ECD0E004C0CD
:100100002297FE010E942E0AC23CD107C9F70E9425
:100110009D080C94320A0C940000EF92FF920F930A
:100120001F93182F062F86E8E82E81E0F82EC701CE
:100130006DE070E00E94D001C701612F0E94520261
:10014000C701602F0E945202C7010E94950261E020
:1001500070E080E090E00E9465051F910F91FF9094
:10016000EF90089580E890E061E070E00E948D00DB
:100170008AE890E067E070E00E948D008BE890E0F4
:100180006FEF70E00E948D0082E890E060E070E028
:100190000E948D0083E890E063E870E00E948D008B
:1001A00084E890E062E170E00E948D0085E890E0D4
:1001B00060E070E00E948D0086E890E063E870E007
:1001C0000E948D0087E890E062E170E00E948D005F
:1001D00088E890E060E070E00E948D0089E890E09F
:1001E00064E670E00E948D0080E890E060EB70E0D3
:1001F0000E948D0080E890E060E170E00E948D0038
:10020000089586E891E00E94AA0281E992E040E820
:1002100055E260E070E00E94160782E060E00E9414
:10022000F9050E94B20008951F93CF93DF93182F12
:1002300086E891E06DE070E00E94D00186E891E0F0
:1002400060EB0E94520286E891E0612F0E94520208
:1002500086E891E00E94950261E070E080E090E025
:100260000E94650586E891E06DE070E041E050E0B5
:100270000E94A60286E891E00E94DA01181619068B
:100280001CF0CFEFDFEF05C086E891E00E94E301AC
:10029000EC0161E070E080E090E00E946505CE0135
:1002A000DF91CF911F910895CF92DF92EF92FF924D
:1002B0000F931F93CF93DF9380E890E060E270E0AC
:1002C0004CC064E670E080E090E00E94650584E93F
:1002D00090E00E941401D82ECC2485E990E00E9481
:1002E00014018C0186E990E00E941401D82FC0E02F
:1002F00087E990E00E9414017C0181E992E060E0CE
:1003000071E00E94D5090C291D2981E992E0B8010C
:100310004AE050E00E94B60981E992E066E071E0AF
:100320000E94D509EC2AFD2A81E992E0B7014AE052
:1003300050E00E94B60981E992E06CE071E00E9411
:10034000D8098FE890E00E9414018770907004979C
:1003500034F480E890E060E370E00E948D008FE864
:1003600090E00E9414018770907004970CF4A9CF5C
:1003700080E890E060EA70E00E948D00DF91CF910C
:100380001F910F91FF90EF90DF90CF90089568E854
:1003900073E180E090E00E9465050E945401089599
:1003A00081E0809385016093620110928301109235
:1003B000840108952091610130E080916001281B43
:1003C0003109C90108954091600180916101481788
:1003D00018F02FEF3FEF0AC0E42FF0E0E05CFE4F93
:1003E0008081282F30E04F5F40936001C90108955C
:1003F000E091600180916101E81718F0EFEFFFEFE5
:1004000006C0F0E0E05CFE4F8081E82FF0E0CF0115
:1004100008950895109289011092880188EE93E062
:10042000A0E0B0E080938A0190938B01A0938C01AF
:10043000B0938D0183E291E09093870180938601D0
:100440000895CF92DF92EF92FF920F931F93CF9375
:10045000DF937C016B018A01809185018823A1F0E3
:10046000C0E0D0E00DC0D701ED91FC91D601AC0FFA
:10047000BD1F0190F081E02DC7016C910995219677
:10048000C017D10780F304C0CB01642F0E9453032F
:10049000C801DF91CF911F910F91FF90EF90DF90F6
:1004A000CF900895DF93CF930F92CDB7DEB7FC01C5
:1004B0006983809185018823C9F08091840180320D
:1004C00038F081E090E09383828320E030E015C033
:1004D00080918301E82FF0E0ED59FE4F99819083E0
:1004E0008F5F809383018093840105C0CE010196C4
:1004F00061E00E94530321E030E0C9010F90CF91E9
:10050000DF9108950F93062F8091620163E671E0F9
:100510004091840121E00E94FE021092830110921A
:100520008401109285010F91089561E00E9482027A
:100530000895413208F040E2862F60E471E00E94A5
:10054000B5021092600180936101089521E00E943C
:100550009902089510926001109261011092830136
:10056000109284010E94FF040895382F413210F048
:1005700040E042C0809192018823E1F791E090939E
:100580009201209394018FEF8093FF011092BA01A2
:1005900041504093BB014F5F909393018091930131
:1005A000330F832B8093930180919501813041F427
:1005B00010929501809193018093BB0085EC01C05E
:1005C00085EE8093BC00809192018130E1F38091AF
:1005D000BA01841710F44091BA0120E030E00AC05B
:1005E000FB01E20FF31FD901A656BE4F8C91808309
:1005F0002F5F3F4F2417A0F3842F08950F931F936D
:10060000582F122F413210F081E04AC080919201A0
:100610008823E1F782E080939201009394018FEFA9
:100620008093FF011092BA014093BB01AAE9B1E0A7
:10063000FB0102C081918D938E2F861B8417D0F30E
:100640001092930180919301550F852B8093930114
:1006500080919501813041F4109295018091930130
:100660008093BB0085EC01C085EE8093BC00112314
:1006700021F0809192018230E1F38091FF018F3F60
:1006800011F480E00DC08091FF01803211F482E00E
:1006900007C08091FF01803311F084E001C083E046
:1006A0001F910F910895482F613210F081E0089555
:1006B00080919201843011F082E008956093DD0111
:1006C000ACEBB1E0842F9C01F90102C081918D93C4
:1006D0008E2F841B8617D0F380E008951F920F920F
:1006E0000FB60F9211242F933F934F935F936F9305
:1006F0007F938F939F93AF93BF93EF93FF938091DB
:10070000B90090E0887F90708036910509F4F2C0BE
:1007100081369105CCF58832910509F47BC0893288
:100720009105B4F48031910509F46FC081319105D0
:100730003CF4009709F447C1089709F04FC165C020
:100740008831910509F466C0809709F047C182C0DD
:100750008034910509F4A4C08134910544F48033B8
:10076000910509F482C0C89709F038C189C0803565
:10077000910509F489C08835910509F496C088343B
:10078000910509F02BC1AEC08839910509F413C158
:1007900089399105ECF48837910509F4ABC08937A4
:1007A00091054CF48836910509F4A4C08037910571
:1007B00009F014C19FC08838910509F4FCC0803944
:1007C000910509F49DC08038910509F007C198C0D2
:1007D000803B910509F4C6C0813B91054CF4803AF9
:1007E000910509F49FC0883A910509F0F7C0BAC095
:1007F000803C910509F4E3C0883C910509F4DFC011
:10080000883B910509F0EAC0C2C0809193018093B2
:10081000BB00CFC09091BA018091BB01981768F4DA
:100820009091BA01E92FF0E0E656FE4F8081809367
:10083000BB009F5F9093BA01BCC080919401882354
:1008400009F44BC085ED8093BC008091BC0084FD11
:10085000FCCFC2C080E28093FF0185ED8093BC0095
:100860008091BC0084FDFCCFB7C080E38093FF0182
:1008700085ED8093BC008091BC0084FDFCCFACC0B2
:1008800088E38093FF019BC08091BA019091BB00E7
:10089000E82FF0E0E656FE4F90838F5F8093BA0119
:1008A0009091BA018091BB0182C08091BA01909170
:1008B000BB00E82FF0E0E656FE4F90838F5F8093F9
:1008C000BA0180919401882341F085ED8093BC00AA
:1008D0008091BC0084FDFCCF7FC081E080939501B6
:1008E00084EA6EC085ED8093BC008091BC0084FDDD
:1008F000FCCF72C083E0809392011092FE0159C038
:100900008091FE01803208F056C08091FE019091E6
:10091000BB00E82FF0E0E252FE4F90838F5F8093A0
:10092000FE0147C08091FE01803230F4E091FE016B
:10093000F0E0E252FE4F108285ED8093BC00809182
:10094000BC0084FDFCCF109292016091FE01E09109
:100950009801F09199018EED91E070E00995109267
:10096000FE012DC084E0809392011092DC01109270
:10097000DD01E0919601F091970109958091DD01EB
:10098000882329F481E08093DD011092BC019091CD
:10099000DC01E92FF0E0E454FE4F80818093BB003E
:1009A0009F5F9093DC019091DC018091DD019817AD
:1009B00010F485EC01C085E88093BC000FC085EC85
:1009C0008093BC0009C01092FF0185ED8093BC00AC
:1009D0008091BC0084FDFCCF10929201FF91EF91B9
:1009E000BF91AF919F918F917F916F915F914F9147
:1009F0003F912F910F900FBE0F901F90189510925E
:100A0000920181E0809394011092950182E161E06E
:100A10000E94380683E161E00E943806E9EBF0E0CD
:100A200080818E7F808380818D7F808388E4809326
:100A3000B80085E48093BC0008951F920F920FB612
:100A40000F9211242F933F938F939F93AF93BF9354
:100A50008091040290910502A0910602B0910702D4
:100A6000309108020196A11DB11D232F2D5F2D3756
:100A700020F02D570196A11DB11D209308028093EF
:100A8000040290930502A0930602B093070280919E
:100A9000000290910102A0910202B091030201961E
:100AA000A11DB11D8093000290930102A093020248
:100AB000B0930302BF91AF919F918F913F912F917E
:100AC0000F900FBE0F901F9018959B01AC017FB740
:100AD000F8948091000290910102A0910202B091DD
:100AE000030266B5A89B05C06F3F19F00196A11DD2
:100AF000B11D7FBFBA2FA92F982F8827860F911D70
:100B0000A11DB11D62E0880F991FAA1FBB1F6A9526
:100B1000D1F7BC012DC0FFB7F894809100029091ED
:100B20000102A0910202B0910302E6B5A89B05C0A4
:100B3000EF3F19F00196A11DB11DFFBFBA2FA92FDC
:100B4000982F88278E0F911DA11DB11DE2E0880FFF
:100B5000991FAA1FBB1FEA95D1F7861B970B885ECA
:100B60009340C8F2215030404040504068517C4F83
:100B7000211531054105510571F60895789484B524
:100B8000826084BD84B5816084BD85B5826085BD89
:100B900085B5816085BDEEE6F0E08081816080836F
:100BA000E1E8F0E010828081826080838081816052
:100BB0008083E0E8F0E0808181608083E1EBF0E019
:100BC000808184608083E0EBF0E0808181608083BD
:100BD000EAE7F0E0808184608083808182608083A6
:100BE0008081816080838081806880831092C100D1
:100BF0000895CF93DF93482F50E0CA0186569F4F48
:100C0000FC0134914A575F4FFA018491882369F1BE
:100C100090E0880F991FFC01E859FF4FA591B4910E
:100C2000FC01EE58FF4FC591D491662351F42FB7C4
:100C3000F8948C91932F909589238C9388818923A4
:100C40000BC0623061F42FB7F8948C91932F90957C
:100C500089238C938881832B88832FBF06C09FB7FD
:100C6000F8948C91832B8C939FBFDF91CF91089543
:100C7000482F50E0CA0182559F4FFC012491CA01C0
:100C800086569F4FFC0194914A575F4FFA01349169
:100C9000332309F440C0222351F1233071F0243072
:100CA00028F42130A1F0223011F514C02630B1F023
:100CB0002730C1F02430D9F404C0809180008F77B0
:100CC00003C0809180008F7D8093800010C084B528
:100CD0008F7702C084B58F7D84BD09C08091B0003C
:100CE0008F7703C08091B0008F7D8093B000E32F99
:100CF000F0E0EE0FFF1FEE58FF4FA591B4912FB714
:100D0000F894662321F48C919095892302C08C91EC
:100D1000892B8C932FBF089508951F920F920FB6C1
:100D20000F9211242F933F934F938F939F93EF93A1
:100D3000FF938091C00082FD1DC04091C6002091AC
:100D4000490230914A022F5F3F4F2F7330708091DC
:100D50004B0290914C022817390771F0E09149023B
:100D6000F0914A02E75FFD4F408330934A0220939F
:100D7000490202C08091C600FF91EF919F918F912F
:100D80004F913F912F910F900FBE0F901F9018958C
:100D9000E0919D02F0919E02E05CFF4F8191919164
:100DA00020813181821B930B8F739070892B11F0FE
:100DB0000E948C0608951F920F920FB60F92112475
:100DC0002F933F938F939F93EF93FF9320918D02E7
:100DD00030918E0280918F029091900228173907EE
:100DE00031F48091C1008F7D8093C10014C0E091E7
:100DF0008F02F0919002E35BFD4F208180918F0282
:100E00009091900201968F739070909390028093CE
:100E10008F022093C600FF91EF919F918F913F9198
:100E20002F910F900FBE0F901F901895AF92BF9209
:100E3000DF92EF92FF920F931F93CF93DF93EC011A
:100E40007A018B01DD24403081EE580780E068078D
:100E500080E0780711F0DD24D39491E0A92EB12C25
:100E6000EC89FD89DD2069F0C50108A002C0880F6A
:100E7000991F0A94E2F7808360E079E08DE390E0C7
:100E800005C0108260E874E88EE190E0A801970147
:100E90000E940A0A215030404040504056954795E4
:100EA0003795279580E12030380720F0DD2011F0BC
:100EB000DD24D6CFE889F9893083EA89FB8920834C
:100EC00019A2EE89FF89408121E030E0C9010C8C34
:100ED00002C0880F991F0A94E2F7482B4083EE89DD
:100EE000FF894081C9010D8C02C0880F991F0A94A7
:100EF000E2F7482B4083EE89FF894081C9010E8CBF
:100F000002C0880F991F0A94E2F7482B4083EE89AC
:100F1000FF8980810F8C02C0220F331F0A94E2F7F1
:100F2000209528232083DF91CF911F910F91FF906F
:100F3000EF90DF90BF90AF900895DC011C96ED918B
:100F4000FC911D97E05CFF4F21913191808191814F
:100F5000281B390B2F733070C9010895DC011C96D2
:100F6000ED91FC911D97E05CFF4F20813181E054B1
:100F7000F040DF01AE5BBF4F8D919C911197281718
:100F8000390719F42FEF3FEF07C08D919C91E80FBF
:100F9000F91F8081282F30E0C9010895DC011C96DB
:100FA000ED91FC911D97E05CFF4F20813181E05471
:100FB000F040DF01AE5BBF4F8D919C9111972817D8
:100FC000390719F42FEF3FEF10C08D919C911197C5
:100FD000E80FF91F20818D919C91119701968F73D5
:100FE000907011969C938E9330E0C9010895DC01B6
:100FF00091968C919197882339F05496ED91FC91BC
:101000005597808186FFF9CF91961C920895CF93D2
:10101000DF93EC01EE85FF85E05CFF4F208131819D
:10102000E054F0402F5F3F4F2F733070DF01AE5B15
:10103000BF4F8D919C91119728173907D1F3E05C30
:10104000FF4F80819181E054F040E80FF91F6083E9
:10105000EE85FF85E05CFF4F31832083EE89FF89B9
:10106000208181E090E00F8C02C0880F991F0A94C4
:10107000E2F7282B208381E089A3EC89FD89808118
:101080008064808381E090E0DF91CF910895109299
:1010900094021092930288EE93E0A0E0B0E0809377
:1010A000950290939602A0939702B093980283E3DF
:1010B00091E0909392028093910289E092E0909364
:1010C0009E0280939D028DE492E09093A002809313
:1010D0009F0285EC90E09093A2028093A10284ECA1
:1010E00090E09093A4028093A30280EC90E0909310
:1010F000A6028093A50281EC90E09093A8028093D1
:10110000A70282EC90E09093AA028093A90286EC59
:1011100090E09093AC028093AB0284E08093AD02A8
:1011200083E08093AE0287E08093AF0285E08093F6
:10113000B00281E08093B1020895CF93DF930E94C3
:10114000BE050E940101C8ECD6E00E94C7012097AD
:10115000E1F30E94C806F9CFCF92DF92EF92FF929F
:101160000F931F93CF93DF937C016B018A01C0E043
:10117000D0E00FC0D6016D916D01D701ED91FC91CA
:101180000190F081E02DC7010995C80FD91F0150CA
:1011900010400115110571F7CE01DF91CF911F911C
:1011A0000F91FF90EF90DF90CF900895EF92FF9214
:1011B0000F931F938C01DC01ED91FC910190F08164
:1011C000E02D6DE009957C01D801ED91FC91019035
:1011D000F081E02DC8016AE009959C012E0D3F1DAC
:1011E000C9011F910F91FF90EF900895CF93DF9366
:1011F000EC016115710519F420E030E00FC0DB014E
:101200000D900020E9F71197A61BB70BE881F98133
:101210000280F381E02DAD0109959C01C901DF91A8
:10122000CF9108954F925F927F928F929F92AF924B
:10123000BF92CF92DF92EF92FF920F931F93DF93B3
:10124000CF93CDB7DEB7A1970FB6F894DEBF0FBE30
:10125000CDBF2C01742ECB01223008F42AE019A254
:1012600031E2C32ED12CCC0EDD1E822E9924AA246D
:10127000BB24672D752FA50194010E940A0A7901EC
:101280008A01C801B701A50194010E94EB09472D0D
:10129000461B0894C108D1084A3014F4405D01C0CF
:1012A000495CF6014083E114F1040105110521F0C8
:1012B0007E2C5F2DC801DDCFC201B6010E94F60869
:1012C000A1960FB6F894DEBF0FBECDBFCF91DF91D0
:1012D0001F910F91FF90EF90DF90CF90BF90AF9054
:1012E0009F908F907F905F904F900895CF92DF9264
:1012F000EF92FF920F931F93CF93DF93EC016A015C
:101300007B012115310541F4E881F9810190F081DB
:10131000E02D642F09951FC02A303105D1F477FFE5
:1013200017C0E881F9810190F081E02D6DE2099507
:101330008C0144275527BA014C195D096E097F09B4
:10134000CE012AE00E9412099801280F391F04C01B
:101350002AE00E9412099C01C901DF91CF911F91DF
:101360000F91FF90EF90DF90CF900895CF92DF9292
:10137000EF92FF920F931F936C017B019A0100275C
:10138000F7FC0095102FB801A7010E9476098C0187
:10139000C6010E94D608080F191FC8011F910F919E
:1013A000FF90EF90DF90CF9008950E94F608089587
:1013B000EF92FF920F931F937C010E94F6088C011D
:1013C000C7010E94D608080F191FC8011F910F916D
:1013D000FF90EF900895629FD001739FF001829F6C
:1013E000E00DF11D649FE00DF11D929FF00D839FB4
:1013F000F00D749FF00D659FF00D9927729FB00D51
:10140000E11DF91F639FB00DE11DF91FBD01CF0163
:1014100011240895A1E21A2EAA1BBB1BFD010DC0C9
:10142000AA1FBB1FEE1FFF1FA217B307E407F50794
:1014300020F0A21BB30BE40BF50B661F771F881F70
:10144000991F1A9469F760957095809590959B0106
:10145000AC01BD01CF010895EE0FFF1F0590F4917F
:08146000E02D0994F894FFCF80
:101468005265616C3A00496D61673A002000546525
:101478006D70657261747572653A2000432E0000C4
:1014880000000052022102DA01E301F8010902001A
:101498000000000708AC089D07CE07AE07F7070055
:00000001FF
