:100000000C9463000C948B000C948B000C948B006C
:100010000C948B000C948B000C948B000C948B0034
:100020000C948B000C948B000C948B000C948B0024
:100030000C948B000C948B000C948B000C948B0014
:100040000C9484060C948B000C94F4070C944208D6
:100050000C948B000C948B000C948B000C948B00F4
:100060000C94D5040C948B000000000024002700A1
:100070002A0000000000250028002B0000000000DE
:1000800023002600290004040404040404040202DA
:100090000202020203030303030301020408102007
:1000A0004080010204081020010204081020000012
:1000B0000007000201000003040600000000000029
:1000C00000007103AE0911241FBECFEFD8E0DEBFE0
:1000D000CDBF11E0A0E0B1E0E2E1FEE102C0059099
:1000E0000D92A238B107D9F712E0A2E8B1E001C041
:1000F0001D92A63FB107E1F710E0C6ECD0E004C0C6
:100100002297FE010E94030FC23CD107C9F70E944B
:10011000040A0C94070F0C940000CF93DF93EA01BC
:100120002FE33BEF4FE75AE40E94A50C20E030E0BC
:1001300040E05DE40E94F40D0E940D0DC230D10537
:1001400039F0C330D10531F0219729F080E003C0A8
:10015000872F01C0862FDF91CF910895EF92FF92F4
:100160000F931F93182F062F89ECE82E81E0F82EAD
:10017000C7016DE070E00E943703C701612F0E9444
:10018000B903C701602F0E94B903C7010E94FC0395
:1001900061E070E080E090E00E94CC061F910F913A
:1001A000FF90EF900895FF920F931F9380E890E0E7
:1001B00061E070E00E94AE008AE890E067E070E0E5
:1001C0000E94AE008BE890E06FEF70E00E94AE00FE
:1001D00060E070E08AE794E441E050E00E948D0026
:1001E000F82E82E890E06F2D70E00E94AE0060E093
:1001F00070E08AE794E442E050E00E948D00082F0E
:1002000083E890E0602F70E00E94AE0060E070E054
:100210008AE794E443E050E00E948D00182F84E8C0
:1002200090E0612F70E00E94AE0085E890E06F2DB5
:1002300070E00E94AE0086E890E0602F70E00E94BF
:10024000AE0087E890E0612F70E00E94AE0088E881
:1002500090E060E070E00E94AE0089E890E063E624
:1002600070E00E94AE001F910F91FF90089589ECFD
:1002700091E00E94110484ED92E040E052EC61E0D4
:1002800070E00E947D0882E060E00E94600780E8E4
:1002900090E060E070E00E94AE0081E890E060E1F4
:1002A00070E00E94AE000E94D30008951F93CF9388
:1002B000DF93182F89EC91E06DE070E00E94370326
:1002C00089EC91E060EB0E94B90389EC91E0612F29
:1002D0000E94B90389EC91E00E94FC0361E070E0A8
:1002E00080E090E00E94CC0689EC91E06DE070E047
:1002F00041E050E00E940D0489EC91E00E9441032E
:10030000181619061CF0CFEFDFEF05C089EC91E05D
:100310000E944A03EC0161E070E080E090E00E94FE
:10032000CC06CE01DF91CF911F910895EF92FF92FD
:100330000F931F9380E890E060E970E00E94AE00A8
:100340006AE070E080E090E00E94CC068FE890E0E8
:100350000E94560180FD02C080E039C082E990E031
:100360000E945601F82EEE2483E990E00E94560187
:10037000E82AF92A84ED92E060E071E00E943F0BE8
:100380008FEF9FE3E822F9220027F7FC0095102F5A
:10039000C801B7010E94400D20E030E040E05DE37D
:1003A0000E94F40DAB01BC0184ED92E022E030E04C
:1003B0000E94260C84ED92E06EE071E00E94290C10
:1003C00080E890E060EA70E00E94AE0081E01F915A
:1003D0000F91FF90EF9008956F927F928F929F926E
:1003E000AF92BF92CF92DF92EF92FF920F931F9343
:1003F000CF93DF930E94D30080E890E00E945601E3
:10040000BC0167707070606B80E890E00E94AE0085
:1004100080E890E00E945601BC01677070706061D6
:1004200080E890E00E94AE0080E890E00E945601D3
:10043000BC0167707070606280E890E00E94AE005E
:1004400066247724CAC064E670E080E090E00E94F1
:10045000CC068FE890E00E94560181FFBEC084E97F
:1004600090E00E945601182F85E990E00E94560105
:10047000912E8824C82EDD24C828D92886E990E04A
:100480000E945601182F87E990E00E945601D12F53
:10049000C0E0A82EBB24AC2ABD2AB601882777FD70
:1004A0008095982F0E94400D9B01AC010E94F40D95
:1004B0007B018C01B501882777FD8095982F0E94DC
:1004C000400D9B01AC010E94F40D9B01AC01C801E1
:1004D000B7010E943D0C0E945B0E7B018C0184EDF4
:1004E00092E061E171E00E943F0BB301882777FD44
:1004F0008095982F0E94400D20E030E04AE754E4B8
:100500000E94F40D20E030E04AE754E40E943D0CE4
:1005100020E030E04AE754E40E94A50CAB01BC01A6
:1005200084ED92E022E030E00E94260C84ED92E01F
:100530006DE171E00E943F0B84ED92E063E271E0B7
:100540000E943F0B84ED92E0B801A70122E030E069
:100550000E94260C84ED92E060E371E00E943F0B64
:1005600084ED92E067E371E00E943F0B84ED92E03E
:10057000B6014AE050E00E942C0B84ED92E065E465
:1005800071E00E943F0B84ED92E067E471E00E940D
:100590003F0B84ED92E0B5014AE050E00E942C0B45
:1005A00084ED92E065E471E00E94290C8FE890E010
:1005B0000E9456018770907004977CF480E890E068
:1005C0000E945601BC0167707070606380E890E023
:1005D0000E94AE000894611C711C8FE890E00E949C
:1005E00056018770907004970CF42DCF80E890E04E
:1005F0000E945601BC0167707070606A80E890E0EC
:100600000E94AE00DF91CF911F910F91FF90EF906C
:10061000DF90CF90BF90AF909F908F907F906F9022
:10062000089584ED92E00E94040918161906F4F466
:1006300084ED92E00E94350980938201823439F082
:10064000833441F0813471F40E94D3000BC00E94C6
:10065000960108C00E94EC0168EE73E080E090E033
:100660000E94CC0684ED92E00E945E09089581E02C
:100670008093C8016093A5011092C6011092C70132
:1006800008952091A40130E08091A301281B310935
:10069000C90108954091A3018091A401481718F061
:1006A0002FEF3FEF0AC0E42FF0E0ED57FE4F8081BF
:1006B000282F30E04F5F4093A301C9010895E091D6
:1006C000A3018091A401E81718F0EFEFFFEF06C037
:1006D000F0E0ED57FE4F8081E82FF0E0CF01089564
:1006E00008951092CC011092CB0188EE93E0A0E027
:1006F000B0E08093CD019093CE01A093CF01B09351
:10070000D00186E691E09093CA018093C9010895D3
:10071000CF92DF92EF92FF920F931F93CF93DF93CD
:100720007C016B018A018091C8018823A1F0C0E09F
:10073000D0E00DC0D701ED91FC91D601AC0FBD1FEB
:100740000190F081E02DC7016C9109952196C017A9
:10075000D10780F304C0CB01642F0E94BA04C80102
:10076000DF91CF911F910F91FF90EF90DF90CF908D
:100770000895DF93CF930F92CDB7DEB7FC01698365
:100780008091C8018823C9F08091C701803238F078
:1007900081E090E09383828320E030E015C0809177
:1007A000C601E82FF0E0EA55FE4F998190838F5FF4
:1007B0008093C6018093C70105C0CE01019661E018
:1007C0000E94BA0421E030E0C9010F90CF91DF917F
:1007D00008950F93062F8091A50166EA71E040917C
:1007E000C70121E00E9465041092C6011092C70162
:1007F0001092C8010F91089561E00E94E9030895E5
:10080000413208F040E2862F63E871E00E941C0448
:100810001092A3018093A401089521E00E94000496
:1008200008951092A3011092A4011092C601109293
:10083000C7010E9466060895382F413210F040E04B
:1008400042C08091D5018823E1F791E09093D501D2
:100850002093D7018FEF809342021092FD01415007
:100860004093FE014F5F9093D6018091D601330FE4
:10087000832B8093D6018091D801813041F410926E
:10088000D8018091D6018093BB0085EC01C085EE34
:100890008093BC008091D5018130E1F38091FD010E
:1008A000841710F44091FD0120E030E00AC0FB0104
:1008B000E20FF31FD901A352BE4F8C9180832F5FAB
:1008C0003F4F2417A0F3842F08950F931F93582FA1
:1008D000122F413210F081E04AC08091D501882367
:1008E000E1F782E08093D5010093D7018FEF8093E9
:1008F00042021092FD014093FE01ADEDB1E0FB011B
:1009000002C081918D938E2F861B8417D0F3109295
:10091000D6018091D601550F852B8093D601809109
:10092000D801813041F41092D8018091D601809392
:10093000BB0085EC01C085EE8093BC00112321F043
:100940008091D5018230E1F3809142028F3F11F412
:1009500080E00DC080914202803211F482E007C035
:1009600080914202803311F084E001C083E01F9146
:100970000F910895482F613210F081E00895809121
:10098000D501843011F082E0089560932002AFEF2A
:10099000B1E0842F9C01F90102C081918D938E2FCB
:1009A000841B8617D0F380E008951F920F920FB634
:1009B0000F9211242F933F934F935F936F937F93E5
:1009C0008F939F93AF93BF93EF93FF938091B90061
:1009D00090E0887F90708036910509F4F2C08136EE
:1009E0009105CCF58832910509F47BC089329105D7
:1009F000B4F48031910509F46FC0813191053CF464
:100A0000009709F447C1089709F04FC165C08831C4
:100A1000910509F466C0809709F047C182C080340F
:100A2000910509F4A4C08134910544F48033910503
:100A300009F482C0C89709F038C189C08035910592
:100A400009F489C08835910509F496C08834910568
:100A500009F02BC1AEC08839910509F413C1893959
:100A60009105ECF48837910509F4ABC089379105FD
:100A70004CF48836910509F4A4C08037910509F03B
:100A800014C19FC08838910509F4FCC080399105D4
:100A900009F49DC08038910509F007C198C0803BDA
:100AA000910509F4C6C0813B91054CF4803A91054B
:100AB00009F49FC0883A910509F0F7C0BAC0803C9C
:100AC000910509F4E3C0883C910509F4DFC0883B37
:100AD000910509F0EAC0C2C08091D6018093BB00A5
:100AE000CFC09091FD018091FE01981768F490911C
:100AF000FD01E92FF0E0E352FE4F80818093BB00BF
:100B00009F5F9093FD01BCC08091D701882309F4B9
:100B10004BC085ED8093BC008091BC0084FDFCCF70
:100B2000C2C080E28093420285ED8093BC00809138
:100B3000BC0084FDFCCFB7C080E38093420285ED0A
:100B40008093BC008091BC0084FDFCCFACC088E3E6
:100B5000809342029BC08091FD019091BB00E82FE1
:100B6000F0E0E352FE4F90838F5F8093FD01909100
:100B7000FD018091FE0182C08091FD019091BB003A
:100B8000E82FF0E0E352FE4F90838F5F8093FD01EA
:100B90008091D701882341F085ED8093BC0080913E
:100BA000BC0084FDFCCF7FC081E08093D80184EA43
:100BB0006EC085ED8093BC008091BC0084FDFCCFAD
:100BC00072C083E08093D5011092410259C0809198
:100BD0004102803208F056C0809141029091BB00E2
:100BE000E82FF0E0EF5DFD4F90838F5F809341022F
:100BF00047C080914102803230F4E0914102F0E040
:100C0000EF5DFD4F108285ED8093BC008091BC00AC
:100C100084FDFCCF1092D50160914102E091DB018F
:100C2000F091DC0181E292E070E0099510924102BE
:100C30002DC084E08093D50110921F0210922002F3
:100C4000E091D901F091DA01099580912002882381
:100C500029F481E0809320021092FF0190911F02FD
:100C6000E92FF0E0E150FE4F80818093BB009F5F51
:100C700090931F0290911F0280912002981710F408
:100C800085EC01C085E88093BC000FC085EC8093A3
:100C9000BC0009C01092420285ED8093BC00809197
:100CA000BC0084FDFCCF1092D501FF91EF91BF9164
:100CB000AF919F918F917F916F915F914F913F91F4
:100CC0002F910F900FBE0F901F9018951092D50185
:100CD00081E08093D7011092D80182E161E00E9407
:100CE0009F0783E161E00E949F07E9EBF0E08081CC
:100CF0008E7F808380818D7F808388E48093B8009D
:100D000085E48093BC0008951F920F920FB60F9256
:100D100011242F933F938F939F93AF93BF93809111
:100D2000470290914802A0914902B0914A02309145
:100D30004B020196A11DB11D232F2D5F2D3720F0F1
:100D40002D570196A11DB11D20934B0280934702A0
:100D500090934802A0934902B0934A0280914302C3
:100D600090914402A0914502B09146020196A11DC6
:100D7000B11D8093430290934402A0934502B09327
:100D80004602BF91AF919F918F913F912F910F900C
:100D90000FBE0F901F9018959B01AC017FB7F89480
:100DA0008091430290914402A0914502B091460285
:100DB00066B5A89B05C06F3F19F00196A11DB11D36
:100DC0007FBFBA2FA92F982F8827860F911DA11DAD
:100DD000B11D62E0880F991FAA1FBB1F6A95D1F74A
:100DE000BC012DC0FFB7F89480914302909144025A
:100DF000A0914502B0914602E6B5A89B05C0EF3F21
:100E000019F00196A11DB11DFFBFBA2FA92F982F70
:100E100088278E0F911DA11DB11DE2E0880F991F3B
:100E2000AA1FBB1FEA95D1F7861B970B885E9340DC
:100E3000C8F2215030404040504068517C4F21154D
:100E400031054105510571F60895789484B58260A5
:100E500084BD84B5816084BD85B5826085BD85B55E
:100E6000816085BDEEE6F0E0808181608083E1E80D
:100E7000F0E0108280818260808380818160808345
:100E8000E0E8F0E0808181608083E1EBF0E0808148
:100E900084608083E0EBF0E0808181608083EAE71A
:100EA000F0E08081846080838081826080838081A3
:100EB000816080838081806880831092C100089562
:100EC000CF93DF93482F50E0CA0186569F4FFC0115
:100ED00034914A575F4FFA018491882369F190E079
:100EE000880F991FFC01E859FF4FA591B491FC01AF
:100EF000EE58FF4FC591D491662351F42FB7F89463
:100F00008C91932F909589238C93888189230BC092
:100F1000623061F42FB7F8948C91932F90958923C8
:100F20008C938881832B88832FBF06C09FB7F8944A
:100F30008C91832B8C939FBFDF91CF910895482F85
:100F400050E0CA0182559F4FFC012491CA01865688
:100F50009F4FFC0194914A575F4FFA01349133231C
:100F600009F440C0222351F1233071F0243028F4D9
:100F70002130A1F0223011F514C02630B1F0273015
:100F8000C1F02430D9F404C0809180008F7703C071
:100F9000809180008F7D8093800010C084B58F7712
:100FA00002C084B58F7D84BD09C08091B0008F7769
:100FB00003C08091B0008F7D8093B000E32FF0E0FC
:100FC000EE0FFF1FEE58FF4FA591B4912FB7F89485
:100FD000662321F48C919095892302C08C91892BF2
:100FE0008C932FBF089508951F920F920FB60F9202
:100FF00011242F933F934F938F939F93EF93FF93DE
:101000008091C00082FD1DC04091C60020918C02DD
:1010100030918D022F5F3F4F2F73307080918E0281
:1010200090918F022817390771F0E0918C02F091AE
:101030008D02E45BFD4F408330938D0220938C0240
:1010400002C08091C600FF91EF919F918F914F91C7
:101050003F912F910F900FBE0F901F901895E09128
:10106000E002F091E102E05CFF4F819191912081DB
:101070003181821B930B8F739070892B11F00E942A
:10108000F30708951F920F920FB60F9211242F931A
:101090003F938F939F93EF93FF932091D0023091D2
:1010A000D1028091D2029091D3022817390731F4EE
:1010B0008091C1008F7D8093C10014C0E091D20265
:1010C000F091D302E057FD4F20818091D2029091A0
:1010D000D30201968F7390709093D3028093D202C3
:1010E0002093C600FF91EF919F918F913F912F9197
:1010F0000F900FBE0F901F901895AF92BF92DF9286
:10110000EF92FF920F931F93CF93DF93EC017A013D
:101110008B01DD24403081EE580780E0680780E0D5
:10112000780711F0DD24D39491E0A92EB12CEC893D
:10113000FD89DD2069F0C50108A002C0880F991F54
:101140000A94E2F7808360E079E08DE390E005C0E7
:10115000108260E874E88EE190E0A80197010E9497
:10116000DF0E21503040404050405695479537950E
:10117000279580E12030380720F0DD2011F0DD24B4
:10118000D6CFE889F9893083EA89FB89208319A2BF
:10119000EE89FF89408121E030E0C9010C8C02C05A
:1011A000880F991F0A94E2F7482B4083EE89FF8944
:1011B0004081C9010D8C02C0880F991F0A94E2F783
:1011C000482B4083EE89FF894081C9010E8C02C003
:1011D000880F991F0A94E2F7482B4083EE89FF8914
:1011E00080810F8C02C0220F331F0A94E2F72095F2
:1011F00028232083DF91CF911F910F91FF90EF90D3
:10120000DF90BF90AF900895DC011C96ED91FC91AA
:101210001D97E05CFF4F2191319180819181281BC6
:10122000390B2F733070C9010895DC011C96ED91C4
:10123000FC911D97E05CFF4F20813181E054F0402C
:10124000DF01AE5BBF4F8D919C9111972817390735
:1012500019F42FEF3FEF07C08D919C91E80FF91F14
:101260008081282F30E0C9010895DC011C96ED91A2
:10127000FC911D97E05CFF4F20813181E054F040EC
:10128000DF01AE5BBF4F8D919C91119728173907F5
:1012900019F42FEF3FEF10C08D919C911197E80F3B
:1012A000F91F20818D919C91119701968F739070F9
:1012B00011969C938E9330E0C9010895DC019196BC
:1012C0008C919197882339F05496ED91FC91559724
:1012D000808186FFF9CF91961C920895CF93DF937A
:1012E000EC01EE85FF85E05CFF4F20813181E05409
:1012F000F0402F5F3F4F2F733070DF01AE5BBF4F69
:101300008D919C91119728173907D1F3E05CFF4F1D
:1013100080819181E054F040E80FF91F6083EE85F1
:10132000FF85E05CFF4F31832083EE89FF892081B8
:1013300081E090E00F8C02C0880F991F0A94E2F7B9
:10134000282B208381E089A3EC89FD89808180643A
:10135000808381E090E0DF91CF9108951092D702D1
:101360001092D60288EE93E0A0E0B0E08093D8021D
:101370009093D902A093DA02B093DB0286E791E062
:101380009093D5028093D4028CE492E09093E10292
:101390008093E00280E992E09093E3028093E2027E
:1013A00085EC90E09093E5028093E40284EC90E079
:1013B0009093E7028093E60280EC90E09093E9023C
:1013C0008093E80281EC90E09093EB028093EA0234
:1013D00082EC90E09093ED028093EC0286EC90E03A
:1013E0009093EF028093EE0284E08093F00283E01A
:1013F0008093F10287E08093F20285E08093F3020C
:1014000081E08093F4020895CF93DF930E94250733
:101410000E943701CFE2D8E00E9411032097E1F348
:101420000E942F08F9CFCF92DF92EF92FF920F9395
:101430001F93CF93DF937C016B018A01C0E0D0E062
:101440000FC0D6016D916D01D701ED91FC91019016
:10145000F081E02DC7010995C80FD91F0150104038
:101460000115110571F7CE01DF91CF911F910F91F9
:10147000FF90EF90DF90CF900895EF92FF920F933F
:101480001F938C01DC01ED91FC910190F081E02D26
:101490006DE009957C01D801ED91FC910190F081FE
:1014A000E02DC8016AE009959C012E0D3F1DC90180
:1014B0001F910F91FF90EF900895CF93DF93EC0170
:1014C0006115710519F420E030E00FC0DB010D90CB
:1014D0000020E9F71197A61BB70BE881F98102807C
:1014E000F381E02DAD0109959C01C901DF91CF91F8
:1014F00008954F925F927F928F929F92AF92BF9288
:10150000CF92DF92EF92FF920F931F93DF93CF93CF
:10151000CDB7DEB7A1970FB6F894DEBF0FBECDBF33
:101520002C01742ECB01223008F42AE019A231E2FA
:10153000C32ED12CCC0EDD1E822E9924AA24BB24CE
:10154000672D752FA50194010E94DF0E79018A0194
:10155000C801B701A50194010E94C00E472D461B8A
:101560000894C108D1084A3014F4405D01C0495CB8
:10157000F6014083E114F1040105110521F07E2CF0
:101580005F2DC801DDCFC201B6010E945D0AA196A0
:101590000FB6F894DEBF0FBECDBFCF91DF911F9184
:1015A0000F91FF90EF90DF90CF90BF90AF909F9002
:1015B0008F907F905F904F900895DC012115310549
:1015C00041F4ED91FC910190F081E02D642F09959B
:1015D00008950E94790A0895CF92DF92EF92FF92C8
:1015E0000F931F93CF93DF93EC016A017B012115C9
:1015F000310541F4E881F9810190F081E02D642FFB
:1016000009951FC02A303105D1F477FF17C0E88152
:10161000F9810190F081E02D6DE209958C0144275C
:101620005527BA014C195D096E097F09CE012AE0E0
:101630000E94790A9801280F391F04C02AE00E94ED
:10164000790A9C01C901DF91CF911F910F91FF9001
:10165000EF90DF90CF900895EF92FF920F931F933A
:101660007B019A010027F7FC0095102FB801A70114
:101670000E94EC0A1F910F91FF90EF9008950E9435
:101680005D0A08957F928F929F92AF92BF92CF9200
:10169000DF92EF92FF920F931F93CF93DF934C0152
:1016A0007A018B01722ECB01BA01A80197010E9429
:1016B000A50E882321F0C40164E571E021C0C0E0DB
:1016C000D0E057016801E894D7F8C601B5012FEFC3
:1016D0003FEF4FE75FE70E94A50E882351F4C60154
:1016E000B5012FEF3FEF4FE75FE70E94A10C1816FF
:1016F00014F0C1E0D0E0219739F0C40168E571E051
:101700000E945D0AEC0193C0C801B7012FEF3FEFC3
:101710004FE75FE40E94F00D181654F0C801B701BE
:101720002FEF3FEF4FE75FEC0E94A10C882324F4DA
:10173000C4016CE571E0E4CFC801B70120E030E0FE
:1017400040E050E00E94A10C87FD03C0C0E0D0E063
:101750000EC0D401ED91FC910190F081E02DC40107
:101760006DE20995EC0117FB109517F9109520E033
:1017700030E040E05FE3DD240BC0CA01B90120E0A6
:1017800030E040E251E40E94A50C9B01AC01D394EF
:10179000D71498F3C801B7010E943D0C5B016C019E
:1017A0000E94120D7B018C01C401B801A7012AE03F
:1017B00030E00E94DD0AC80FD91F772039F0C4013C
:1017C00060E671E00E945D0AC80FD91FC801B70129
:1017D0000E943E0D9B01AC01C601B5010E943C0C6C
:1017E00024C020E030E040E251E40E94F40D7B018F
:1017F0008C010E940D0D5B016C01CC24B7FCC094E0
:10180000DC2CC401B601A5012AE030E00E94EC0AFC
:10181000C80FD91FC601B5010E94400D9B01AC0144
:10182000C801B7010E943C0C7A947720D1F6CE0112
:10183000DF91CF911F910F91FF90EF90DF90CF90AC
:10184000BF90AF909F908F907F9008950E94420B21
:101850000895EF92FF920F931F937C010E945D0AFF
:101860008C01C7010E943D0A080F191FC8011F9172
:101870000F91FF90EF9008955058BB27AA270ED0E4
:1018800075C166D130F06BD120F031F49F3F11F477
:101890001EF45BC10EF4E095E7FB51C1E92F77D14F
:1018A00080F3BA17620773078407950718F071F47D
:1018B0009EF58FC10EF4E0950B2EBA2FA02D0B01D3
:1018C000B90190010C01CA01A0011124FF27591B85
:1018D00099F0593F50F4503E68F11A16F040A22F8B
:1018E000232F342F4427585FF3CF469537952795FC
:1018F000A795F0405395C9F77EF41F16BA0B620BFB
:10190000730B840BBAF09150A1F0FF0FBB1F661F41
:10191000771F881FC2F70EC0BA0F621F731F841F84
:1019200048F4879577956795B795F7959E3F08F0AA
:10193000B3CF9395880F08F09927EE0F9795879569
:101940000895D9D008F481E008950CD00FC107D1D3
:1019500040F0FED030F021F45F3F19F0F0C051119B
:1019600039C1F3C014D198F39923C9F35523B1F3C6
:10197000951B550BBB27AA2762177307840738F0FE
:101980009F5F5F4F220F331F441FAA1FA9F333D05D
:101990000E2E3AF0E0E830D091505040E695001C11
:1019A000CAF729D0FE2F27D0660F771F881FBB1FCD
:1019B000261737074807AB07B0E809F0BB0B802DA7
:1019C000BF01FF2793585F4F2AF09E3F510568F0F3
:1019D000B6C000C15F3FECF3983EDCF38695779587
:1019E0006795B795F7959F5FC9F7880F911D9695F5
:1019F000879597F90895E1E0660F771F881FBB1F51
:101A0000621773078407BA0720F0621B730B840BFD
:101A1000BA0BEE1F88F7E095089504D06894B111D1
:101A2000D9C00895BCD088F09F5790F0B92F99275E
:101A3000B751A0F0D1F0660F771F881F991F1AF0D9
:101A4000BA95C9F712C0B13081F0C3D0B1E00895A2
:101A5000C0C0672F782F8827B85F39F0B93FCCF323
:101A6000869577956795B395D9F73EF490958095CF
:101A7000709561957F4F8F4F9F4F0895E89409C0EF
:101A800097FB3EF490958095709561957F4F8F4FB1
:101A90009F4F9923A9F0F92F96E9BB279395F695C7
:101AA000879577956795B795F111F8CFFAF4BB0F45
:101AB00011F460FF1BC06F5F7F4F8F4F9F4F16C0A9
:101AC000882311F096E911C0772321F09EE8872F33
:101AD000762F05C0662371F096E8862F70E060E0EF
:101AE0002AF09A95660F771F881FDAF7880F969568
:101AF000879597F90895990F0008550FAA0BE0E80C
:101B0000FEEF16161706E807F907C0F012161306BF
:101B1000E407F50798F0621B730B840B950B39F4FF
:101B20000A2661F0232B242B252B21F408950A2665
:101B300009F4A140A6958FEF811D811D089597F9A5
:101B40009F6780E870E060E008959FEF80EC089563
:101B500000240A941616170618060906089500248C
:101B60000A9412161306140605060895092E039406
:101B7000000C11F4882352F0BB0F40F4BF2B11F47A
:101B800060FF04C06F5F7F4F8F4F9F4F089557FDD9
:101B90009058440F551F59F05F3F71F04795880FDB
:101BA00097FB991F61F09F3F79F087950895121672
:101BB00013061406551FF2CF4695F1DF08C016161E
:101BC00017061806991FF1CF8695710561050894CF
:101BD0000895E894BB2766277727CB0197F90895E6
:101BE0008ADF08F48FEF08950BD0C0CFB1DF28F063
:101BF000B6DF18F0952309F0A2CFA7CF1124EACFC2
:101C0000C6DFA0F3959FD1F3950F50E0551F629F5B
:101C1000F001729FBB27F00DB11D639FAA27F00D45
:101C2000B11DAA1F649F6627B00DA11D661F829F6C
:101C30002227B00DA11D621F739FB00DA11D621F51
:101C4000839FA00D611D221F749F3327A00D611D6E
:101C5000231F849F600D211D822F762F6A2F112450
:101C60009F5750408AF0E1F088234AF0EE0FFF1FA3
:101C7000BB1F661F771F881F91505040A9F79E3FDA
:101C8000510570F05CCFA6CF5F3FECF3983EDCF3DC
:101C9000869577956795B795F795E7959F5FC1F717
:101CA000FE2B880F911D9695879597F9089511F44D
:101CB0000EF44BCF4EC073DFD0F39923D9F3CEF39C
:101CC0009F57550B87FF55D056959795B0E020F458
:101CD000660F771F881FBB1F1F930F93002490016F
:101CE000A0018001F001A0E80E0F1F1F0A1E511D68
:101CF000601B710B8009B50B48F4600F711F801DCC
:101D0000B51F0E1B1F0B0A0A510907C02E0F3F1FDC
:101D10004A1F0E0F1F1F0A1E511D660F771F881FB7
:101D2000BB1FA695F795E795F8F60617170708065F
:101D30005B07211D311D411D0F911F91B901842F9A
:101D40009158880F969587950895D5DE880B990B45
:101D500008959F3F49F0915028F4869577956795AF
:101D6000B7959F5F80389F4F880F9695879597F915
:101D7000089591505040660F771F881FD2F708953D
:101D8000629FD001739FF001829FE00DF11D649F5F
:101D9000E00DF11D929FF00D839FF00D749FF00DEB
:101DA000659FF00D9927729FB00DE11DF91F639F8C
:101DB000B00DE11DF91FBD01CF0111240895A1E26D
:101DC0001A2EAA1BBB1BFD010DC0AA1FBB1FEE1FB5
:101DD000FF1FA217B307E407F50720F0A21BB30B00
:101DE000E40BF50B661F771F881F991F1A9469F77C
:101DF00060957095809590959B01AC01BD01CF01D8
:101E00000895EE0FFF1F0590F491E02D0994F894CA
:021E1000FFCF02
:101E120054656D70657261747572653A2000432E67
:101E2200004672657175656E63793A20002C6B48C5
:101E32007A3B00204D61676E69747564653A2000D3
:101E42002C6B4F686D3B0020526573697374616E31
:101E520063653A20002C00205265616374616E63F1
:101E6200653A20006E616E00696E66006F766600EC
:101E72002E0000000000B903880341034A035F03F8
:101E82007003000000006E09130A040935091509E0
:021E92005E09E7
:00000001FF
