:100000000C947A000C94A2000C94A2000C94A20010
:100010000C94A2000C94A2000C94A2000C94A200D8
:100020000C94A2000C94A2000C94A2000C94A200C8
:100030000C94A2000C94A2000C94A2000C94A200B8
:100040000C9431060C94A2000C94A1070C94EF07B9
:100050000C94A2000C94A2000C94A2000C94A20098
:100060000C9482040C94A200084AD73B3BCE016E4C
:1000700084BCBFFDC12F3D6C74319ABD56833DDAFF
:100080003D00C77F11BED9E4BB4C3E916BAAAABE0E
:10009000000000803F00000000240027002A00002C
:1000A000000000250028002B00000000002300268F
:1000B00000290004040404040404040202020202ED
:1000C000020303030303030102040810204080011C
:1000D000020408102001020408102000000007009C
:1000E0000201000003040600000000000000000000
:1000F0001E035B0911241FBECFEFD8E0DEBFCDBFCA
:1001000011E0A0E0B1E0E4EFFDE102C005900D9246
:10011000AA36B107D9F712E0AAE6B1E001C01D92F4
:10012000AD3DB107E1F710E0C4EFD0E004C0229785
:10013000FE010E94F40EC03FD107C9F70E94B10929
:100140000C94F80E0C940000CF93DF93EA012FE398
:100150003BEF4FE75AE40E94670C20E030E040E0BC
:100160005DE40E94E20D0E94CF0CC230D10539F04F
:10017000C330D10531F0219729F080E003C0872FEB
:1001800001C0862FDF91CF910895EF92FF920F93D8
:100190001F93182F062F80EBE82E81E0F82EC70161
:1001A0006DE070E00E94E402C701612F0E946603C7
:1001B000C701602F0E946603C7010E94A90361E086
:1001C00070E080E090E00E9479061F910F91FF900F
:1001D000EF90089580E890E061E070E00E94C50033
:1001E0008AE890E067E070E00E94C5008BE890E04C
:1001F0006FEF70E00E94C50060E070E583EC96E46C
:1002000041E050E00E94A400682F82E890E070E096
:100210000E94C50060E070E583EC96E442E050E0A7
:100220000E94A400682F83E890E070E00E94C5005F
:1002300060E070E583EC96E443E050E00E94A400A7
:10024000682F84E890E070E00E94C50060E070E0F4
:100250008AE794E441E050E00E94A400682F85E81A
:1002600090E070E00E94C50060E070E08AE794E4EE
:1002700042E050E00E94A400682F86E890E070E021
:100280000E94C50060E070E08AE794E443E050E03B
:100290000E94A400682F87E890E070E00E94C500EB
:1002A00088E890E060E070E00E94C50089E890E096
:1002B0006AE070E00E94C50080E890E060EB70E0CA
:1002C0000E94C50080E890E060E170E00E94C500F7
:1002D000089580EB91E00E94BE038BEB92E040E832
:1002E00055E260E070E00E942A0882E060E00E942F
:1002F0000D070E94EA0008951F93CF93DF93182FF4
:1003000080EB91E06DE070E00E94E40280EB91E010
:1003100060EB0E94660380EB91E0612F0E94660310
:1003200080EB91E00E94A90361E070E080E090E042
:100330000E94790680EB91E06DE070E041E050E0D2
:100340000E94BA0380EB91E00E94EE021816190693
:100350001CF0CFEFDFEF05C080EB91E00E94F702C9
:10036000EC0161E070E080E090E00E947906CE014F
:10037000DF91CF911F9108952F923F924F925F92FC
:100380006F927F928F929F92AF92BF92CF92DF92A5
:10039000EF92FF920F931F93CF93DF9380E890E04B
:1003A00060E270E00E94C50022243324E2C064E6CB
:1003B00070E080E090E00E94790684E990E00E947D
:1003C0007C01582E442485E990E00E947C017C0148
:1003D00086E990E00E947C01D82FC0E087E990E098
:1003E0000E947C015C01E428F5280027F7FC0095B9
:1003F000102FC801B7010E94020D3B014C01A4015E
:1004000093010E94E20D7B018C01AC2ABD2ACC2411
:10041000B7FCC094DC2CC601B5010E94020D5B0143
:100420006C01A60195010E94E20D9B01AC01C8017F
:10043000B7010E94D70B0E94490E7B018C01C601B7
:10044000B501A40193010E94670C0E943B0C5B0163
:100450006C018BEB92E060E071E00E94D90AB1017F
:10046000882777FD8095982F0E94020D20E030E0CC
:100470004AE754E40E94E20D20E030E543EC56E404
:100480000E94D70B20E030E04AE754E40E94670C5A
:10049000AB01BC018BEB92E022E030E00E94C00B8C
:1004A0008BEB92E067E071E00E94D90A8BEB92E05F
:1004B0006BE071E00E94D90AC801B7012EEE3FEF50
:1004C0004CE85FE20E94E20D9B01AC0160E070E04D
:1004D00080E89FE30E94670C20E030E04AE754E4A4
:1004E0000E94670CAB01BC018BEB92E022E030E094
:1004F0000E94C00B8BEB92E064E171E00E94D90A8C
:100500008BEB92E069E171E00E94D90A8BEB92E0FB
:10051000B801A70122E030E00E94C00B8BEB92E013
:1005200061E271E00E94D90A8BEB92E063E271E034
:100530000E94D90A8BEB92E0B601A50122E030E0DF
:100540000E94C00B8BEB92E061E271E00E94C30B52
:100550008FE890E00E947C0187709070049734F4DB
:1005600080E890E060E370E00E94C5000894211CE0
:10057000311C8FE890E00E947C0187709070049796
:100580000CF415CF80E890E060EA70E00E94C500AE
:10059000DF91CF911F910F91FF90EF90DF90CF905F
:1005A000BF90AF909F908F907F906F905F904F9093
:1005B0003F902F90089568E873E180E090E00E94FA
:1005C00079060E94BC01089581E08093AF01609399
:1005D0008C011092AD011092AE01089520918B0113
:1005E00030E080918A01281B3109C90108954091AA
:1005F0008A0180918B01481718F02FEF3FEF0AC056
:10060000E42FF0E0E659FE4F8081282F30E04F5F65
:1006100040938A01C9010895E0918A0180918B017C
:10062000E81718F0EFEFFFEF06C0F0E0E659FE4FD5
:100630008081E82FF0E0CF01089508951092B30172
:100640001092B20188EE93E0A0E0B0E08093B40194
:100650009093B501A093B601B093B7018EE491E0F9
:100660009093B1018093B0010895CF92DF92EF9201
:10067000FF920F931F93CF93DF937C016B018A014D
:100680008091AF018823A1F0C0E0D0E00DC0D70178
:10069000ED91FC91D601AC0FBD1F0190F081E02DD2
:1006A000C7016C9109952196C017D10780F304C04A
:1006B000CB01642F0E946704C801DF91CF911F9185
:1006C0000F91FF90EF90DF90CF900895DF93CF933D
:1006D0000F92CDB7DEB7FC0169838091AF0188230B
:1006E000C9F08091AE01803238F081E090E09383D0
:1006F000828320E030E015C08091AD01E82FF0E06A
:10070000E357FE4F998190838F5F8093AD01809373
:10071000AE0105C0CE01019661E00E94670421E0B0
:1007200030E0C9010F90CF91DF9108950F93062F0C
:1007300080918C016DE871E04091AE0121E00E9452
:1007400012041092AD011092AE011092AF010F9100
:10075000089561E00E9496030895413208F040E256
:10076000862F6AE671E00E94C90310928A01809385
:100770008B01089521E00E94AD03089510928A0133
:1007800010928B011092AD011092AE010E941306DF
:100790000895382F413210F040E042C08091BC01F2
:1007A0008823E1F791E09093BC012093BE018FEF85
:1007B000809329021092E40141504093E5014F5F7C
:1007C0009093BD018091BD01330F832B8093BD01B8
:1007D0008091BF01813041F41092BF018091BD0131
:1007E0008093BB0085EC01C085EE8093BC008091B6
:1007F000BC018130E1F38091E401841710F4409151
:10080000E40120E030E00AC0FB01E20FF31FD90150
:10081000AC53BE4F8C9180832F5F3F4F2417A0F3C2
:10082000842F08950F931F93582F122F413210F0E9
:1008300081E04AC08091BC018823E1F782E0809387
:10084000BC010093BE018FEF809329021092E40156
:100850004093E501A4ECB1E0FB0102C081918D93CE
:100860008E2F861B8417D0F31092BD018091BD019D
:10087000550F852B8093BD018091BF01813041F4DC
:100880001092BF018091BD018093BB0085EC01C037
:1008900085EE8093BC00112321F08091BC01823051
:1008A000E1F3809129028F3F11F480E00DC0809127
:1008B0002902803211F482E007C08091290280333E
:1008C00011F084E001C083E01F910F910895482F3B
:1008D000613210F081E008958091BC01843011F004
:1008E00082E0089560930702A6EEB1E0842F9C0198
:1008F000F90102C081918D938E2F841B8617D0F34E
:1009000080E008951F920F920FB60F9211242F933B
:100910003F934F935F936F937F938F939F93AF9387
:10092000BF93EF93FF938091B90090E0887F907020
:100930008036910509F4F2C081369105CCF58832F4
:10094000910509F47BC089329105B4F48031910599
:1009500009F46FC0813191053CF4009709F447C157
:10096000089709F04FC165C08831910509F466C048
:10097000809709F047C182C08034910509F4A4C072
:100980008134910544F48033910509F482C0C897FD
:1009900009F038C189C08035910509F489C08835CE
:1009A000910509F496C08834910509F02BC1AEC0B9
:1009B0008839910509F413C189399105ECF4883718
:1009C000910509F4ABC0893791054CF4883691053F
:1009D00009F4A4C08037910509F014C19FC088387C
:1009E000910509F4FCC08039910509F49DC0803857
:1009F000910509F007C198C0803B910509F4C6C074
:100A0000813B91054CF4803A910509F49FC0883AE6
:100A1000910509F0F7C0BAC0803C910509F4E3C024
:100A2000883C910509F4DFC0883B910509F0EAC0D4
:100A3000C2C08091BD018093BB00CFC09091E40102
:100A40008091E501981768F49091E401E92FF0E0B6
:100A5000EC53FE4F80818093BB009F5F9093E40135
:100A6000BCC08091BE01882309F44BC085ED809302
:100A7000BC008091BC0084FDFCCFC2C080E28093AA
:100A8000290285ED8093BC008091BC0084FDFCCFE1
:100A9000B7C080E38093290285ED8093BC008091EC
:100AA000BC0084FDFCCFACC088E3809329029BC0CE
:100AB0008091E4019091BB00E82FF0E0EC53FE4FF1
:100AC00090838F5F8093E4019091E4018091E50130
:100AD00082C08091E4019091BB00E82FF0E0EC53DC
:100AE000FE4F90838F5F8093E4018091BE01882345
:100AF00041F085ED8093BC008091BC0084FDFCCF6B
:100B00007FC081E08093BF0184EA6EC085ED809351
:100B1000BC008091BC0084FDFCCF72C083E0809358
:100B2000BC011092280259C080912802803208F03E
:100B300056C0809128029091BB00E82FF0E0E85F5A
:100B4000FD4F90838F5F8093280247C080912802D9
:100B5000803230F4E0912802F0E0E85FFD4F10822F
:100B600085ED8093BC008091BC0084FDFCCF109289
:100B7000BC0160912802E091C201F091C30188E0BC
:100B800092E070E00995109228022DC084E08093D5
:100B9000BC011092060210920702E091C001F09190
:100BA000C101099580910702882329F481E080938F
:100BB00007021092E60190910602E92FF0E0EA5157
:100BC000FE4F80818093BB009F5F909306029091BF
:100BD000060280910702981710F485EC01C085E8A1
:100BE0008093BC000FC085EC8093BC0009C01092BC
:100BF000290285ED8093BC008091BC0084FDFCCF70
:100C00001092BC01FF91EF91BF91AF919F918F9195
:100C10007F916F915F914F913F912F910F900FBEF8
:100C20000F901F9018951092BC0181E08093BE0137
:100C30001092BF0182E161E00E944C0783E161E014
:100C40000E944C07E9EBF0E080818E7F80838081F9
:100C50008D7F808388E48093B80085E48093BC0016
:100C600008951F920F920FB60F9211242F933F9366
:100C70008F939F93AF93BF9380912E0290912F02F9
:100C8000A0913002B0913102309132020196A11D43
:100C9000B11D232F2D5F2D3720F02D570196A11D5B
:100CA000B11D2093320280932E0290932F02A093C5
:100CB0003002B093310280912A0290912B02A091D0
:100CC0002C02B0912D020196A11DB11D80932A0224
:100CD00090932B02A0932C02B0932D02BF91AF9161
:100CE0009F918F913F912F910F900FBE0F901F906A
:100CF00018959B01AC017FB7F89480912A029091DE
:100D00002B02A0912C02B0912D0266B5A89B05C0C4
:100D10006F3F19F00196A11DB11D7FBFBA2FA92FFA
:100D2000982F8827860F911DA11DB11D62E0880FA5
:100D3000991FAA1FBB1F6A95D1F7BC012DC0FFB731
:100D4000F89480912A0290912B02A0912C02B091EC
:100D50002D02E6B5A89B05C0EF3F19F00196A11D35
:100D6000B11DFFBFBA2FA92F982F88278E0F911D75
:100D7000A11DB11DE2E0880F991FAA1FBB1FEA95B4
:100D8000D1F7861B970B885E9340C8F22150304004
:100D90004040504068517C4F2115310541055105B7
:100DA00071F60895789484B5826084BD84B58160BD
:100DB00084BD85B5826085BD85B5816085BDEEE663
:100DC000F0E0808181608083E1E8F0E01082808142
:100DD00082608083808181608083E0E8F0E08081B0
:100DE00081608083E1EBF0E0808184608083E0EBD0
:100DF000F0E0808181608083EAE7F0E080818460B8
:100E00008083808182608083808181608083808113
:100E1000806880831092C1000895CF93DF93482F9C
:100E200050E0CA0189539F4FFC0134914D545F4FEC
:100E3000FA018491882369F190E0880F991FFC01E1
:100E4000EB56FF4FA591B491FC01E156FF4FC591C0
:100E5000D491662351F42FB7F8948C91932F9095E9
:100E600089238C93888189230BC0623061F42FB76A
:100E7000F8948C91932F909589238C938881832B60
:100E800088832FBF06C09FB7F8948C91832B8C93D7
:100E90009FBFDF91CF910895482F50E0CA0185523E
:100EA0009F4FFC012491CA0189539F4FFC019491EB
:100EB0004D545F4FFA013491332309F440C022238B
:100EC00051F1233071F0243028F42130A1F0223088
:100ED00011F514C02630B1F02730C1F02430D9F418
:100EE00004C0809180008F7703C0809180008F7D47
:100EF0008093800010C084B58F7702C084B58F7D49
:100F000084BD09C08091B0008F7703C08091B0008C
:100F10008F7D8093B000E32FF0E0EE0FFF1FE156CE
:100F2000FF4FA591B4912FB7F894662321F48C91CB
:100F30009095892302C08C91892B8C932FBF0895A3
:100F400008951F920F920FB60F9211242F933F9383
:100F50004F938F939F93EF93FF938091C00082FDF7
:100F60001DC04091C60020917302309174022F5F22
:100F70003F4F2F7330708091750290917602281741
:100F8000390771F0E0917302F0917402ED5CFD4F4E
:100F90004083309374022093730202C08091C60094
:100FA000FF91EF919F918F914F913F912F910F90D2
:100FB0000FBE0F901F901895E091C702F091C802E4
:100FC000E05CFF4F8191919120813181821B930BD5
:100FD0008F739070892B11F00E94A00708951F92C3
:100FE0000F920FB60F9211242F933F938F939F93DD
:100FF000EF93FF932091B7023091B8028091B9022C
:101000009091BA022817390731F48091C1008F7D81
:101010008093C10014C0E091B902F091BA02E9587E
:10102000FD4F20818091B9029091BA0201968F7391
:1010300090709093BA028093B9022093C600FF91FA
:10104000EF919F918F913F912F910F900FBE0F9035
:101050001F901895AF92BF92DF92EF92FF920F937D
:101060001F93CF93DF93EC017A018B01DD24403095
:1010700081EE580780E0680780E0780711F0DD24F2
:10108000D39491E0A92EB12CEC89FD89DD2069F083
:10109000C50108A002C0880F991F0A94E2F7808357
:1010A00060E079E08DE390E005C0108260E874E8CC
:1010B0008EE190E0A80197010E94D00E21503040AF
:1010C00040405040569547953795279580E1203010
:1010D000380720F0DD2011F0DD24D6CFE889F9892A
:1010E0003083EA89FB89208319A2EE89FF89408138
:1010F00021E030E0C9010C8C02C0880F991F0A94CE
:10110000E2F7482B4083EE89FF894081C9010D8CAD
:1011100002C0880F991F0A94E2F7482B4083EE899A
:10112000FF894081C9010E8C02C0880F991F0A9463
:10113000E2F7482B4083EE89FF8980810F8C02C043
:10114000220F331F0A94E2F7209528232083DF9192
:10115000CF911F910F91FF90EF90DF90BF90AF90D4
:101160000895DC011C96ED91FC911D97E05CFF4F0A
:101170002191319180819181281B390B2F7330701F
:10118000C9010895DC011C96ED91FC911D97E05C6E
:10119000FF4F20813181E054F040DF01AE5BBF4F53
:1011A0008D919C9111972817390719F42FEF3FEF74
:1011B00007C08D919C91E80FF91F8081282F30E0A6
:1011C000C9010895DC011C96ED91FC911D97E05C2E
:1011D000FF4F20813181E054F040DF01AE5BBF4F13
:1011E0008D919C9111972817390719F42FEF3FEF34
:1011F00010C08D919C911197E80FF91F20818D915E
:101200009C91119701968F73907011969C938E9379
:1012100030E0C9010895DC0191968C919197882363
:1012200039F05496ED91FC915597808186FFF9CF66
:1012300091961C920895CF93DF93EC01EE85FF8584
:10124000E05CFF4F20813181E054F0402F5F3F4F41
:101250002F733070DF01AE5BBF4F8D919C91119762
:1012600028173907D1F3E05CFF4F80819181E0546A
:10127000F040E80FF91F6083EE85FF85E05CFF4FCB
:1012800031832083EE89FF89208181E090E00F8CFB
:1012900002C0880F991F0A94E2F7282B208381E06F
:1012A00089A3EC89FD8980818064808381E090E05E
:1012B000DF91CF9108951092BE021092BD0288EE88
:1012C00093E0A0E0B0E08093BF029093C002A093AF
:1012D000C102B093C2028EE591E09093BC0280936C
:1012E000BB0283E392E09093C8028093C70287E732
:1012F00092E09093CA028093C90285EC90E09093AB
:10130000CC028093CB0284EC90E09093CE02809349
:10131000CD0280EC90E09093D0028093CF0281ECDC
:1013200090E09093D2028093D10282EC90E090936F
:10133000D4028093D30286EC90E09093D6028093FF
:10134000D50284E08093D70283E08093D80287E0BF
:101350008093D90285E08093DA0281E08093DB02FA
:101360000895CF93DF930E94D2060E946901CCEDCD
:10137000D7E00E94DB022097E1F30E94DC07F9CF5F
:10138000CF92DF92EF92FF920F931F93CF93DF9351
:101390007C016B018A01C0E0D0E00FC0D6016D91E5
:1013A0006D01D701ED91FC910190F081E02DC70115
:1013B0000995C80FD91F015010400115110571F78B
:1013C000CE01DF91CF911F910F91FF90EF90DF90B1
:1013D000CF900895EF92FF920F931F938C01DC0141
:1013E000ED91FC910190F081E02D6DE009957C017B
:1013F000D801ED91FC910190F081E02DC8016AE0E7
:1014000009959C012E0D3F1DC9011F910F91FF9061
:10141000EF900895CF93DF93EC016115710519F4F6
:1014200020E030E00FC0DB010D900020E9F71197BC
:10143000A61BB70BE881F9810280F381E02DAD0195
:1014400009959C01C901DF91CF9108954F925F9258
:101450007F928F929F92AF92BF92CF92DF92EF9244
:10146000FF920F931F93DF93CF93CDB7DEB7A19772
:101470000FB6F894DEBF0FBECDBF2C01742ECB018A
:10148000223008F42AE019A231E2C32ED12CCC0E6E
:10149000DD1E822E9924AA24BB24672D752FA50159
:1014A00094010E94D00E79018A01C801B701A501FB
:1014B00094010E94B10E472D461B0894C108D10823
:1014C0004A3014F4405D01C0495CF6014083E114E8
:1014D000F1040105110521F07E2C5F2DC801DDCF3F
:1014E000C201B6010E940A0AA1960FB6F894DEBFA7
:1014F0000FBECDBFCF91DF911F910F91FF90EF9065
:10150000DF90CF90BF90AF909F908F907F905F9033
:101510004F900895DC012115310541F4ED91FC91C6
:101520000190F081E02D642F099508950E94260A0C
:101530000895CF92DF92EF92FF920F931F93CF9374
:10154000DF93EC016A017B012115310541F4E8814B
:10155000F9810190F081E02D642F09951FC02A3098
:101560003105D1F477FF17C0E881F9810190F0814E
:10157000E02D6DE209958C0144275527BA014C19DD
:101580005D096E097F09CE012AE00E94260A9801B2
:10159000280F391F04C02AE00E94260A9C01C901B5
:1015A000DF91CF911F910F91FF90EF90DF90CF903F
:1015B00008950E940A0A08957F928F929F92AF9297
:1015C000BF92CF92DF92EF92FF920F931F93CF9330
:1015D000DF934C017A018B01722ECB01BA01A80175
:1015E00097010E94960E882321F0C4016CE371E0FC
:1015F00021C0C0E0D0E057016801E894D7F8C601E7
:10160000B5012FEF3FEF4FE75FE70E94960E88236B
:1016100051F4C601B5012FEF3FEF4FE75FE70E949E
:10162000630C181614F0C1E0D0E0219739F0C40122
:1016300060E471E00E940A0AEC0193C0C801B7019E
:101640002FEF3FEF4FE75FE40E94D70D181654F0DD
:10165000C801B7012FEF3FEF4FE75FEC0E94630C2B
:10166000882324F4C40164E471E0E4CFC801B70125
:1016700020E030E040E050E00E94630C87FD03C0B2
:10168000C0E0D0E00EC0D401ED91FC910190F0815A
:10169000E02DC4016DE20995EC0117FB109517F9D7
:1016A000109520E030E040E05FE3DD240BC0CA018C
:1016B000B90120E030E040E251E40E94670C9B0158
:1016C000AC01D394D71498F3C801B7010E94D70B8B
:1016D0005B016C010E94D40C7B018C01C401B80138
:1016E000A7012AE030E00E948A0AC80FD91F77209C
:1016F00039F0C40168E471E00E940A0AC80FD91FDA
:10170000C801B7010E94000D9B01AC01C601B501E3
:101710000E94D60B24C020E030E040E251E40E9459
:10172000E20D7B018C010E94CF0C5B016C01CC248B
:10173000B7FCC094DC2CC401B601A5012AE030E05E
:101740000E94990AC80FD91FC601B5010E94020D57
:101750009B01AC01C801B7010E94D60B7A94772097
:10176000D1F6CE01DF91CF911F910F91FF90EF90B5
:10177000DF90CF90BF90AF909F908F907F90089513
:101780000E94DC0A0895EF92FF920F931F937C0151
:101790000E940A0A8C01C7010E94EA09080F191F5A
:1017A000C8011F910F91FF90EF9008955058BB27EB
:1017B000AA270ED0C2C1B3D130F0B8D120F031F495
:1017C0009F3F11F41EF483C10EF4E095E7FB79C14D
:1017D000E92FC4D180F3BA1762077307840795070E
:1017E00018F071F49EF5DCC10EF4E0950B2EBA2FC3
:1017F000A02D0B01B90190010C01CA01A001112417
:10180000FF27591B99F0593F50F4503E68F11A16C2
:10181000F040A22F232F342F4427585FF3CF469553
:1018200037952795A795F0405395C9F77EF41F1675
:10183000BA0B620B730B840BBAF09150A1F0FF0F3F
:10184000BB1F661F771F881FC2F70EC0BA0F621F2B
:10185000731F841F48F4879577956795B795F7951B
:101860009E3F08F0B3CF9395880F08F09927EE0FAD
:10187000979587950895DF93DD27B92FBF7740E8C7
:101880005FE31616170648075B0710F4D92F93D1AC
:101890009F938F937F936F9346D2E8E6F0E01AD13F
:1018A0004CD12F913F914F915F9198D1DD2349F019
:1018B0009058A2EA2AED3FE049EC5FE3D0785D273B
:1018C00087DFDF913AC1D9D008F481E008950CD0C8
:1018D00034C12CD140F023D130F021F45F3F19F016
:1018E000F0C051115EC1F3C039D198F39923C9F307
:1018F0005523B1F3951B550BBB27AA276217730716
:10190000840738F09F5F5F4F220F331F441FAA1FC9
:10191000A9F333D00E2E3AF0E0E830D09150504089
:10192000E695001CCAF729D0FE2F27D0660F771F37
:10193000881FBB1F261737074807AB07B0E809F019
:10194000BB0B802DBF01FF2793585F4F2AF09E3FAE
:10195000510568F0B6C025C15F3FECF3983EDCF35B
:10196000869577956795B795F7959F5FC9F7880F27
:10197000911D9695879597F90895E1E0660F771F79
:10198000881FBB1F621773078407BA0720F0621B0A
:10199000730B840BBA0BEE1F88F7E095089504D003
:1019A0006894B111FEC00895E1D088F09F5790F07F
:1019B000B92F9927B751A0F0D1F0660F771F881F74
:1019C000991F1AF0BA95C9F712C0B13081F0E8D06A
:1019D000B1E00895E5C0672F782F8827B85F39F008
:1019E000B93FCCF3869577956795B395D9F73EF4D3
:1019F00090958095709561957F4F8F4F9F4F08957B
:101A0000E89409C097FB3EF4909580957095619598
:101A10007F4F8F4F9F4F9923A9F0F92F96E9BB274E
:101A20009395F695879577956795B795F111F8CFCA
:101A3000FAF4BB0F11F460FF1BC06F5F7F4F8F4F35
:101A40009F4F16C0882311F096E911C0772321F02B
:101A50009EE8872F762F05C0662371F096E8862FC3
:101A600070E060E02AF09A95660F771F881FDAF71A
:101A7000880F9695879597F90895990F0008550F47
:101A8000AA0BE0E8FEEF16161706E807F907C0F004
:101A900012161306E407F50798F0621B730B840B0C
:101AA000950B39F40A2661F0232B242B252B21F4E6
:101AB00008950A2609F4A140A6958FEF811D811D86
:101AC000089597F99F6780E870E060E008959FEFC0
:101AD00080EC0895DF93CF931F930F93FF92EF92C3
:101AE000DF927B018C01689405C0DA2EEF0176D07D
:101AF000FE01E894A5912591359145915591AEF35C
:101B0000EF0166DEFE019701A801DA9479F7DF9014
:101B1000EF90FF900F911F91CF91DF9108950024D6
:101B20000A941616170618060906089500240A9442
:101B300012161306140605060895092E0394000CC8
:101B400011F4882352F0BB0F40F4BF2B11F460FF57
:101B500004C06F5F7F4F8F4F9F4F089557FD905880
:101B6000440F551F59F05F3F71F04795880F97FB61
:101B7000991F61F09F3F79F087950895121613061B
:101B80001406551FF2CF4695F1DF08C0161617064A
:101B90001806991FF1CF869571056105089408957F
:101BA000E894BB2766277727CB0197F9089565DF6F
:101BB00008F48FEF08959B01AC0160E070E080E8CD
:101BC0009FE385CE0BD0B9CFAADF28F0AFDF18F0A6
:101BD000952309F076CF7BCF1124E3CFBFDFA0F3AD
:101BE000959FD1F3950F50E0551F629FF001729FB2
:101BF000BB27F00DB11D639FAA27F00DB11DAA1FD1
:101C0000649F6627B00DA11D661F829F2227B00D1D
:101C1000A11D621F739FB00DA11D621F839FA00DA8
:101C2000611D221F749F3327A00D611D231F849FF8
:101C3000600D211D822F762F6A2F11249F5750404F
:101C40008AF0E1F088234AF0EE0FFF1FBB1F661FEA
:101C5000771F881F91505040A9F79E3F510570F0A3
:101C600030CF9FCF5F3FECF3983EDCF386957795BE
:101C70006795B795F795E7959F5FC1F7FE2B880F9E
:101C8000911D9695879597F9089511F40EF41FCF3D
:101C900051C06CDFD0F39923D9F3CEF39F57550B86
:101CA00087FF58D056959795B0E020F4660F771FC0
:101CB000881FBB1F1F930F9300249001A001800178
:101CC000F001A0E80E0F1F1F0A1E511D601B710BB3
:101CD0008009B50B48F4600F711F801DB51F0E1BE6
:101CE0001F0B0A0A510907C02E0F3F1F4A1F0E0F74
:101CF0001F1F0A1E511D660F771F881FBB1FA69549
:101D0000F795E795F8F60617170708065B07211DF4
:101D1000311D411D0F911F91B901842F9158880FDA
:101D20009695879508959B01AC014CCFA6DE880B54
:101D3000990B08959F3F49F0915028F48695779527
:101D40006795B7959F5F80389F4F880F96958795C9
:101D500097F9089591505040660F771F881FD2F76A
:101D60000895629FD001739FF001829FE00DF11DE5
:101D7000649FE00DF11D929FF00D839FF00D749F05
:101D8000F00D659FF00D9927729FB00DE11DF91FB1
:101D9000639FB00DE11DF91FBD01CF01112408950E
:101DA000A1E21A2EAA1BBB1BFD010DC0AA1FBB1F5F
:101DB000EE1FFF1FA217B307E407F50720F0A21BD1
:101DC000B30BE40BF50B661F771F881F991F1A943E
:101DD00069F760957095809590959B01AC01BD0168
:101DE000CF010895EE0FFF1F0590F491E02D0994A7
:041DF000F894FFCF95
:101DF400467265713A20006B487A0020496D70651F
:101E0400643A20006B4F686D00204D61676E3A2084
:101E140000200020506861733A200054656D70659D
:101E24007261747572653A2000432E006E616E0013
:101E3400696E66006F7666002E000000000066037F
:101E44003503EE02F7020C031D03000000001B091A
:0A1E5400C009B108E208C2080B093A
:00000001FF
